{
  "contractName": "Adoption",
  "abi": [
    {
      "inputs": [
        {
          "internalType": "uint256",
          "name": "",
          "type": "uint256"
        }
      ],
      "name": "adopters",
      "outputs": [
        {
          "internalType": "address",
          "name": "",
          "type": "address"
        }
      ],
      "stateMutability": "view",
      "type": "function",
      "constant": true
    },
    {
      "inputs": [
        {
          "internalType": "uint256",
          "name": "petId",
          "type": "uint256"
        }
      ],
      "name": "adopt",
      "outputs": [
        {
          "internalType": "uint256",
          "name": "",
          "type": "uint256"
        }
      ],
      "stateMutability": "nonpayable",
      "type": "function"
    },
    {
      "inputs": [],
      "name": "getAdopters",
      "outputs": [
        {
          "internalType": "address[16]",
          "name": "",
          "type": "address[16]"
        }
      ],
      "stateMutability": "view",
      "type": "function",
      "constant": true
    },
    {
      "inputs": [
        {
          "internalType": "uint256",
          "name": "petId",
          "type": "uint256"
        }
      ],
      "name": "leave",
      "outputs": [
        {
          "internalType": "uint256",
          "name": "",
          "type": "uint256"
        }
      ],
      "stateMutability": "nonpayable",
      "type": "function"
    }
  ],
  "bytecode": "0x608060405234801561001057600080fd5b506105e9806100206000396000f3fe608060405234801561001057600080fd5b506004361061004c5760003560e01c80633de4eb171461005157806343ae80d31461006f57806367dfd4c91461009f5780638588b2c5146100cf575b600080fd5b6100596100ff565b604051610066919061042f565b60405180910390f35b61008960048036038101906100849190610486565b610180565b60405161009691906104c2565b60405180910390f35b6100b960048036038101906100b49190610486565b6101b6565b6040516100c691906104ec565b60405180910390f35b6100e960048036038101906100e49190610486565b6102b7565b6040516100f691906104ec565b60405180910390f35b61010761032f565b6000601080602002604051908101604052809291908260108015610176576020028201915b8160009054906101000a900473ffffffffffffffffffffffffffffffffffffffff1673ffffffffffffffffffffffffffffffffffffffff168152602001906001019080831161012c575b5050505050905090565b6000816010811061019057600080fd5b016000915054906101000a900473ffffffffffffffffffffffffffffffffffffffff1681565b60003373ffffffffffffffffffffffffffffffffffffffff16600083601081106101e3576101e2610507565b5b0160009054906101000a900473ffffffffffffffffffffffffffffffffffffffff1673ffffffffffffffffffffffffffffffffffffffff161461025b576040517f08c379a000000000000000000000000000000000000000000000000000000000815260040161025290610593565b60405180910390fd5b60008083601081106102705761026f610507565b5b0160006101000a81548173ffffffffffffffffffffffffffffffffffffffff021916908373ffffffffffffffffffffffffffffffffffffffff160217905550819050919050565b60008082101580156102ca5750600f8211155b6102d357600080fd5b33600083601081106102e8576102e7610507565b5b0160006101000a81548173ffffffffffffffffffffffffffffffffffffffff021916908373ffffffffffffffffffffffffffffffffffffffff160217905550819050919050565b604051806102000160405280601090602082028036833780820191505090505090565b600060109050919050565b600081905092915050565b6000819050919050565b600073ffffffffffffffffffffffffffffffffffffffff82169050919050565b600061039d82610372565b9050919050565b6103ad81610392565b82525050565b60006103bf83836103a4565b60208301905092915050565b6000602082019050919050565b6103e181610352565b6103eb818461035d565b92506103f682610368565b8060005b8381101561042757815161040e87826103b3565b9650610419836103cb565b9250506001810190506103fa565b505050505050565b60006102008201905061044560008301846103d8565b92915050565b600080fd5b6000819050919050565b61046381610450565b811461046e57600080fd5b50565b6000813590506104808161045a565b92915050565b60006020828403121561049c5761049b61044b565b5b60006104aa84828501610471565b91505092915050565b6104bc81610392565b82525050565b60006020820190506104d760008301846104b3565b92915050565b6104e681610450565b82525050565b600060208201905061050160008301846104dd565b92915050565b7f4e487b7100000000000000000000000000000000000000000000000000000000600052603260045260246000fd5b600082825260208201905092915050565b7f43616c6c6572206973204e6f7420546865204f776e6572000000000000000000600082015250565b600061057d601783610536565b915061058882610547565b602082019050919050565b600060208201905081810360008301526105ac81610570565b905091905056fea2646970667358221220c27d338d65cea1fe9f8f54f99d4692a359aac6b94de4a86e59c58a0cff59dba464736f6c63430008130033",
  "immutableReferences": {},
  "source": "// SPDX-License-Identifier: SEE LICENSE IN LICENSE\r\npragma solidity ^0.8.0;\r\n\r\ncontract Adoption {\r\n    address[16] public adopters;\r\n\r\n    //Adopting a pet\r\n    function adopt(uint petId) public returns (uint) {\r\n        require(petId >= 0 && petId <= 15);\r\n        adopters[petId] = msg.sender;\r\n        return petId;\r\n    }\r\n\r\n    // Retrieving the adopters\r\n    function getAdopters() public view returns (address[16] memory) {\r\n        return adopters;\r\n    }\r\n\r\n    function leave(uint petId) public returns(uint) {\r\n        require(adopters[petId] == msg.sender, 'Caller is Not The Owner');\r\n        adopters[petId] = address(0);\r\n        return petId;\r\n    }\r\n}\r\n//comment",
  "sourcePath": "I:\\University Data\\FAST semester work\\Semester 8 work\\Blockchain\\Practice\\crowd_fund\\contracts\\Adoption.sol",
  "compiler": {
    "name": "solc",
    "version": "0.8.19+commit.7dd6d404.Emscripten.clang"
  },
  "schemaVersion": "3.4.13",
  "updatedAt": "2023-04-21T17:54:01.388Z",
  "networkType": "ethereum",
  "devdoc": {
    "kind": "dev",
    "methods": {},
    "version": 1
  },
  "userdoc": {
    "kind": "user",
    "methods": {},
    "version": 1
  }
}