{
  "contractName": "Nobiety",
  "abi": [
    {
      "inputs": [],
      "stateMutability": "nonpayable",
      "type": "constructor"
    },
    {
      "anonymous": false,
      "inputs": [
        {
          "components": [
            {
              "internalType": "address",
              "name": "backer",
              "type": "address"
            },
            {
              "internalType": "uint256",
              "name": "donation",
              "type": "uint256"
            },
            {
              "internalType": "string",
              "name": "time",
              "type": "string"
            }
          ],
          "indexed": true,
          "internalType": "struct Nobiety.Backer",
          "name": "",
          "type": "tuple"
        },
        {
          "indexed": false,
          "internalType": "string",
          "name": "",
          "type": "string"
        }
      ],
      "name": "backerCampagin",
      "type": "event"
    },
    {
      "anonymous": false,
      "inputs": [
        {
          "components": [
            {
              "internalType": "string",
              "name": "title",
              "type": "string"
            },
            {
              "internalType": "uint256",
              "name": "amount",
              "type": "uint256"
            },
            {
              "internalType": "string",
              "name": "url",
              "type": "string"
            },
            {
              "internalType": "string",
              "name": "description",
              "type": "string"
            },
            {
              "internalType": "string",
              "name": "status",
              "type": "string"
            },
            {
              "internalType": "uint256",
              "name": "raisedAmount",
              "type": "uint256"
            },
            {
              "internalType": "address",
              "name": "owner",
              "type": "address"
            }
          ],
          "indexed": true,
          "internalType": "struct Nobiety.Campaign",
          "name": "",
          "type": "tuple"
        }
      ],
      "name": "deleteCampagin",
      "type": "event"
    },
    {
      "anonymous": false,
      "inputs": [
        {
          "indexed": true,
          "internalType": "address",
          "name": "",
          "type": "address"
        },
        {
          "indexed": false,
          "internalType": "uint256",
          "name": "",
          "type": "uint256"
        },
        {
          "indexed": false,
          "internalType": "string",
          "name": "",
          "type": "string"
        }
      ],
      "name": "fundsSentToOwner",
      "type": "event"
    },
    {
      "anonymous": false,
      "inputs": [
        {
          "components": [
            {
              "internalType": "string",
              "name": "title",
              "type": "string"
            },
            {
              "internalType": "uint256",
              "name": "amount",
              "type": "uint256"
            },
            {
              "internalType": "string",
              "name": "url",
              "type": "string"
            },
            {
              "internalType": "string",
              "name": "description",
              "type": "string"
            },
            {
              "internalType": "string",
              "name": "status",
              "type": "string"
            },
            {
              "internalType": "uint256",
              "name": "raisedAmount",
              "type": "uint256"
            },
            {
              "internalType": "address",
              "name": "owner",
              "type": "address"
            }
          ],
          "indexed": true,
          "internalType": "struct Nobiety.Campaign",
          "name": "",
          "type": "tuple"
        }
      ],
      "name": "launchCampagin",
      "type": "event"
    },
    {
      "anonymous": false,
      "inputs": [
        {
          "indexed": true,
          "internalType": "address",
          "name": "",
          "type": "address"
        },
        {
          "indexed": false,
          "internalType": "uint256",
          "name": "",
          "type": "uint256"
        },
        {
          "indexed": false,
          "internalType": "string",
          "name": "",
          "type": "string"
        }
      ],
      "name": "refund",
      "type": "event"
    },
    {
      "anonymous": false,
      "inputs": [
        {
          "components": [
            {
              "internalType": "string",
              "name": "title",
              "type": "string"
            },
            {
              "internalType": "uint256",
              "name": "amount",
              "type": "uint256"
            },
            {
              "internalType": "string",
              "name": "url",
              "type": "string"
            },
            {
              "internalType": "string",
              "name": "description",
              "type": "string"
            },
            {
              "internalType": "string",
              "name": "status",
              "type": "string"
            },
            {
              "internalType": "uint256",
              "name": "raisedAmount",
              "type": "uint256"
            },
            {
              "internalType": "address",
              "name": "owner",
              "type": "address"
            }
          ],
          "indexed": true,
          "internalType": "struct Nobiety.Campaign",
          "name": "",
          "type": "tuple"
        }
      ],
      "name": "updateCampagin",
      "type": "event"
    },
    {
      "anonymous": false,
      "inputs": [
        {
          "indexed": true,
          "internalType": "address",
          "name": "",
          "type": "address"
        },
        {
          "indexed": false,
          "internalType": "uint256",
          "name": "",
          "type": "uint256"
        }
      ],
      "name": "withdrawAmount",
      "type": "event"
    },
    {
      "inputs": [
        {
          "internalType": "uint256",
          "name": "",
          "type": "uint256"
        }
      ],
      "name": "allCampaignList",
      "outputs": [
        {
          "internalType": "string",
          "name": "title",
          "type": "string"
        },
        {
          "internalType": "uint256",
          "name": "amount",
          "type": "uint256"
        },
        {
          "internalType": "string",
          "name": "url",
          "type": "string"
        },
        {
          "internalType": "string",
          "name": "description",
          "type": "string"
        },
        {
          "internalType": "string",
          "name": "status",
          "type": "string"
        },
        {
          "internalType": "uint256",
          "name": "raisedAmount",
          "type": "uint256"
        },
        {
          "internalType": "address",
          "name": "owner",
          "type": "address"
        }
      ],
      "stateMutability": "view",
      "type": "function",
      "constant": true
    },
    {
      "inputs": [
        {
          "internalType": "string",
          "name": "",
          "type": "string"
        },
        {
          "internalType": "uint256",
          "name": "",
          "type": "uint256"
        }
      ],
      "name": "backers",
      "outputs": [
        {
          "internalType": "address",
          "name": "backer",
          "type": "address"
        },
        {
          "internalType": "uint256",
          "name": "donation",
          "type": "uint256"
        },
        {
          "internalType": "string",
          "name": "time",
          "type": "string"
        }
      ],
      "stateMutability": "view",
      "type": "function",
      "constant": true
    },
    {
      "inputs": [
        {
          "internalType": "address",
          "name": "",
          "type": "address"
        }
      ],
      "name": "balances",
      "outputs": [
        {
          "internalType": "uint256",
          "name": "",
          "type": "uint256"
        }
      ],
      "stateMutability": "view",
      "type": "function",
      "constant": true
    },
    {
      "inputs": [],
      "name": "deposit",
      "outputs": [],
      "stateMutability": "payable",
      "type": "function",
      "payable": true
    },
    {
      "inputs": [
        {
          "internalType": "address",
          "name": "ad",
          "type": "address"
        }
      ],
      "name": "getDeposit",
      "outputs": [
        {
          "internalType": "uint256",
          "name": "",
          "type": "uint256"
        }
      ],
      "stateMutability": "view",
      "type": "function",
      "constant": true
    },
    {
      "inputs": [
        {
          "internalType": "uint256",
          "name": "_amount",
          "type": "uint256"
        }
      ],
      "name": "withdrawBalance",
      "outputs": [],
      "stateMutability": "payable",
      "type": "function",
      "payable": true
    },
    {
      "inputs": [
        {
          "internalType": "string",
          "name": "_title",
          "type": "string"
        },
        {
          "internalType": "uint256",
          "name": "_donation",
          "type": "uint256"
        },
        {
          "internalType": "string",
          "name": "_time",
          "type": "string"
        }
      ],
      "name": "backCampaign",
      "outputs": [],
      "stateMutability": "nonpayable",
      "type": "function"
    },
    {
      "inputs": [
        {
          "internalType": "string",
          "name": "_title",
          "type": "string"
        }
      ],
      "name": "sendFundsToOwner",
      "outputs": [],
      "stateMutability": "nonpayable",
      "type": "function"
    },
    {
      "inputs": [
        {
          "internalType": "string",
          "name": "title",
          "type": "string"
        }
      ],
      "name": "isTitleExist",
      "outputs": [
        {
          "internalType": "bool",
          "name": "",
          "type": "bool"
        }
      ],
      "stateMutability": "view",
      "type": "function",
      "constant": true
    },
    {
      "inputs": [
        {
          "internalType": "string",
          "name": "_title",
          "type": "string"
        }
      ],
      "name": "retreiveCampaignFromMemory",
      "outputs": [
        {
          "components": [
            {
              "internalType": "string",
              "name": "title",
              "type": "string"
            },
            {
              "internalType": "uint256",
              "name": "amount",
              "type": "uint256"
            },
            {
              "internalType": "string",
              "name": "url",
              "type": "string"
            },
            {
              "internalType": "string",
              "name": "description",
              "type": "string"
            },
            {
              "internalType": "string",
              "name": "status",
              "type": "string"
            },
            {
              "internalType": "uint256",
              "name": "raisedAmount",
              "type": "uint256"
            },
            {
              "internalType": "address",
              "name": "owner",
              "type": "address"
            }
          ],
          "internalType": "struct Nobiety.Campaign",
          "name": "",
          "type": "tuple"
        }
      ],
      "stateMutability": "view",
      "type": "function",
      "constant": true
    },
    {
      "inputs": [
        {
          "internalType": "string",
          "name": "_title",
          "type": "string"
        },
        {
          "internalType": "uint256",
          "name": "_amount",
          "type": "uint256"
        },
        {
          "internalType": "string",
          "name": "_url",
          "type": "string"
        },
        {
          "internalType": "string",
          "name": "_description",
          "type": "string"
        }
      ],
      "name": "addCampaign",
      "outputs": [],
      "stateMutability": "nonpayable",
      "type": "function"
    },
    {
      "inputs": [
        {
          "internalType": "string",
          "name": "_oldTitle",
          "type": "string"
        },
        {
          "internalType": "string",
          "name": "_title",
          "type": "string"
        },
        {
          "internalType": "uint256",
          "name": "_amount",
          "type": "uint256"
        },
        {
          "internalType": "string",
          "name": "_url",
          "type": "string"
        },
        {
          "internalType": "string",
          "name": "_description",
          "type": "string"
        }
      ],
      "name": "updateCampaign",
      "outputs": [],
      "stateMutability": "nonpayable",
      "type": "function"
    },
    {
      "inputs": [],
      "name": "getInsights",
      "outputs": [
        {
          "internalType": "uint256",
          "name": "",
          "type": "uint256"
        },
        {
          "internalType": "uint256",
          "name": "",
          "type": "uint256"
        }
      ],
      "stateMutability": "view",
      "type": "function",
      "constant": true
    },
    {
      "inputs": [
        {
          "internalType": "string",
          "name": "_title",
          "type": "string"
        }
      ],
      "name": "deleteCampaign",
      "outputs": [],
      "stateMutability": "payable",
      "type": "function",
      "payable": true
    },
    {
      "inputs": [
        {
          "internalType": "string",
          "name": "_title",
          "type": "string"
        }
      ],
      "name": "getBackers",
      "outputs": [
        {
          "components": [
            {
              "internalType": "address",
              "name": "backer",
              "type": "address"
            },
            {
              "internalType": "uint256",
              "name": "donation",
              "type": "uint256"
            },
            {
              "internalType": "string",
              "name": "time",
              "type": "string"
            }
          ],
          "internalType": "struct Nobiety.Backer[]",
          "name": "",
          "type": "tuple[]"
        }
      ],
      "stateMutability": "view",
      "type": "function",
      "constant": true
    },
    {
      "inputs": [],
      "name": "getAllCampaignList",
      "outputs": [
        {
          "components": [
            {
              "internalType": "string",
              "name": "title",
              "type": "string"
            },
            {
              "internalType": "uint256",
              "name": "amount",
              "type": "uint256"
            },
            {
              "internalType": "string",
              "name": "url",
              "type": "string"
            },
            {
              "internalType": "string",
              "name": "description",
              "type": "string"
            },
            {
              "internalType": "string",
              "name": "status",
              "type": "string"
            },
            {
              "internalType": "uint256",
              "name": "raisedAmount",
              "type": "uint256"
            },
            {
              "internalType": "address",
              "name": "owner",
              "type": "address"
            }
          ],
          "internalType": "struct Nobiety.Campaign[]",
          "name": "",
          "type": "tuple[]"
        }
      ],
      "stateMutability": "view",
      "type": "function",
      "constant": true
    }
  ],
  "bytecode": "0x608060405234801561001057600080fd5b50613ee6806100206000396000f3fe6080604052600436106100f35760003560e01c8063c178d0c31161008a578063e1254fba11610059578063e1254fba1461032e578063e1b3727d1461036b578063ef59bef514610396578063f9b713d9146103bf576100f3565b8063c178d0c3146102a2578063d0602e69146102df578063d0e30db014610308578063da76d5cd14610312576100f3565b806377adfc64116100c657806377adfc64146101da5780638c1cab5b146101f6578063a739dbd714610222578063ae87732d1461025f576100f3565b806306d6f9ac146100f857806327e235e3146101215780636b03e1b01461015e5780636d25a5f31461019b575b600080fd5b34801561010457600080fd5b5061011f600480360381019061011a9190612546565b6103e8565b005b34801561012d57600080fd5b50610148600480360381019061014391906125ed565b61054c565b6040516101559190612633565b60405180910390f35b34801561016a57600080fd5b5061018560048036038101906101809190612546565b610564565b60405161019291906127fd565b60405180910390f35b3480156101a757600080fd5b506101c260048036038101906101bd919061284b565b6106d3565b6040516101d193929190612900565b60405180910390f35b6101f460048036038101906101ef9190612546565b6107d8565b005b34801561020257600080fd5b5061020b610d10565b60405161021992919061293e565b60405180910390f35b34801561022e57600080fd5b5061024960048036038101906102449190612546565b610d8e565b6040516102569190612a18565b60405180910390f35b34801561026b57600080fd5b5061028660048036038101906102819190612a3a565b61110d565b6040516102999796959493929190612a67565b60405180910390f35b3480156102ae57600080fd5b506102c960048036038101906102c49190612546565b61139f565b6040516102d69190612b0d565b60405180910390f35b3480156102eb57600080fd5b5061030660048036038101906103019190612b28565b611429565b005b610310611800565b005b61032c60048036038101906103279190612a3a565b611858565b005b34801561033a57600080fd5b50610355600480360381019061035091906125ed565b6119c8565b6040516103629190612633565b60405180910390f35b34801561037757600080fd5b50610380611a11565b60405161038d9190612d26565b60405180910390f35b3480156103a257600080fd5b506103bd60048036038101906103b89190612d48565b611ed1565b005b3480156103cb57600080fd5b506103e660048036038101906103e19190612e33565b612088565b005b60006103f38261227d565b9050806001015481600501541461043f576040517f08c379a000000000000000000000000000000000000000000000000000000000815260040161043690612f3a565b60405180910390fd5b670de0b6b3a764000081600501546104579190612f89565b600260008360060160009054906101000a900473ffffffffffffffffffffffffffffffffffffffff1673ffffffffffffffffffffffffffffffffffffffff1673ffffffffffffffffffffffffffffffffffffffff16815260200190815260200160002060008282546104c99190612fcb565b925050819055508060060160009054906101000a900473ffffffffffffffffffffffffffffffffffffffff1673ffffffffffffffffffffffffffffffffffffffff167f2465133b67ce24a12ccac4285f1e7a10e405b3bebed013126f6aec55a068c907826005015484604051610540929190612fff565b60405180910390a25050565b60026020528060005260406000206000915090505481565b6060600182604051610576919061306b565b9081526020016040518091039020805480602002602001604051908101604052809291908181526020016000905b828210156106c857838290600052602060002090600302016040518060600160405290816000820160009054906101000a900473ffffffffffffffffffffffffffffffffffffffff1673ffffffffffffffffffffffffffffffffffffffff1673ffffffffffffffffffffffffffffffffffffffff16815260200160018201548152602001600282018054610637906130b1565b80601f0160208091040260200160405190810160405280929190818152602001828054610663906130b1565b80156106b05780601f10610685576101008083540402835291602001916106b0565b820191906000526020600020905b81548152906001019060200180831161069357829003601f168201915b505050505081525050815260200190600101906105a4565b505050509050919050565b600182805160208101820180518482526020830160208501208183528095505050505050818154811061070557600080fd5b9060005260206000209060030201600091509150508060000160009054906101000a900473ffffffffffffffffffffffffffffffffffffffff1690806001015490806002018054610755906130b1565b80601f0160208091040260200160405190810160405280929190818152602001828054610781906130b1565b80156107ce5780601f106107a3576101008083540402835291602001916107ce565b820191906000526020600020905b8154815290600101906020018083116107b157829003601f168201915b5050505050905083565b60006107e38261227d565b90503373ffffffffffffffffffffffffffffffffffffffff168160060160009054906101000a900473ffffffffffffffffffffffffffffffffffffffff1673ffffffffffffffffffffffffffffffffffffffff1614610877576040517f08c379a000000000000000000000000000000000000000000000000000000000815260040161086e9061312e565b60405180910390fd5b6040518060400160405280600681526020017f526169736564000000000000000000000000000000000000000000000000000081525080519060200120816004016040516108c591906131f1565b60405180910390200361090d576040517f08c379a00000000000000000000000000000000000000000000000000000000081526004016109049061327a565b60405180910390fd5b600060018360405161091f919061306b565b9081526020016040518091039020905060005b8180549050811015610a805760008282815481106109535761095261329a565b5b90600052602060002090600302019050670de0b6b3a7640000816001015461097b9190612f89565b600260008360000160009054906101000a900473ffffffffffffffffffffffffffffffffffffffff1673ffffffffffffffffffffffffffffffffffffffff1673ffffffffffffffffffffffffffffffffffffffff16815260200190815260200160002060008282546109ed9190612fcb565b925050819055508060000160009054906101000a900473ffffffffffffffffffffffffffffffffffffffff1673ffffffffffffffffffffffffffffffffffffffff167fb00a96fea3a33bb737e8809e78b80b2cd91f1e938e2e0a33975a8563cbfde515826001015487604051610a64929190612fff565b60405180910390a2508080610a78906132c9565b915050610932565b50600080600090505b600080549050811015610afe576000808281548110610aab57610aaa61329a565b5b90600052602060002090600702019050858051906020012081600001604051610ad491906131f1565b604051809103902003610aea5781925050610afe565b508080610af6906132c9565b915050610a89565b5060006001600080549050610b139190613311565b81548110610b2457610b2361329a565b5b906000526020600020906007020160008281548110610b4657610b4561329a565b5b906000526020600020906007020160008201816000019081610b689190613507565b506001820154816001015560028201816002019081610b879190613507565b5060038201816003019081610b9c9190613507565b5060048201816004019081610bb19190613507565b50600582015481600501556006820160009054906101000a900473ffffffffffffffffffffffffffffffffffffffff168160060160006101000a81548173ffffffffffffffffffffffffffffffffffffffff021916908373ffffffffffffffffffffffffffffffffffffffff1602179055509050506000805480610c3857610c376135ef565b5b600190038181906000526020600020906007020160008082016000610c5d919061233c565b6001820160009055600282016000610c75919061233c565b600382016000610c85919061233c565b600482016000610c95919061233c565b60058201600090556006820160006101000a81549073ffffffffffffffffffffffffffffffffffffffff02191690555050905582604051610cd69190613826565b60405180910390207fa93106194c51f40f30461d8a0aadf3f3aad1c3d2bc6d9361223f9ae30aa51e7d60405160405180910390a250505050565b6000806000808080549050905060005b81811015610d81576000808281548110610d3d57610d3c61329a565b5b90600052602060002090600702019050600081600501541115610d6d57806005015484610d6a9190612fcb565b93505b508080610d79906132c9565b915050610d20565b5080829350935050509091565b610d9661237c565b60005b6000805490508110156110cc576000808281548110610dbb57610dba61329a565b5b90600052602060002090600702019050838051906020012081600001604051610de491906131f1565b6040518091039020036110b857806040518060e0016040529081600082018054610e0d906130b1565b80601f0160208091040260200160405190810160405280929190818152602001828054610e39906130b1565b8015610e865780601f10610e5b57610100808354040283529160200191610e86565b820191906000526020600020905b815481529060010190602001808311610e6957829003601f168201915b5050505050815260200160018201548152602001600282018054610ea9906130b1565b80601f0160208091040260200160405190810160405280929190818152602001828054610ed5906130b1565b8015610f225780601f10610ef757610100808354040283529160200191610f22565b820191906000526020600020905b815481529060010190602001808311610f0557829003601f168201915b50505050508152602001600382018054610f3b906130b1565b80601f0160208091040260200160405190810160405280929190818152602001828054610f67906130b1565b8015610fb45780601f10610f8957610100808354040283529160200191610fb4565b820191906000526020600020905b815481529060010190602001808311610f9757829003601f168201915b50505050508152602001600482018054610fcd906130b1565b80601f0160208091040260200160405190810160405280929190818152602001828054610ff9906130b1565b80156110465780601f1061101b57610100808354040283529160200191611046565b820191906000526020600020905b81548152906001019060200180831161102957829003601f168201915b50505050508152602001600582015481526020016006820160009054906101000a900473ffffffffffffffffffffffffffffffffffffffff1673ffffffffffffffffffffffffffffffffffffffff1673ffffffffffffffffffffffffffffffffffffffff168152505092505050611108565b5080806110c4906132c9565b915050610d99565b506040517f08c379a00000000000000000000000000000000000000000000000000000000081526004016110ff90613889565b60405180910390fd5b919050565b6000818154811061111d57600080fd5b9060005260206000209060070201600091509050806000018054611140906130b1565b80601f016020809104026020016040519081016040528092919081815260200182805461116c906130b1565b80156111b95780601f1061118e576101008083540402835291602001916111b9565b820191906000526020600020905b81548152906001019060200180831161119c57829003601f168201915b5050505050908060010154908060020180546111d4906130b1565b80601f0160208091040260200160405190810160405280929190818152602001828054611200906130b1565b801561124d5780601f106112225761010080835404028352916020019161124d565b820191906000526020600020905b81548152906001019060200180831161123057829003601f168201915b505050505090806003018054611262906130b1565b80601f016020809104026020016040519081016040528092919081815260200182805461128e906130b1565b80156112db5780601f106112b0576101008083540402835291602001916112db565b820191906000526020600020905b8154815290600101906020018083116112be57829003601f168201915b5050505050908060040180546112f0906130b1565b80601f016020809104026020016040519081016040528092919081815260200182805461131c906130b1565b80156113695780601f1061133e57610100808354040283529160200191611369565b820191906000526020600020905b81548152906001019060200180831161134c57829003601f168201915b5050505050908060050154908060060160009054906101000a900473ffffffffffffffffffffffffffffffffffffffff16905087565b6000806001905060005b60008054905081101561141f5760008082815481106113cb576113ca61329a565b5b906000526020600020906007020190508480519060200120816000016040516113f491906131f1565b60405180910390200361140b57600092505061141f565b508080611417906132c9565b9150506113a9565b5080915050919050565b600015156114368461139f565b151514611478576040517f08c379a000000000000000000000000000000000000000000000000000000000815260040161146f906138f5565b60405180910390fd5b60006114838461227d565b905080600101548160050154106114cf576040517f08c379a00000000000000000000000000000000000000000000000000000000081526004016114c690613961565b60405180910390fd5b8060060160009054906101000a900473ffffffffffffffffffffffffffffffffffffffff1673ffffffffffffffffffffffffffffffffffffffff163373ffffffffffffffffffffffffffffffffffffffff1603611561576040517f08c379a0000000000000000000000000000000000000000000000000000000008152600401611558906139f3565b60405180910390fd5b82600260003373ffffffffffffffffffffffffffffffffffffffff1673ffffffffffffffffffffffffffffffffffffffff1681526020019081526020016000205410156115e3576040517f08c379a00000000000000000000000000000000000000000000000000000000081526004016115da90613a5f565b60405180910390fd5b6000670de0b6b3a7640000846115f99190613aae565b90506000826005015483600101546116119190613311565b905060008183106116225781611624565b825b90508084600501600082825461163a9190612fcb565b92505081905550670de0b6b3a7640000816116559190612f89565b600260003373ffffffffffffffffffffffffffffffffffffffff1673ffffffffffffffffffffffffffffffffffffffff16815260200190815260200160002060008282546116a39190613311565b92505081905550600060405180606001604052803373ffffffffffffffffffffffffffffffffffffffff1681526020018381526020018781525090506001886040516116ef919061306b565b908152602001604051809103902081908060018154018082558091505060019003906000526020600020906003020160009091909190915060008201518160000160006101000a81548173ffffffffffffffffffffffffffffffffffffffff021916908373ffffffffffffffffffffffffffffffffffffffff16021790555060208201518160010155604082015181600201908161178d9190613adf565b50505084600101548560050154036117a9576117a8886103e8565b5b806040516117b79190613c43565b60405180910390207fdec360b0577bfef00e9bd6fc701e8eddf85e1ba47cafba43e8bd3346d6e5f25f896040516117ee9190613c5a565b60405180910390a25050505050505050565b34600260003373ffffffffffffffffffffffffffffffffffffffff1673ffffffffffffffffffffffffffffffffffffffff168152602001908152602001600020600082825461184f9190612fcb565b92505081905550565b80600260003373ffffffffffffffffffffffffffffffffffffffff1673ffffffffffffffffffffffffffffffffffffffff1681526020019081526020016000205410156118da576040517f08c379a00000000000000000000000000000000000000000000000000000000081526004016118d190613a5f565b60405180910390fd5b80600260003373ffffffffffffffffffffffffffffffffffffffff1673ffffffffffffffffffffffffffffffffffffffff16815260200190815260200160002060008282546119299190613311565b925050819055503373ffffffffffffffffffffffffffffffffffffffff166108fc829081150290604051600060405180830381858888f19350505050158015611976573d6000803e3d6000fd5b503373ffffffffffffffffffffffffffffffffffffffff167f736fe5656fcd35d9d20cbd1c42f7f6256ee31aea93b61054d47141c4927e220a826040516119bd9190612633565b60405180910390a250565b6000600260008373ffffffffffffffffffffffffffffffffffffffff1673ffffffffffffffffffffffffffffffffffffffff168152602001908152602001600020549050919050565b60606000805b600080549050811015611ac2576040518060400160405280600781526020017f44656c65746564000000000000000000000000000000000000000000000000008152508051906020012060008281548110611a7557611a7461329a565b5b9060005260206000209060070201600401604051611a9391906131f1565b604051809103902014611aaf578180611aab906132c9565b9250505b8080611aba906132c9565b915050611a17565b5060008167ffffffffffffffff811115611adf57611ade61241b565b5b604051908082528060200260200182016040528015611b1857816020015b611b0561237c565b815260200190600190039081611afd5790505b5090506000805b600080549050811015611ec7576040518060400160405280600781526020017f44656c65746564000000000000000000000000000000000000000000000000008152508051906020012060008281548110611b7d57611b7c61329a565b5b9060005260206000209060070201600401604051611b9b91906131f1565b604051809103902014611eb45760008181548110611bbc57611bbb61329a565b5b90600052602060002090600702016040518060e0016040529081600082018054611be5906130b1565b80601f0160208091040260200160405190810160405280929190818152602001828054611c11906130b1565b8015611c5e5780601f10611c3357610100808354040283529160200191611c5e565b820191906000526020600020905b815481529060010190602001808311611c4157829003601f168201915b5050505050815260200160018201548152602001600282018054611c81906130b1565b80601f0160208091040260200160405190810160405280929190818152602001828054611cad906130b1565b8015611cfa5780601f10611ccf57610100808354040283529160200191611cfa565b820191906000526020600020905b815481529060010190602001808311611cdd57829003601f168201915b50505050508152602001600382018054611d13906130b1565b80601f0160208091040260200160405190810160405280929190818152602001828054611d3f906130b1565b8015611d8c5780601f10611d6157610100808354040283529160200191611d8c565b820191906000526020600020905b815481529060010190602001808311611d6f57829003601f168201915b50505050508152602001600482018054611da5906130b1565b80601f0160208091040260200160405190810160405280929190818152602001828054611dd1906130b1565b8015611e1e5780601f10611df357610100808354040283529160200191611e1e565b820191906000526020600020905b815481529060010190602001808311611e0157829003601f168201915b50505050508152602001600582015481526020016006820160009054906101000a900473ffffffffffffffffffffffffffffffffffffffff1673ffffffffffffffffffffffffffffffffffffffff1673ffffffffffffffffffffffffffffffffffffffff1681525050838381518110611e9a57611e9961329a565b5b60200260200101819052508180611eb0906132c9565b9250505b8080611ebf906132c9565b915050611b1f565b5081935050505090565b611eda8461139f565b611f19576040517f08c379a0000000000000000000000000000000000000000000000000000000008152600401611f1090613cee565b60405180910390fd5b6000611f248661227d565b90503373ffffffffffffffffffffffffffffffffffffffff168160060160009054906101000a900473ffffffffffffffffffffffffffffffffffffffff1673ffffffffffffffffffffffffffffffffffffffff1614611fb8576040517f08c379a0000000000000000000000000000000000000000000000000000000008152600401611faf90613d5a565b60405180910390fd5b6000816005015414611fff576040517f08c379a0000000000000000000000000000000000000000000000000000000008152600401611ff690613dec565b60405180910390fd5b848160000190816120109190613adf565b508381600101819055508281600201908161202b9190613adf565b508181600301908161203d9190613adf565b508060405161204c9190613826565b60405180910390207f5a159166ad47ef1d9952738151b5bd290aa5cc20227d3b5a51099ac0fdfd1aea60405160405180910390a2505050505050565b6120918461139f565b6120d0576040517f08c379a00000000000000000000000000000000000000000000000000000000081526004016120c790613cee565b60405180910390fd5b60006040518060e001604052808681526020018581526020018481526020018381526020016040518060400160405280600481526020017f4c697665000000000000000000000000000000000000000000000000000000008152508152602001600081526020013373ffffffffffffffffffffffffffffffffffffffff168152509050600081908060018154018082558091505060019003906000526020600020906007020160009091909190915060008201518160000190816121949190613adf565b506020820151816001015560408201518160020190816121b49190613adf565b5060608201518160030190816121ca9190613adf565b5060808201518160040190816121e09190613adf565b5060a0820151816005015560c08201518160060160006101000a81548173ffffffffffffffffffffffffffffffffffffffff021916908373ffffffffffffffffffffffffffffffffffffffff1602179055505050806040516122429190613e99565b60405180910390207fdf114626eab6c68e42e0b0a68f878706b10ed0e78ed3060e501cd028cb7356e960405160405180910390a25050505050565b600080600090505b6000805490508110156122fb5760008082815481106122a7576122a661329a565b5b906000526020600020906007020190508380519060200120816000016040516122d091906131f1565b6040518091039020036122e7578092505050612337565b5080806122f3906132c9565b915050612285565b506040517f08c379a000000000000000000000000000000000000000000000000000000000815260040161232e90613889565b60405180910390fd5b919050565b508054612348906130b1565b6000825580601f1061235a5750612379565b601f01602090049060005260206000209081019061237891906123cf565b5b50565b6040518060e00160405280606081526020016000815260200160608152602001606081526020016060815260200160008152602001600073ffffffffffffffffffffffffffffffffffffffff1681525090565b5b808211156123e85760008160009055506001016123d0565b5090565b6000604051905090565b600080fd5b600080fd5b600080fd5b600080fd5b6000601f19601f8301169050919050565b7f4e487b7100000000000000000000000000000000000000000000000000000000600052604160045260246000fd5b6124538261240a565b810181811067ffffffffffffffff821117156124725761247161241b565b5b80604052505050565b60006124856123ec565b9050612491828261244a565b919050565b600067ffffffffffffffff8211156124b1576124b061241b565b5b6124ba8261240a565b9050602081019050919050565b82818337600083830152505050565b60006124e96124e484612496565b61247b565b90508281526020810184848401111561250557612504612405565b5b6125108482856124c7565b509392505050565b600082601f83011261252d5761252c612400565b5b813561253d8482602086016124d6565b91505092915050565b60006020828403121561255c5761255b6123f6565b5b600082013567ffffffffffffffff81111561257a576125796123fb565b5b61258684828501612518565b91505092915050565b600073ffffffffffffffffffffffffffffffffffffffff82169050919050565b60006125ba8261258f565b9050919050565b6125ca816125af565b81146125d557600080fd5b50565b6000813590506125e7816125c1565b92915050565b600060208284031215612603576126026123f6565b5b6000612611848285016125d8565b91505092915050565b6000819050919050565b61262d8161261a565b82525050565b60006020820190506126486000830184612624565b92915050565b600081519050919050565b600082825260208201905092915050565b6000819050602082019050919050565b612683816125af565b82525050565b6126928161261a565b82525050565b600081519050919050565b600082825260208201905092915050565b60005b838110156126d25780820151818401526020810190506126b7565b60008484015250505050565b60006126e982612698565b6126f381856126a3565b93506127038185602086016126b4565b61270c8161240a565b840191505092915050565b600060608301600083015161272f600086018261267a565b5060208301516127426020860182612689565b506040830151848203604086015261275a82826126de565b9150508091505092915050565b60006127738383612717565b905092915050565b6000602082019050919050565b60006127938261264e565b61279d8185612659565b9350836020820285016127af8561266a565b8060005b858110156127eb57848403895281516127cc8582612767565b94506127d78361277b565b925060208a019950506001810190506127b3565b50829750879550505050505092915050565b600060208201905081810360008301526128178184612788565b905092915050565b6128288161261a565b811461283357600080fd5b50565b6000813590506128458161281f565b92915050565b60008060408385031215612862576128616123f6565b5b600083013567ffffffffffffffff8111156128805761287f6123fb565b5b61288c85828601612518565b925050602061289d85828601612836565b9150509250929050565b6128b0816125af565b82525050565b600082825260208201905092915050565b60006128d282612698565b6128dc81856128b6565b93506128ec8185602086016126b4565b6128f58161240a565b840191505092915050565b600060608201905061291560008301866128a7565b6129226020830185612624565b818103604083015261293481846128c7565b9050949350505050565b60006040820190506129536000830185612624565b6129606020830184612624565b9392505050565b600060e083016000830151848203600086015261298482826126de565b91505060208301516129996020860182612689565b50604083015184820360408601526129b182826126de565b915050606083015184820360608601526129cb82826126de565b915050608083015184820360808601526129e582826126de565b91505060a08301516129fa60a0860182612689565b5060c0830151612a0d60c086018261267a565b508091505092915050565b60006020820190508181036000830152612a328184612967565b905092915050565b600060208284031215612a5057612a4f6123f6565b5b6000612a5e84828501612836565b91505092915050565b600060e0820190508181036000830152612a81818a6128c7565b9050612a906020830189612624565b8181036040830152612aa281886128c7565b90508181036060830152612ab681876128c7565b90508181036080830152612aca81866128c7565b9050612ad960a0830185612624565b612ae660c08301846128a7565b98975050505050505050565b60008115159050919050565b612b0781612af2565b82525050565b6000602082019050612b226000830184612afe565b92915050565b600080600060608486031215612b4157612b406123f6565b5b600084013567ffffffffffffffff811115612b5f57612b5e6123fb565b5b612b6b86828701612518565b9350506020612b7c86828701612836565b925050604084013567ffffffffffffffff811115612b9d57612b9c6123fb565b5b612ba986828701612518565b9150509250925092565b600081519050919050565b600082825260208201905092915050565b6000819050602082019050919050565b600060e0830160008301518482036000860152612bfc82826126de565b9150506020830151612c116020860182612689565b5060408301518482036040860152612c2982826126de565b91505060608301518482036060860152612c4382826126de565b91505060808301518482036080860152612c5d82826126de565b91505060a0830151612c7260a0860182612689565b5060c0830151612c8560c086018261267a565b508091505092915050565b6000612c9c8383612bdf565b905092915050565b6000602082019050919050565b6000612cbc82612bb3565b612cc68185612bbe565b935083602082028501612cd885612bcf565b8060005b85811015612d145784840389528151612cf58582612c90565b9450612d0083612ca4565b925060208a01995050600181019050612cdc565b50829750879550505050505092915050565b60006020820190508181036000830152612d408184612cb1565b905092915050565b600080600080600060a08688031215612d6457612d636123f6565b5b600086013567ffffffffffffffff811115612d8257612d816123fb565b5b612d8e88828901612518565b955050602086013567ffffffffffffffff811115612daf57612dae6123fb565b5b612dbb88828901612518565b9450506040612dcc88828901612836565b935050606086013567ffffffffffffffff811115612ded57612dec6123fb565b5b612df988828901612518565b925050608086013567ffffffffffffffff811115612e1a57612e196123fb565b5b612e2688828901612518565b9150509295509295909350565b60008060008060808587031215612e4d57612e4c6123f6565b5b600085013567ffffffffffffffff811115612e6b57612e6a6123fb565b5b612e7787828801612518565b9450506020612e8887828801612836565b935050604085013567ffffffffffffffff811115612ea957612ea86123fb565b5b612eb587828801612518565b925050606085013567ffffffffffffffff811115612ed657612ed56123fb565b5b612ee287828801612518565b91505092959194509250565b7f43616d706169676e206e6f742066756c6c792066756e64656400000000000000600082015250565b6000612f246019836128b6565b9150612f2f82612eee565b602082019050919050565b60006020820190508181036000830152612f5381612f17565b9050919050565b7f4e487b7100000000000000000000000000000000000000000000000000000000600052601160045260246000fd5b6000612f948261261a565b9150612f9f8361261a565b9250828202612fad8161261a565b91508282048414831517612fc457612fc3612f5a565b5b5092915050565b6000612fd68261261a565b9150612fe18361261a565b9250828201905080821115612ff957612ff8612f5a565b5b92915050565b60006040820190506130146000830185612624565b818103602083015261302681846128c7565b90509392505050565b600081905092915050565b600061304582612698565b61304f818561302f565b935061305f8185602086016126b4565b80840191505092915050565b6000613077828461303a565b915081905092915050565b7f4e487b7100000000000000000000000000000000000000000000000000000000600052602260045260246000fd5b600060028204905060018216806130c957607f821691505b6020821081036130dc576130db613082565b5b50919050565b7f4f6e6c79206f776e65722063616e2064656c6574652063616d706169676e0000600082015250565b6000613118601e836128b6565b9150613123826130e2565b602082019050919050565b600060208201905081810360008301526131478161310b565b9050919050565b600081905092915050565b60008190508160005260206000209050919050565b6000815461317b816130b1565b613185818661314e565b945060018216600081146131a057600181146131b5576131e8565b60ff19831686528115158202860193506131e8565b6131be85613159565b60005b838110156131e0578154818901526001820191506020810190506131c1565b838801955050505b50505092915050565b60006131fd828461316e565b915081905092915050565b7f43616e6e6f742064656c6574652063616d706169676e2074686174206861732060008201527f7261697365642066756e64730000000000000000000000000000000000000000602082015250565b6000613264602c836128b6565b915061326f82613208565b604082019050919050565b6000602082019050818103600083015261329381613257565b9050919050565b7f4e487b7100000000000000000000000000000000000000000000000000000000600052603260045260246000fd5b60006132d48261261a565b91507fffffffffffffffffffffffffffffffffffffffffffffffffffffffffffffffff820361330657613305612f5a565b5b600182019050919050565b600061331c8261261a565b91506133278361261a565b925082820390508181111561333f5761333e612f5a565b5b92915050565b600081549050613354816130b1565b9050919050565b60008190508160005260206000209050919050565b60006020601f8301049050919050565b600082821b905092915050565b6000600883026133bd7fffffffffffffffffffffffffffffffffffffffffffffffffffffffffffffffff82613380565b6133c78683613380565b95508019841693508086168417925050509392505050565b6000819050919050565b60006134046133ff6133fa8461261a565b6133df565b61261a565b9050919050565b6000819050919050565b61341e836133e9565b61343261342a8261340b565b84845461338d565b825550505050565b600090565b61344761343a565b613452818484613415565b505050565b5b818110156134765761346b60008261343f565b600181019050613458565b5050565b601f8211156134bb5761348c8161335b565b61349584613370565b810160208510156134a4578190505b6134b86134b085613370565b830182613457565b50505b505050565b600082821c905092915050565b60006134de600019846008026134c0565b1980831691505092915050565b60006134f783836134cd565b9150826002028217905092915050565b8181036135155750506135ed565b61351e82613345565b67ffffffffffffffff8111156135375761353661241b565b5b61354182546130b1565b61354c82828561347a565b6000601f83116001811461357b5760008415613569578287015490505b61357385826134eb565b8655506135e6565b601f1984166135898761335b565b96506135948661335b565b60005b828110156135bc57848901548255600182019150600185019450602081019050613597565b868310156135d957848901546135d5601f8916826134cd565b8355505b6001600288020188555050505b5050505050505b565b7f4e487b7100000000000000000000000000000000000000000000000000000000600052603160045260246000fd5b600081905092915050565b60008154613636816130b1565b613640818661361e565b9450600182166000811461365b5760018114613671576136a4565b60ff1983168652811515602002860193506136a4565b61367a8561335b565b60005b8381101561369c5781548189015260018201915060208101905061367d565b808801955050505b50505092915050565b60006136b98383613629565b905092915050565b60008160001c9050919050565b6000819050919050565b60006136eb6136e6836136c1565b6136ce565b9050919050565b6136fb8161261a565b82525050565b600061370d83836136f2565b60208301905092915050565b600073ffffffffffffffffffffffffffffffffffffffff82169050919050565b600061374c613747836136c1565b613719565b9050919050565b61375c816125af565b82525050565b600061376e8383613753565b60208301905092915050565b6000808301600080840161378e86826136ad565b955050600184015490506137a1816136d8565b6137ab8682613701565b955050600284016137bc86826136ad565b955050600384016137cd86826136ad565b955050600484016137de86826136ad565b955050600584015490506137f1816136d8565b6137fb8682613701565b9550506006840154905061380e81613739565b6138188682613762565b955050849250505092915050565b6000613832828461377a565b915081905092915050565b7f43616d706169676e206e6f7420666f756e640000000000000000000000000000600082015250565b60006138736012836128b6565b915061387e8261383d565b602082019050919050565b600060208201905081810360008301526138a281613866565b9050919050565b7f496e76616c6964207469746c652070726f766964656400000000000000000000600082015250565b60006138df6016836128b6565b91506138ea826138a9565b602082019050919050565b6000602082019050818103600083015261390e816138d2565b9050919050565b7f43616d706169676e2066756c6c792066756e6465640000000000000000000000600082015250565b600061394b6015836128b6565b915061395682613915565b602082019050919050565b6000602082019050818103600083015261397a8161393e565b9050919050565b7f4f776e65722063616e6e6f74206261636b20686973206f776e2063616d70616960008201527f676e000000000000000000000000000000000000000000000000000000000000602082015250565b60006139dd6022836128b6565b91506139e882613981565b604082019050919050565b60006020820190508181036000830152613a0c816139d0565b9050919050565b7f496e73756666696369656e742062616c616e6365000000000000000000000000600082015250565b6000613a496014836128b6565b9150613a5482613a13565b602082019050919050565b60006020820190508181036000830152613a7881613a3c565b9050919050565b7f4e487b7100000000000000000000000000000000000000000000000000000000600052601260045260246000fd5b6000613ab98261261a565b9150613ac48361261a565b925082613ad457613ad3613a7f565b5b828204905092915050565b613ae882612698565b67ffffffffffffffff811115613b0157613b0061241b565b5b613b0b82546130b1565b613b1682828561347a565b600060209050601f831160018114613b495760008415613b37578287015190505b613b4185826134eb565b865550613ba9565b601f198416613b578661335b565b60005b82811015613b7f57848901518255600182019150602085019450602081019050613b5a565b86831015613b9c5784890151613b98601f8916826134cd565b8355505b6001600288020188555050505b505050505050565b6000613bbc82612698565b613bc6818561361e565b9350613bd68185602086016126b4565b613bdf8161240a565b840191505092915050565b6000613bf68383613bb1565b905092915050565b60008083016000830151613c128582613762565b9450506020830151613c248582613701565b9450506040830151613c368582613bea565b9450508391505092915050565b6000613c4f8284613bfe565b915081905092915050565b60006020820190508181036000830152613c7481846128c7565b905092915050565b7f43616e6e6f742061646420612063616d70616761696e20776974682073616d6560008201527f206e616d65000000000000000000000000000000000000000000000000000000602082015250565b6000613cd86025836128b6565b9150613ce382613c7c565b604082019050919050565b60006020820190508181036000830152613d0781613ccb565b9050919050565b7f4f6e6c79206f776e65722063616e207570646174652063616d706169676e0000600082015250565b6000613d44601e836128b6565b9150613d4f82613d0e565b602082019050919050565b60006020820190508181036000830152613d7381613d37565b9050919050565b7f43616e6e6f742075706461746520616c7265616479207374617274656420636160008201527f6d706169676e0000000000000000000000000000000000000000000000000000602082015250565b6000613dd66026836128b6565b9150613de182613d7a565b604082019050919050565b60006020820190508181036000830152613e0581613dc9565b9050919050565b60008083016000830151613e208582613bea565b9450506020830151613e328582613701565b9450506040830151613e448582613bea565b9450506060830151613e568582613bea565b9450506080830151613e688582613bea565b94505060a0830151613e7a8582613701565b94505060c0830151613e8c8582613762565b9450508391505092915050565b6000613ea58284613e0c565b91508190509291505056fea26469706673582212208a57c4803078a26a483cb144639225f6d2847023d4e52e78a32159c8f6bd7b3b64736f6c63430008130033",
  "immutableReferences": {},
  "source": "// SPDX-License-Identifier: Ahmed FAST-NU\r\npragma solidity ^0.8.0;\r\n\r\ncontract Nobiety {\r\n    struct Backer{\r\n    address backer;\r\n    uint256 donation;\r\n    string time;\r\n    }\r\n\r\n    struct Campaign{\r\n        string title;\r\n        uint256 amount;\r\n        string url;\r\n        string description;\r\n        string status;\r\n        uint256 raisedAmount;\r\n        address owner;\r\n    }\r\n\r\n    Campaign[] public allCampaignList;\r\n    mapping(string=>Backer[]) public backers; //map backer list to title\r\n    mapping(address => uint256) public balances;\r\n\r\n\r\n\r\n        constructor() {\r\n    }\r\n    \r\n    event launchCampagin(Campaign indexed);\r\n    event updateCampagin(Campaign indexed);\r\n    event deleteCampagin(Campaign indexed);\r\n    event backerCampagin(Backer indexed,string);\r\n    event refund(address indexed,uint256,string);\r\n    event fundsSentToOwner(address indexed,uint256,string);\r\n    event withdrawAmount(address indexed,uint256);\r\n\r\n     function getCampaign(string memory _title) internal view returns (Campaign storage) {\r\n        for (uint256 i = 0; i < allCampaignList.length; i++) {\r\n            Campaign storage currentCampaign = allCampaignList[i];\r\n            if (keccak256(bytes(currentCampaign.title)) == keccak256(bytes(_title))) {\r\n                return currentCampaign;\r\n            }\r\n        }\r\n        revert(\"Campaign not found\");\r\n    }\r\n\r\n\r\n\r\n\r\n   function deposit() public payable {\r\n    balances[msg.sender] += msg.value;\r\n    }\r\n\r\n    function getDeposit(address ad) public view returns (uint256){\r\n        return balances[ad];\r\n    }\r\n\r\n    \r\n    function withdrawBalance(uint _amount) public payable {\r\n       require(balances[msg.sender] >= _amount, \"Insufficient balance\");\r\n        balances[msg.sender] -= _amount;\r\n        payable(msg.sender).transfer(_amount);\r\n        emit withdrawAmount(msg.sender, _amount);\r\n    }\r\n\r\n    function backCampaign(string memory _title, uint _donation, string memory _time) public {\r\n    require(isTitleExist(_title) == false, \"Invalid title provided\");\r\n    Campaign storage currentCampaign = getCampaign(_title);\r\n    require(currentCampaign.raisedAmount < currentCampaign.amount, \"Campaign fully funded\");\r\n    require(msg.sender != currentCampaign.owner, \"Owner cannot back his own campaign\");\r\n    require(balances[msg.sender] >= _donation, \"Insufficient balance\");\r\n    uint donationInEther = _donation / 1 ether;\r\n    uint remainingAmount = currentCampaign.amount - currentCampaign.raisedAmount;\r\n    uint donationToAdd = donationInEther < remainingAmount ? donationInEther : remainingAmount;\r\n    currentCampaign.raisedAmount += donationToAdd;\r\n    balances[msg.sender] -= donationToAdd * 1 ether;\r\n\r\n    Backer memory backer = Backer({\r\n        backer: msg.sender,\r\n        donation: donationToAdd,\r\n        time: _time\r\n    });\r\n\r\n    backers[_title].push(backer);\r\n\r\n    if (currentCampaign.raisedAmount == currentCampaign.amount) {\r\n        sendFundsToOwner(_title);\r\n    }\r\n\r\n    emit backerCampagin(backer, _title);\r\n}\r\n    \r\n\r\n    function sendFundsToOwner(string memory _title) public {\r\n        Campaign storage currentCampaign = getCampaign(_title);\r\n\r\n        require(currentCampaign.raisedAmount == currentCampaign.amount, \"Campaign not fully funded\");\r\n\r\n        balances[currentCampaign.owner]+=currentCampaign.raisedAmount * 1 ether;\r\n        emit fundsSentToOwner(currentCampaign.owner, currentCampaign.raisedAmount, _title);\r\n    }\r\n\r\n    function isTitleExist(string memory title) public view  returns(bool) {\r\n     bool flag = true;\r\n     for (uint256 i = 0; i < allCampaignList.length; i++) {\r\n        Campaign storage currentCampaign = allCampaignList[i];\r\n        if (keccak256(bytes(currentCampaign.title)) == keccak256(bytes(title))) {\r\n            flag = false;\r\n            break;\r\n        }\r\n    }\r\n    return flag;\r\n}\r\n\r\n    function retreiveCampaignFromMemory(string memory _title) public view returns (Campaign memory) {\r\n        for (uint256 i = 0; i < allCampaignList.length; i++) {\r\n            Campaign storage currentCampaign = allCampaignList[i];\r\n            if (keccak256(bytes(currentCampaign.title)) == keccak256(bytes(_title))) {\r\n                return currentCampaign;\r\n            }\r\n        }\r\n        revert(\"Campaign not found\");\r\n    }\r\n\r\n\r\n\r\n   function addCampaign(string memory _title, uint256 _amount, string memory _url, string memory _description) public {\r\n        require(isTitleExist(_title),\"Cannot add a campagain with same name\");\r\n        Campaign memory newCampaign = Campaign({\r\n            title: _title,\r\n            amount: _amount,\r\n            url: _url,\r\n            description: _description,\r\n            status : \"Live\",\r\n            raisedAmount : 0.00,\r\n            owner : msg.sender\r\n        });\r\n       \r\n        allCampaignList.push(newCampaign);\r\n        emit launchCampagin(newCampaign);\r\n    }\r\n\r\n    function updateCampaign(string memory _oldTitle, string memory _title, uint256 _amount, string memory _url, string memory _description) public {\r\n    require(isTitleExist(_title),\"Cannot add a campagain with same name\");\r\n    Campaign storage campaignToUpdate = getCampaign(_oldTitle);\r\n    require(campaignToUpdate.owner == msg.sender, \"Only owner can update campaign\");\r\n    require(campaignToUpdate.raisedAmount== 0 ether, \"Cannot update already started campaign\");\r\n        campaignToUpdate.title = _title;\r\n        campaignToUpdate.amount = _amount;\r\n        campaignToUpdate.url = _url;\r\n        campaignToUpdate.description = _description;\r\n        emit updateCampagin(campaignToUpdate);\r\n        \r\n    }\r\n\r\n\r\n    function getInsights() public view returns (uint,uint) {\r\n        uint totalEthCollected = 0;\r\n        uint totalCampaigns = allCampaignList.length;\r\n        for (uint i=0;i<totalCampaigns;i++){\r\n        Campaign storage camp = allCampaignList[i];\r\n        if(camp.raisedAmount>0)\r\n            totalEthCollected+= camp.raisedAmount;\r\n        }\r\n        return (totalCampaigns,totalEthCollected);\r\n    }\r\n\r\n    function deleteCampaign(string memory _title) public payable {\r\n        \r\n        Campaign storage campaignToDelete = getCampaign(_title);\r\n\r\n        require(campaignToDelete.owner == msg.sender, \"Only owner can delete campaign\");\r\n        require(keccak256(bytes(campaignToDelete.status)) != keccak256(bytes(\"Raised\")), \"Cannot delete campaign that has raised funds\");\r\n        Backer[] storage backersToRefund = backers[_title];\r\n        for (uint256 i = 0; i < backersToRefund.length; i++) {\r\n            Backer storage currentBacker = backersToRefund[i];\r\n            balances[currentBacker.backer] += currentBacker.donation * 1 ether;\r\n            emit refund(currentBacker.backer, currentBacker.donation, _title);\r\n        }\r\n        uint256 indexToDelete;\r\n        for (uint256 i = 0; i < allCampaignList.length; i++) {\r\n            Campaign storage currentCampaign = allCampaignList[i];\r\n            if (keccak256(bytes(currentCampaign.title)) == keccak256(bytes(_title))) {\r\n                indexToDelete = i;\r\n                break;\r\n            }\r\n        }\r\n        allCampaignList[indexToDelete] = allCampaignList[allCampaignList.length - 1];\r\n        allCampaignList.pop();\r\n\r\n        emit deleteCampagin(campaignToDelete);\r\n    \r\n    }\r\n\r\n    \r\n    function getBackers(string memory _title) public view returns (Backer[] memory) {\r\n        return backers[_title];\r\n    }\r\n\r\n     function getAllCampaignList() public view returns (Campaign[] memory) {\r\n        uint256 count = 0;\r\n        for (uint256 i = 0; i < allCampaignList.length; i++) {\r\n            if (keccak256(bytes(allCampaignList[i].status)) != keccak256(bytes(\"Deleted\"))) {\r\n                count++;\r\n            }\r\n        }\r\n        Campaign[] memory temp = new Campaign[](count);\r\n         uint256 j = 0;\r\n        for (uint256 i = 0; i < allCampaignList.length; i++) {\r\n            if (keccak256(bytes(allCampaignList[i].status)) != keccak256(bytes(\"Deleted\"))) {\r\n                temp[j] = allCampaignList[i];\r\n                j++;\r\n            }\r\n        }\r\n        return temp;\r\n    }  \r\n\r\n}",
  "sourcePath": "I:\\University Data\\FAST semester work\\Semester 8 work\\Blockchain\\Practice\\crowd_fund\\contracts\\Nobiety.sol",
  "compiler": {
    "name": "solc",
    "version": "0.8.19+commit.7dd6d404.Emscripten.clang"
  },
  "schemaVersion": "3.4.13",
  "updatedAt": "2023-04-22T20:30:27.175Z",
  "networkType": "ethereum",
  "devdoc": {
    "kind": "dev",
    "methods": {},
    "version": 1
  },
  "userdoc": {
    "kind": "user",
    "methods": {},
    "version": 1
  }
}