{
  "contractName": "Nobiety",
  "abi": [
    {
      "inputs": [],
      "stateMutability": "nonpayable",
      "type": "constructor"
    },
    {
      "anonymous": false,
      "inputs": [
        {
          "components": [
            {
              "internalType": "string",
              "name": "title",
              "type": "string"
            },
            {
              "internalType": "uint256",
              "name": "amount",
              "type": "uint256"
            },
            {
              "internalType": "string",
              "name": "date",
              "type": "string"
            },
            {
              "internalType": "string",
              "name": "url",
              "type": "string"
            },
            {
              "internalType": "string",
              "name": "description",
              "type": "string"
            },
            {
              "internalType": "string",
              "name": "status",
              "type": "string"
            },
            {
              "internalType": "uint256",
              "name": "raisedAmount",
              "type": "uint256"
            },
            {
              "internalType": "address",
              "name": "owner",
              "type": "address"
            }
          ],
          "indexed": true,
          "internalType": "struct Nobiety.Campaign",
          "name": "cam",
          "type": "tuple"
        }
      ],
      "name": "launchCampagin",
      "type": "event"
    },
    {
      "anonymous": false,
      "inputs": [
        {
          "components": [
            {
              "internalType": "string",
              "name": "title",
              "type": "string"
            },
            {
              "internalType": "uint256",
              "name": "amount",
              "type": "uint256"
            },
            {
              "internalType": "string",
              "name": "date",
              "type": "string"
            },
            {
              "internalType": "string",
              "name": "url",
              "type": "string"
            },
            {
              "internalType": "string",
              "name": "description",
              "type": "string"
            },
            {
              "internalType": "string",
              "name": "status",
              "type": "string"
            },
            {
              "internalType": "uint256",
              "name": "raisedAmount",
              "type": "uint256"
            },
            {
              "internalType": "address",
              "name": "owner",
              "type": "address"
            }
          ],
          "indexed": true,
          "internalType": "struct Nobiety.Campaign",
          "name": "cam",
          "type": "tuple"
        }
      ],
      "name": "updateCampagin",
      "type": "event"
    },
    {
      "inputs": [
        {
          "internalType": "uint256",
          "name": "",
          "type": "uint256"
        }
      ],
      "name": "allCampaignList",
      "outputs": [
        {
          "internalType": "string",
          "name": "title",
          "type": "string"
        },
        {
          "internalType": "uint256",
          "name": "amount",
          "type": "uint256"
        },
        {
          "internalType": "string",
          "name": "date",
          "type": "string"
        },
        {
          "internalType": "string",
          "name": "url",
          "type": "string"
        },
        {
          "internalType": "string",
          "name": "description",
          "type": "string"
        },
        {
          "internalType": "string",
          "name": "status",
          "type": "string"
        },
        {
          "internalType": "uint256",
          "name": "raisedAmount",
          "type": "uint256"
        },
        {
          "internalType": "address",
          "name": "owner",
          "type": "address"
        }
      ],
      "stateMutability": "view",
      "type": "function",
      "constant": true
    },
    {
      "inputs": [
        {
          "internalType": "string",
          "name": "_title",
          "type": "string"
        },
        {
          "internalType": "uint256",
          "name": "_amount",
          "type": "uint256"
        },
        {
          "internalType": "string",
          "name": "_date",
          "type": "string"
        },
        {
          "internalType": "string",
          "name": "_url",
          "type": "string"
        },
        {
          "internalType": "string",
          "name": "_description",
          "type": "string"
        }
      ],
      "name": "addCampaign",
      "outputs": [],
      "stateMutability": "nonpayable",
      "type": "function"
    },
    {
      "inputs": [],
      "name": "getOwnerCampaignList",
      "outputs": [
        {
          "components": [
            {
              "internalType": "string",
              "name": "title",
              "type": "string"
            },
            {
              "internalType": "uint256",
              "name": "amount",
              "type": "uint256"
            },
            {
              "internalType": "string",
              "name": "date",
              "type": "string"
            },
            {
              "internalType": "string",
              "name": "url",
              "type": "string"
            },
            {
              "internalType": "string",
              "name": "description",
              "type": "string"
            },
            {
              "internalType": "string",
              "name": "status",
              "type": "string"
            },
            {
              "internalType": "uint256",
              "name": "raisedAmount",
              "type": "uint256"
            },
            {
              "internalType": "address",
              "name": "owner",
              "type": "address"
            }
          ],
          "internalType": "struct Nobiety.Campaign[]",
          "name": "",
          "type": "tuple[]"
        }
      ],
      "stateMutability": "view",
      "type": "function",
      "constant": true
    },
    {
      "inputs": [
        {
          "internalType": "string",
          "name": "_oldTitle",
          "type": "string"
        },
        {
          "internalType": "string",
          "name": "_title",
          "type": "string"
        },
        {
          "internalType": "uint256",
          "name": "_amount",
          "type": "uint256"
        },
        {
          "internalType": "string",
          "name": "_date",
          "type": "string"
        },
        {
          "internalType": "string",
          "name": "_url",
          "type": "string"
        },
        {
          "internalType": "string",
          "name": "_description",
          "type": "string"
        }
      ],
      "name": "updateCampaign",
      "outputs": [],
      "stateMutability": "nonpayable",
      "type": "function"
    },
    {
      "inputs": [],
      "name": "getAllCampaignList",
      "outputs": [
        {
          "components": [
            {
              "internalType": "string",
              "name": "title",
              "type": "string"
            },
            {
              "internalType": "uint256",
              "name": "amount",
              "type": "uint256"
            },
            {
              "internalType": "string",
              "name": "date",
              "type": "string"
            },
            {
              "internalType": "string",
              "name": "url",
              "type": "string"
            },
            {
              "internalType": "string",
              "name": "description",
              "type": "string"
            },
            {
              "internalType": "string",
              "name": "status",
              "type": "string"
            },
            {
              "internalType": "uint256",
              "name": "raisedAmount",
              "type": "uint256"
            },
            {
              "internalType": "address",
              "name": "owner",
              "type": "address"
            }
          ],
          "internalType": "struct Nobiety.Campaign[]",
          "name": "",
          "type": "tuple[]"
        }
      ],
      "stateMutability": "view",
      "type": "function",
      "constant": true
    }
  ],
  "bytecode": "0x608060405234801561001057600080fd5b50611f99806100206000396000f3fe608060405234801561001057600080fd5b50600436106100575760003560e01c806308497b631461005c5780639eb1903b14610078578063ae87732d14610094578063ded66a33146100cb578063e1b3727d146100e9575b600080fd5b61007660048036038101906100719190611239565b610107565b005b610092600480360381019061008d9190611352565b610274565b005b6100ae60048036038101906100a9919061143d565b61043f565b6040516100c2989796959493929190611539565b60405180910390f35b6100d361075f565b6040516100e091906117d0565b60405180910390f35b6100f1610caa565b6040516100fe91906117d0565b60405180910390f35b60005b60008054905081101561026b57600080828154811061012c5761012b6117f2565b5b906000526020600020906008020190508780519060200120816000016040516101559190611924565b60405180910390201480156101b957503373ffffffffffffffffffffffffffffffffffffffff168160070160009054906101000a900473ffffffffffffffffffffffffffffffffffffffff1673ffffffffffffffffffffffffffffffffffffffff16145b1561025757868160000190816101cf9190611ae7565b50858160010181905550848160020190816101ea9190611ae7565b50838160030190816101fc9190611ae7565b508281600401908161020e9190611ae7565b508060405161021d9190611dd2565b60405180910390207f210f6ddd741fd33dcd0135e4d6c9f95a217ad64afb0ec8bd2dd4ed09e775325960405160405180910390a25061026b565b50808061026390611e18565b91505061010a565b50505050505050565b60006040518061010001604052808781526020018681526020018581526020018481526020018381526020016040518060400160405280600481526020017f4c697665000000000000000000000000000000000000000000000000000000008152508152602001600081526020013373ffffffffffffffffffffffffffffffffffffffff1681525090506000819080600181540180825580915050600190039060005260206000209060080201600090919091909150600082015181600001908161033f9190611ae7565b5060208201518160010155604082015181600201908161035f9190611ae7565b5060608201518160030190816103759190611ae7565b50608082015181600401908161038b9190611ae7565b5060a08201518160050190816103a19190611ae7565b5060c0820151816006015560e08201518160070160006101000a81548173ffffffffffffffffffffffffffffffffffffffff021916908373ffffffffffffffffffffffffffffffffffffffff1602179055505050806040516104039190611f4c565b60405180910390207f9c2cefb345976953895dc12b445ec5580695c265d6f063c974e1552f310eb2a760405160405180910390a2505050505050565b6000818154811061044f57600080fd5b906000526020600020906008020160009150905080600001805461047290611850565b80601f016020809104026020016040519081016040528092919081815260200182805461049e90611850565b80156104eb5780601f106104c0576101008083540402835291602001916104eb565b820191906000526020600020905b8154815290600101906020018083116104ce57829003601f168201915b50505050509080600101549080600201805461050690611850565b80601f016020809104026020016040519081016040528092919081815260200182805461053290611850565b801561057f5780601f106105545761010080835404028352916020019161057f565b820191906000526020600020905b81548152906001019060200180831161056257829003601f168201915b50505050509080600301805461059490611850565b80601f01602080910402602001604051908101604052809291908181526020018280546105c090611850565b801561060d5780601f106105e25761010080835404028352916020019161060d565b820191906000526020600020905b8154815290600101906020018083116105f057829003601f168201915b50505050509080600401805461062290611850565b80601f016020809104026020016040519081016040528092919081815260200182805461064e90611850565b801561069b5780601f106106705761010080835404028352916020019161069b565b820191906000526020600020905b81548152906001019060200180831161067e57829003601f168201915b5050505050908060050180546106b090611850565b80601f01602080910402602001604051908101604052809291908181526020018280546106dc90611850565b80156107295780601f106106fe57610100808354040283529160200191610729565b820191906000526020600020905b81548152906001019060200180831161070c57829003601f168201915b5050505050908060060154908060070160009054906101000a900473ffffffffffffffffffffffffffffffffffffffff16905088565b60606000805b60008054905081101561080c573373ffffffffffffffffffffffffffffffffffffffff166000828154811061079d5761079c6117f2565b5b906000526020600020906008020160070160009054906101000a900473ffffffffffffffffffffffffffffffffffffffff1673ffffffffffffffffffffffffffffffffffffffff16036107f95781806107f590611e18565b9250505b808061080490611e18565b915050610765565b5060008167ffffffffffffffff811115610829576108286110d8565b5b60405190808252806020026020018201604052801561086257816020015b61084f61104e565b8152602001906001900390816108475790505b5090506000805b600080549050811015610ca0573373ffffffffffffffffffffffffffffffffffffffff16600082815481106108a1576108a06117f2565b5b906000526020600020906008020160070160009054906101000a900473ffffffffffffffffffffffffffffffffffffffff1673ffffffffffffffffffffffffffffffffffffffff1603610c8d5760008181548110610902576109016117f2565b5b90600052602060002090600802016040518061010001604052908160008201805461092c90611850565b80601f016020809104026020016040519081016040528092919081815260200182805461095890611850565b80156109a55780601f1061097a576101008083540402835291602001916109a5565b820191906000526020600020905b81548152906001019060200180831161098857829003601f168201915b50505050508152602001600182015481526020016002820180546109c890611850565b80601f01602080910402602001604051908101604052809291908181526020018280546109f490611850565b8015610a415780601f10610a1657610100808354040283529160200191610a41565b820191906000526020600020905b815481529060010190602001808311610a2457829003601f168201915b50505050508152602001600382018054610a5a90611850565b80601f0160208091040260200160405190810160405280929190818152602001828054610a8690611850565b8015610ad35780601f10610aa857610100808354040283529160200191610ad3565b820191906000526020600020905b815481529060010190602001808311610ab657829003601f168201915b50505050508152602001600482018054610aec90611850565b80601f0160208091040260200160405190810160405280929190818152602001828054610b1890611850565b8015610b655780601f10610b3a57610100808354040283529160200191610b65565b820191906000526020600020905b815481529060010190602001808311610b4857829003601f168201915b50505050508152602001600582018054610b7e90611850565b80601f0160208091040260200160405190810160405280929190818152602001828054610baa90611850565b8015610bf75780601f10610bcc57610100808354040283529160200191610bf7565b820191906000526020600020905b815481529060010190602001808311610bda57829003601f168201915b50505050508152602001600682015481526020016007820160009054906101000a900473ffffffffffffffffffffffffffffffffffffffff1673ffffffffffffffffffffffffffffffffffffffff1673ffffffffffffffffffffffffffffffffffffffff1681525050838381518110610c7357610c726117f2565b5b60200260200101819052508180610c8990611e18565b9250505b8080610c9890611e18565b915050610869565b5081935050505090565b60606000805480602002602001604051908101604052809291908181526020016000905b82821015611045578382906000526020600020906008020160405180610100016040529081600082018054610d0290611850565b80601f0160208091040260200160405190810160405280929190818152602001828054610d2e90611850565b8015610d7b5780601f10610d5057610100808354040283529160200191610d7b565b820191906000526020600020905b815481529060010190602001808311610d5e57829003601f168201915b5050505050815260200160018201548152602001600282018054610d9e90611850565b80601f0160208091040260200160405190810160405280929190818152602001828054610dca90611850565b8015610e175780601f10610dec57610100808354040283529160200191610e17565b820191906000526020600020905b815481529060010190602001808311610dfa57829003601f168201915b50505050508152602001600382018054610e3090611850565b80601f0160208091040260200160405190810160405280929190818152602001828054610e5c90611850565b8015610ea95780601f10610e7e57610100808354040283529160200191610ea9565b820191906000526020600020905b815481529060010190602001808311610e8c57829003601f168201915b50505050508152602001600482018054610ec290611850565b80601f0160208091040260200160405190810160405280929190818152602001828054610eee90611850565b8015610f3b5780601f10610f1057610100808354040283529160200191610f3b565b820191906000526020600020905b815481529060010190602001808311610f1e57829003601f168201915b50505050508152602001600582018054610f5490611850565b80601f0160208091040260200160405190810160405280929190818152602001828054610f8090611850565b8015610fcd5780601f10610fa257610100808354040283529160200191610fcd565b820191906000526020600020905b815481529060010190602001808311610fb057829003601f168201915b50505050508152602001600682015481526020016007820160009054906101000a900473ffffffffffffffffffffffffffffffffffffffff1673ffffffffffffffffffffffffffffffffffffffff1673ffffffffffffffffffffffffffffffffffffffff168152505081526020019060010190610cce565b50505050905090565b60405180610100016040528060608152602001600081526020016060815260200160608152602001606081526020016060815260200160008152602001600073ffffffffffffffffffffffffffffffffffffffff1681525090565b6000604051905090565b600080fd5b600080fd5b600080fd5b600080fd5b6000601f19601f8301169050919050565b7f4e487b7100000000000000000000000000000000000000000000000000000000600052604160045260246000fd5b611110826110c7565b810181811067ffffffffffffffff8211171561112f5761112e6110d8565b5b80604052505050565b60006111426110a9565b905061114e8282611107565b919050565b600067ffffffffffffffff82111561116e5761116d6110d8565b5b611177826110c7565b9050602081019050919050565b82818337600083830152505050565b60006111a66111a184611153565b611138565b9050828152602081018484840111156111c2576111c16110c2565b5b6111cd848285611184565b509392505050565b600082601f8301126111ea576111e96110bd565b5b81356111fa848260208601611193565b91505092915050565b6000819050919050565b61121681611203565b811461122157600080fd5b50565b6000813590506112338161120d565b92915050565b60008060008060008060c08789031215611256576112556110b3565b5b600087013567ffffffffffffffff811115611274576112736110b8565b5b61128089828a016111d5565b965050602087013567ffffffffffffffff8111156112a1576112a06110b8565b5b6112ad89828a016111d5565b95505060406112be89828a01611224565b945050606087013567ffffffffffffffff8111156112df576112de6110b8565b5b6112eb89828a016111d5565b935050608087013567ffffffffffffffff81111561130c5761130b6110b8565b5b61131889828a016111d5565b92505060a087013567ffffffffffffffff811115611339576113386110b8565b5b61134589828a016111d5565b9150509295509295509295565b600080600080600060a0868803121561136e5761136d6110b3565b5b600086013567ffffffffffffffff81111561138c5761138b6110b8565b5b611398888289016111d5565b95505060206113a988828901611224565b945050604086013567ffffffffffffffff8111156113ca576113c96110b8565b5b6113d6888289016111d5565b935050606086013567ffffffffffffffff8111156113f7576113f66110b8565b5b611403888289016111d5565b925050608086013567ffffffffffffffff811115611424576114236110b8565b5b611430888289016111d5565b9150509295509295909350565b600060208284031215611453576114526110b3565b5b600061146184828501611224565b91505092915050565b600081519050919050565b600082825260208201905092915050565b60005b838110156114a4578082015181840152602081019050611489565b60008484015250505050565b60006114bb8261146a565b6114c58185611475565b93506114d5818560208601611486565b6114de816110c7565b840191505092915050565b6114f281611203565b82525050565b600073ffffffffffffffffffffffffffffffffffffffff82169050919050565b6000611523826114f8565b9050919050565b61153381611518565b82525050565b6000610100820190508181036000830152611554818b6114b0565b9050611563602083018a6114e9565b818103604083015261157581896114b0565b9050818103606083015261158981886114b0565b9050818103608083015261159d81876114b0565b905081810360a08301526115b181866114b0565b90506115c060c08301856114e9565b6115cd60e083018461152a565b9998505050505050505050565b600081519050919050565b600082825260208201905092915050565b6000819050602082019050919050565b600082825260208201905092915050565b60006116228261146a565b61162c8185611606565b935061163c818560208601611486565b611645816110c7565b840191505092915050565b61165981611203565b82525050565b61166881611518565b82525050565b600061010083016000830151848203600086015261168c8282611617565b91505060208301516116a16020860182611650565b50604083015184820360408601526116b98282611617565b915050606083015184820360608601526116d38282611617565b915050608083015184820360808601526116ed8282611617565b91505060a083015184820360a08601526117078282611617565b91505060c083015161171c60c0860182611650565b5060e083015161172f60e086018261165f565b508091505092915050565b6000611746838361166e565b905092915050565b6000602082019050919050565b6000611766826115da565b61177081856115e5565b935083602082028501611782856115f6565b8060005b858110156117be578484038952815161179f858261173a565b94506117aa8361174e565b925060208a01995050600181019050611786565b50829750879550505050505092915050565b600060208201905081810360008301526117ea818461175b565b905092915050565b7f4e487b7100000000000000000000000000000000000000000000000000000000600052603260045260246000fd5b7f4e487b7100000000000000000000000000000000000000000000000000000000600052602260045260246000fd5b6000600282049050600182168061186857607f821691505b60208210810361187b5761187a611821565b5b50919050565b600081905092915050565b60008190508160005260206000209050919050565b600081546118ae81611850565b6118b88186611881565b945060018216600081146118d357600181146118e85761191b565b60ff198316865281151582028601935061191b565b6118f18561188c565b60005b83811015611913578154818901526001820191506020810190506118f4565b838801955050505b50505092915050565b600061193082846118a1565b915081905092915050565b60008190508160005260206000209050919050565b60006020601f8301049050919050565b600082821b905092915050565b60006008830261199d7fffffffffffffffffffffffffffffffffffffffffffffffffffffffffffffffff82611960565b6119a78683611960565b95508019841693508086168417925050509392505050565b6000819050919050565b60006119e46119df6119da84611203565b6119bf565b611203565b9050919050565b6000819050919050565b6119fe836119c9565b611a12611a0a826119eb565b84845461196d565b825550505050565b600090565b611a27611a1a565b611a328184846119f5565b505050565b5b81811015611a5657611a4b600082611a1f565b600181019050611a38565b5050565b601f821115611a9b57611a6c8161193b565b611a7584611950565b81016020851015611a84578190505b611a98611a9085611950565b830182611a37565b50505b505050565b600082821c905092915050565b6000611abe60001984600802611aa0565b1980831691505092915050565b6000611ad78383611aad565b9150826002028217905092915050565b611af08261146a565b67ffffffffffffffff811115611b0957611b086110d8565b5b611b138254611850565b611b1e828285611a5a565b600060209050601f831160018114611b515760008415611b3f578287015190505b611b498582611acb565b865550611bb1565b601f198416611b5f8661193b565b60005b82811015611b8757848901518255600182019150602085019450602081019050611b62565b86831015611ba45784890151611ba0601f891682611aad565b8355505b6001600288020188555050505b505050505050565b600081905092915050565b60008154611bd181611850565b611bdb8186611bb9565b94506001821660008114611bf65760018114611c0c57611c3f565b60ff198316865281151560200286019350611c3f565b611c158561193b565b60005b83811015611c3757815481890152600182019150602081019050611c18565b808801955050505b50505092915050565b6000611c548383611bc4565b905092915050565b60008160001c9050919050565b6000819050919050565b6000611c86611c8183611c5c565b611c69565b9050919050565b611c9681611203565b82525050565b6000611ca88383611c8d565b60208301905092915050565b600073ffffffffffffffffffffffffffffffffffffffff82169050919050565b6000611ce7611ce283611c5c565b611cb4565b9050919050565b611cf781611518565b82525050565b6000611d098383611cee565b60208301905092915050565b60008083016000808401611d298682611c48565b95505060018401549050611d3c81611c73565b611d468682611c9c565b95505060028401611d578682611c48565b95505060038401611d688682611c48565b95505060048401611d798682611c48565b95505060058401611d8a8682611c48565b95505060068401549050611d9d81611c73565b611da78682611c9c565b95505060078401549050611dba81611cd4565b611dc48682611cfd565b955050849250505092915050565b6000611dde8284611d15565b915081905092915050565b7f4e487b7100000000000000000000000000000000000000000000000000000000600052601160045260246000fd5b6000611e2382611203565b91507fffffffffffffffffffffffffffffffffffffffffffffffffffffffffffffffff8203611e5557611e54611de9565b5b600182019050919050565b6000611e6b8261146a565b611e758185611bb9565b9350611e85818560208601611486565b611e8e816110c7565b840191505092915050565b6000611ea58383611e60565b905092915050565b60008083016000830151611ec18582611e99565b9450506020830151611ed38582611c9c565b9450506040830151611ee58582611e99565b9450506060830151611ef78582611e99565b9450506080830151611f098582611e99565b94505060a0830151611f1b8582611e99565b94505060c0830151611f2d8582611c9c565b94505060e0830151611f3f8582611cfd565b9450508391505092915050565b6000611f588284611ead565b91508190509291505056fea26469706673582212208176a4c5211055a642a7d599b7c162823feb454110013e885211fb124b2ac94764736f6c63430008130033",
  "immutableReferences": {},
  "source": "// SPDX-License-Identifier: Ahmed FAST-NU\r\npragma solidity ^0.8.0;\r\n\r\ncontract Nobiety {\r\n    struct Campaign{\r\n        string title;\r\n        uint256 amount;\r\n        string date;\r\n        string url;\r\n        string description;\r\n        string status;\r\n        uint256 raisedAmount;\r\n        address owner;\r\n    }\r\n    Campaign[] public allCampaignList;\r\n        constructor() {\r\n    }\r\n    \r\n    event launchCampagin(Campaign indexed cam);\r\n    event updateCampagin(Campaign indexed cam);\r\n\r\n   function addCampaign(string memory _title, uint256 _amount, string memory _date, string memory _url, string memory _description) public {\r\n        Campaign memory newCampaign = Campaign({\r\n            title: _title,\r\n            amount: _amount,\r\n            date: _date,\r\n            url: _url,\r\n            description: _description,\r\n            status : \"Live\",\r\n            raisedAmount : 0.00,\r\n            owner : msg.sender\r\n        });\r\n        allCampaignList.push(newCampaign);\r\n        emit launchCampagin(newCampaign);\r\n    }\r\n\r\n    function getOwnerCampaignList() public view returns (Campaign[] memory) {\r\n        uint256 count = 0;\r\n        for (uint256 i = 0; i < allCampaignList.length; i++) {\r\n            if (allCampaignList[i].owner == msg.sender) {\r\n                count++;\r\n            }\r\n        }\r\n        Campaign[] memory temp = new Campaign[](count);\r\n        uint256 j = 0;\r\n        for (uint256 i = 0; i < allCampaignList.length; i++) {\r\n            if (allCampaignList[i].owner == msg.sender) {\r\n                temp[j] = allCampaignList[i];\r\n                j++;\r\n            }\r\n        }\r\n        return temp;\r\n    }\r\n\r\n    function updateCampaign(string memory _oldTitle, string memory _title, uint256 _amount, string memory _date, string memory _url, string memory _description) public {\r\n    for (uint256 i = 0; i < allCampaignList.length; i++) {\r\n        Campaign storage currentCampaign = allCampaignList[i];\r\n        if (keccak256(bytes(currentCampaign.title)) == keccak256(bytes(_oldTitle)) && currentCampaign.owner == msg.sender) {\r\n            currentCampaign.title = _title;\r\n            currentCampaign.amount = _amount;\r\n            currentCampaign.date = _date;\r\n            currentCampaign.url = _url;\r\n            currentCampaign.description = _description;\r\n            emit updateCampagin(currentCampaign);\r\n            break;\r\n        }\r\n    }\r\n}\r\n\r\n     function getAllCampaignList() public view returns (Campaign[] memory) {\r\n        return allCampaignList;\r\n    }\r\n\r\n}",
  "sourcePath": "I:\\University Data\\FAST semester work\\Semester 8 work\\Blockchain\\Practice\\crowd_fund\\contracts\\Nobiety.sol",
  "compiler": {
    "name": "solc",
    "version": "0.8.19+commit.7dd6d404.Emscripten.clang"
  },
  "schemaVersion": "3.4.13",
  "updatedAt": "2023-04-21T13:21:02.925Z",
  "networkType": "ethereum",
  "devdoc": {
    "kind": "dev",
    "methods": {},
    "version": 1
  },
  "userdoc": {
    "kind": "user",
    "methods": {},
    "version": 1
  }
}