{
  "contractName": "Nobiety",
  "abi": [
    {
      "inputs": [],
      "stateMutability": "nonpayable",
      "type": "constructor"
    },
    {
      "anonymous": false,
      "inputs": [
        {
          "components": [
            {
              "internalType": "string",
              "name": "title",
              "type": "string"
            },
            {
              "internalType": "uint256",
              "name": "amount",
              "type": "uint256"
            },
            {
              "internalType": "string",
              "name": "date",
              "type": "string"
            },
            {
              "internalType": "string",
              "name": "url",
              "type": "string"
            },
            {
              "internalType": "string",
              "name": "description",
              "type": "string"
            },
            {
              "internalType": "string",
              "name": "status",
              "type": "string"
            },
            {
              "internalType": "uint256",
              "name": "raisedAmount",
              "type": "uint256"
            },
            {
              "internalType": "address",
              "name": "owner",
              "type": "address"
            }
          ],
          "indexed": true,
          "internalType": "struct Nobiety.Campaign",
          "name": "cam",
          "type": "tuple"
        }
      ],
      "name": "deleteCampagin",
      "type": "event"
    },
    {
      "anonymous": false,
      "inputs": [
        {
          "components": [
            {
              "internalType": "string",
              "name": "title",
              "type": "string"
            },
            {
              "internalType": "uint256",
              "name": "amount",
              "type": "uint256"
            },
            {
              "internalType": "string",
              "name": "date",
              "type": "string"
            },
            {
              "internalType": "string",
              "name": "url",
              "type": "string"
            },
            {
              "internalType": "string",
              "name": "description",
              "type": "string"
            },
            {
              "internalType": "string",
              "name": "status",
              "type": "string"
            },
            {
              "internalType": "uint256",
              "name": "raisedAmount",
              "type": "uint256"
            },
            {
              "internalType": "address",
              "name": "owner",
              "type": "address"
            }
          ],
          "indexed": true,
          "internalType": "struct Nobiety.Campaign",
          "name": "cam",
          "type": "tuple"
        }
      ],
      "name": "launchCampagin",
      "type": "event"
    },
    {
      "anonymous": false,
      "inputs": [
        {
          "components": [
            {
              "internalType": "string",
              "name": "title",
              "type": "string"
            },
            {
              "internalType": "uint256",
              "name": "amount",
              "type": "uint256"
            },
            {
              "internalType": "string",
              "name": "date",
              "type": "string"
            },
            {
              "internalType": "string",
              "name": "url",
              "type": "string"
            },
            {
              "internalType": "string",
              "name": "description",
              "type": "string"
            },
            {
              "internalType": "string",
              "name": "status",
              "type": "string"
            },
            {
              "internalType": "uint256",
              "name": "raisedAmount",
              "type": "uint256"
            },
            {
              "internalType": "address",
              "name": "owner",
              "type": "address"
            }
          ],
          "indexed": true,
          "internalType": "struct Nobiety.Campaign",
          "name": "cam",
          "type": "tuple"
        }
      ],
      "name": "updateCampagin",
      "type": "event"
    },
    {
      "inputs": [
        {
          "internalType": "uint256",
          "name": "",
          "type": "uint256"
        }
      ],
      "name": "allCampaignList",
      "outputs": [
        {
          "internalType": "string",
          "name": "title",
          "type": "string"
        },
        {
          "internalType": "uint256",
          "name": "amount",
          "type": "uint256"
        },
        {
          "internalType": "string",
          "name": "date",
          "type": "string"
        },
        {
          "internalType": "string",
          "name": "url",
          "type": "string"
        },
        {
          "internalType": "string",
          "name": "description",
          "type": "string"
        },
        {
          "internalType": "string",
          "name": "status",
          "type": "string"
        },
        {
          "internalType": "uint256",
          "name": "raisedAmount",
          "type": "uint256"
        },
        {
          "internalType": "address",
          "name": "owner",
          "type": "address"
        }
      ],
      "stateMutability": "view",
      "type": "function",
      "constant": true
    },
    {
      "inputs": [
        {
          "internalType": "string",
          "name": "",
          "type": "string"
        },
        {
          "internalType": "uint256",
          "name": "",
          "type": "uint256"
        }
      ],
      "name": "backers",
      "outputs": [
        {
          "internalType": "address",
          "name": "backer",
          "type": "address"
        },
        {
          "internalType": "uint256",
          "name": "donation",
          "type": "uint256"
        },
        {
          "internalType": "string",
          "name": "time",
          "type": "string"
        }
      ],
      "stateMutability": "view",
      "type": "function",
      "constant": true
    },
    {
      "inputs": [
        {
          "internalType": "string",
          "name": "title",
          "type": "string"
        }
      ],
      "name": "isNameExist",
      "outputs": [
        {
          "internalType": "bool",
          "name": "",
          "type": "bool"
        }
      ],
      "stateMutability": "view",
      "type": "function",
      "constant": true
    },
    {
      "inputs": [
        {
          "internalType": "string",
          "name": "_title",
          "type": "string"
        },
        {
          "internalType": "uint256",
          "name": "_amount",
          "type": "uint256"
        },
        {
          "internalType": "string",
          "name": "_date",
          "type": "string"
        },
        {
          "internalType": "string",
          "name": "_url",
          "type": "string"
        },
        {
          "internalType": "string",
          "name": "_description",
          "type": "string"
        }
      ],
      "name": "addCampaign",
      "outputs": [],
      "stateMutability": "nonpayable",
      "type": "function"
    },
    {
      "inputs": [
        {
          "internalType": "string",
          "name": "_oldTitle",
          "type": "string"
        },
        {
          "internalType": "string",
          "name": "_title",
          "type": "string"
        },
        {
          "internalType": "uint256",
          "name": "_amount",
          "type": "uint256"
        },
        {
          "internalType": "string",
          "name": "_date",
          "type": "string"
        },
        {
          "internalType": "string",
          "name": "_url",
          "type": "string"
        },
        {
          "internalType": "string",
          "name": "_description",
          "type": "string"
        }
      ],
      "name": "updateCampaign",
      "outputs": [],
      "stateMutability": "nonpayable",
      "type": "function"
    },
    {
      "inputs": [
        {
          "internalType": "string",
          "name": "_title",
          "type": "string"
        }
      ],
      "name": "deleteCampaign",
      "outputs": [],
      "stateMutability": "nonpayable",
      "type": "function"
    },
    {
      "inputs": [],
      "name": "getAllCampaignList",
      "outputs": [
        {
          "components": [
            {
              "internalType": "string",
              "name": "title",
              "type": "string"
            },
            {
              "internalType": "uint256",
              "name": "amount",
              "type": "uint256"
            },
            {
              "internalType": "string",
              "name": "date",
              "type": "string"
            },
            {
              "internalType": "string",
              "name": "url",
              "type": "string"
            },
            {
              "internalType": "string",
              "name": "description",
              "type": "string"
            },
            {
              "internalType": "string",
              "name": "status",
              "type": "string"
            },
            {
              "internalType": "uint256",
              "name": "raisedAmount",
              "type": "uint256"
            },
            {
              "internalType": "address",
              "name": "owner",
              "type": "address"
            }
          ],
          "internalType": "struct Nobiety.Campaign[]",
          "name": "",
          "type": "tuple[]"
        }
      ],
      "stateMutability": "view",
      "type": "function",
      "constant": true
    }
  ],
  "bytecode": "0x608060405234801561001057600080fd5b50612163806100206000396000f3fe608060405234801561001057600080fd5b506004361061007d5760003560e01c80639eb1903b1161005b5780639eb1903b146100ec578063ae87732d14610108578063c3fcf9d31461013f578063e1b3727d1461016f5761007d565b806308497b63146100825780636d25a5f31461009e57806377adfc64146100d0575b600080fd5b61009c60048036038101906100979190611258565b61018d565b005b6100b860048036038101906100b39190611371565b6102fa565b6040516100c79392919061149c565b60405180910390f35b6100ea60048036038101906100e591906114da565b6103ff565b005b61010660048036038101906101019190611523565b61055d565b005b610122600480360381019061011d919061160e565b610770565b60405161013698979695949392919061163b565b60405180910390f35b610159600480360381019061015491906114da565b610a90565b60405161016691906116f7565b60405180910390f35b610177610b1a565b6040516101849190611908565b60405180910390f35b60005b6000805490508110156102f15760008082815481106101b2576101b161192a565b5b906000526020600020906008020190508780519060200120816000016040516101db9190611a5c565b604051809103902014801561023f57503373ffffffffffffffffffffffffffffffffffffffff168160070160009054906101000a900473ffffffffffffffffffffffffffffffffffffffff1673ffffffffffffffffffffffffffffffffffffffff16145b156102dd57868160000190816102559190611c1f565b50858160010181905550848160020190816102709190611c1f565b50838160030190816102829190611c1f565b50828160040190816102949190611c1f565b50806040516102a39190611f0a565b60405180910390207f210f6ddd741fd33dcd0135e4d6c9f95a217ad64afb0ec8bd2dd4ed09e775325960405160405180910390a2506102f1565b5080806102e990611f50565b915050610190565b50505050505050565b600182805160208101820180518482526020830160208501208183528095505050505050818154811061032c57600080fd5b9060005260206000209060030201600091509150508060000160009054906101000a900473ffffffffffffffffffffffffffffffffffffffff169080600101549080600201805461037c90611988565b80601f01602080910402602001604051908101604052809291908181526020018280546103a890611988565b80156103f55780601f106103ca576101008083540402835291602001916103f5565b820191906000526020600020905b8154815290600101906020018083116103d857829003601f168201915b5050505050905083565b60005b6000805490508110156105595760008082815481106104245761042361192a565b5b9060005260206000209060080201905082805190602001208160000160405161044d9190611a5c565b60405180910390201480156104b157503373ffffffffffffffffffffffffffffffffffffffff168160070160009054906101000a900473ffffffffffffffffffffffffffffffffffffffff1673ffffffffffffffffffffffffffffffffffffffff16145b15610545576040518060400160405280600781526020017f44656c65746564000000000000000000000000000000000000000000000000008152508160050190816104fc9190611c1f565b508060405161050b9190611f0a565b60405180910390207f146e77c6f7415b94c0c46c068539ac3e7ef701234955975a6c4b77ae26d66c5160405160405180910390a250610559565b50808061055190611f50565b915050610402565b5050565b61056685610a90565b6105a5576040517f08c379a000000000000000000000000000000000000000000000000000000000815260040161059c9061200a565b60405180910390fd5b60006040518061010001604052808781526020018681526020018581526020018481526020018381526020016040518060400160405280600481526020017f4c697665000000000000000000000000000000000000000000000000000000008152508152602001600081526020013373ffffffffffffffffffffffffffffffffffffffff168152509050600081908060018154018082558091505060019003906000526020600020906008020160009091909190915060008201518160000190816106709190611c1f565b506020820151816001015560408201518160020190816106909190611c1f565b5060608201518160030190816106a69190611c1f565b5060808201518160040190816106bc9190611c1f565b5060a08201518160050190816106d29190611c1f565b5060c0820151816006015560e08201518160070160006101000a81548173ffffffffffffffffffffffffffffffffffffffff021916908373ffffffffffffffffffffffffffffffffffffffff1602179055505050806040516107349190612116565b60405180910390207f9c2cefb345976953895dc12b445ec5580695c265d6f063c974e1552f310eb2a760405160405180910390a2505050505050565b6000818154811061078057600080fd5b90600052602060002090600802016000915090508060000180546107a390611988565b80601f01602080910402602001604051908101604052809291908181526020018280546107cf90611988565b801561081c5780601f106107f15761010080835404028352916020019161081c565b820191906000526020600020905b8154815290600101906020018083116107ff57829003601f168201915b50505050509080600101549080600201805461083790611988565b80601f016020809104026020016040519081016040528092919081815260200182805461086390611988565b80156108b05780601f10610885576101008083540402835291602001916108b0565b820191906000526020600020905b81548152906001019060200180831161089357829003601f168201915b5050505050908060030180546108c590611988565b80601f01602080910402602001604051908101604052809291908181526020018280546108f190611988565b801561093e5780601f106109135761010080835404028352916020019161093e565b820191906000526020600020905b81548152906001019060200180831161092157829003601f168201915b50505050509080600401805461095390611988565b80601f016020809104026020016040519081016040528092919081815260200182805461097f90611988565b80156109cc5780601f106109a1576101008083540402835291602001916109cc565b820191906000526020600020905b8154815290600101906020018083116109af57829003601f168201915b5050505050908060050180546109e190611988565b80601f0160208091040260200160405190810160405280929190818152602001828054610a0d90611988565b8015610a5a5780601f10610a2f57610100808354040283529160200191610a5a565b820191906000526020600020905b815481529060010190602001808311610a3d57829003601f168201915b5050505050908060060154908060070160009054906101000a900473ffffffffffffffffffffffffffffffffffffffff16905088565b6000806001905060005b600080549050811015610b10576000808281548110610abc57610abb61192a565b5b90600052602060002090600802019050848051906020012081600001604051610ae59190611a5c565b604051809103902003610afc576000925050610b10565b508080610b0890611f50565b915050610a9a565b5080915050919050565b60606000805b600080549050811015610bcb576040518060400160405280600781526020017f44656c65746564000000000000000000000000000000000000000000000000008152508051906020012060008281548110610b7e57610b7d61192a565b5b9060005260206000209060080201600501604051610b9c9190611a5c565b604051809103902014610bb8578180610bb490611f50565b9250505b8080610bc390611f50565b915050610b20565b5060008167ffffffffffffffff811115610be857610be76110f7565b5b604051908082528060200260200182016040528015610c2157816020015b610c0e61106d565b815260200190600190039081610c065790505b5090506000805b600080549050811015611063576040518060400160405280600781526020017f44656c65746564000000000000000000000000000000000000000000000000008152508051906020012060008281548110610c8657610c8561192a565b5b9060005260206000209060080201600501604051610ca49190611a5c565b6040518091039020146110505760008181548110610cc557610cc461192a565b5b906000526020600020906008020160405180610100016040529081600082018054610cef90611988565b80601f0160208091040260200160405190810160405280929190818152602001828054610d1b90611988565b8015610d685780601f10610d3d57610100808354040283529160200191610d68565b820191906000526020600020905b815481529060010190602001808311610d4b57829003601f168201915b5050505050815260200160018201548152602001600282018054610d8b90611988565b80601f0160208091040260200160405190810160405280929190818152602001828054610db790611988565b8015610e045780601f10610dd957610100808354040283529160200191610e04565b820191906000526020600020905b815481529060010190602001808311610de757829003601f168201915b50505050508152602001600382018054610e1d90611988565b80601f0160208091040260200160405190810160405280929190818152602001828054610e4990611988565b8015610e965780601f10610e6b57610100808354040283529160200191610e96565b820191906000526020600020905b815481529060010190602001808311610e7957829003601f168201915b50505050508152602001600482018054610eaf90611988565b80601f0160208091040260200160405190810160405280929190818152602001828054610edb90611988565b8015610f285780601f10610efd57610100808354040283529160200191610f28565b820191906000526020600020905b815481529060010190602001808311610f0b57829003601f168201915b50505050508152602001600582018054610f4190611988565b80601f0160208091040260200160405190810160405280929190818152602001828054610f6d90611988565b8015610fba5780601f10610f8f57610100808354040283529160200191610fba565b820191906000526020600020905b815481529060010190602001808311610f9d57829003601f168201915b50505050508152602001600682015481526020016007820160009054906101000a900473ffffffffffffffffffffffffffffffffffffffff1673ffffffffffffffffffffffffffffffffffffffff1673ffffffffffffffffffffffffffffffffffffffff16815250508383815181106110365761103561192a565b5b6020026020010181905250818061104c90611f50565b9250505b808061105b90611f50565b915050610c28565b5081935050505090565b60405180610100016040528060608152602001600081526020016060815260200160608152602001606081526020016060815260200160008152602001600073ffffffffffffffffffffffffffffffffffffffff1681525090565b6000604051905090565b600080fd5b600080fd5b600080fd5b600080fd5b6000601f19601f8301169050919050565b7f4e487b7100000000000000000000000000000000000000000000000000000000600052604160045260246000fd5b61112f826110e6565b810181811067ffffffffffffffff8211171561114e5761114d6110f7565b5b80604052505050565b60006111616110c8565b905061116d8282611126565b919050565b600067ffffffffffffffff82111561118d5761118c6110f7565b5b611196826110e6565b9050602081019050919050565b82818337600083830152505050565b60006111c56111c084611172565b611157565b9050828152602081018484840111156111e1576111e06110e1565b5b6111ec8482856111a3565b509392505050565b600082601f830112611209576112086110dc565b5b81356112198482602086016111b2565b91505092915050565b6000819050919050565b61123581611222565b811461124057600080fd5b50565b6000813590506112528161122c565b92915050565b60008060008060008060c08789031215611275576112746110d2565b5b600087013567ffffffffffffffff811115611293576112926110d7565b5b61129f89828a016111f4565b965050602087013567ffffffffffffffff8111156112c0576112bf6110d7565b5b6112cc89828a016111f4565b95505060406112dd89828a01611243565b945050606087013567ffffffffffffffff8111156112fe576112fd6110d7565b5b61130a89828a016111f4565b935050608087013567ffffffffffffffff81111561132b5761132a6110d7565b5b61133789828a016111f4565b92505060a087013567ffffffffffffffff811115611358576113576110d7565b5b61136489828a016111f4565b9150509295509295509295565b60008060408385031215611388576113876110d2565b5b600083013567ffffffffffffffff8111156113a6576113a56110d7565b5b6113b2858286016111f4565b92505060206113c385828601611243565b9150509250929050565b600073ffffffffffffffffffffffffffffffffffffffff82169050919050565b60006113f8826113cd565b9050919050565b611408816113ed565b82525050565b61141781611222565b82525050565b600081519050919050565b600082825260208201905092915050565b60005b8381101561145757808201518184015260208101905061143c565b60008484015250505050565b600061146e8261141d565b6114788185611428565b9350611488818560208601611439565b611491816110e6565b840191505092915050565b60006060820190506114b160008301866113ff565b6114be602083018561140e565b81810360408301526114d08184611463565b9050949350505050565b6000602082840312156114f0576114ef6110d2565b5b600082013567ffffffffffffffff81111561150e5761150d6110d7565b5b61151a848285016111f4565b91505092915050565b600080600080600060a0868803121561153f5761153e6110d2565b5b600086013567ffffffffffffffff81111561155d5761155c6110d7565b5b611569888289016111f4565b955050602061157a88828901611243565b945050604086013567ffffffffffffffff81111561159b5761159a6110d7565b5b6115a7888289016111f4565b935050606086013567ffffffffffffffff8111156115c8576115c76110d7565b5b6115d4888289016111f4565b925050608086013567ffffffffffffffff8111156115f5576115f46110d7565b5b611601888289016111f4565b9150509295509295909350565b600060208284031215611624576116236110d2565b5b600061163284828501611243565b91505092915050565b6000610100820190508181036000830152611656818b611463565b9050611665602083018a61140e565b81810360408301526116778189611463565b9050818103606083015261168b8188611463565b9050818103608083015261169f8187611463565b905081810360a08301526116b38186611463565b90506116c260c083018561140e565b6116cf60e08301846113ff565b9998505050505050505050565b60008115159050919050565b6116f1816116dc565b82525050565b600060208201905061170c60008301846116e8565b92915050565b600081519050919050565b600082825260208201905092915050565b6000819050602082019050919050565b600082825260208201905092915050565b600061175a8261141d565b611764818561173e565b9350611774818560208601611439565b61177d816110e6565b840191505092915050565b61179181611222565b82525050565b6117a0816113ed565b82525050565b60006101008301600083015184820360008601526117c4828261174f565b91505060208301516117d96020860182611788565b50604083015184820360408601526117f1828261174f565b9150506060830151848203606086015261180b828261174f565b91505060808301518482036080860152611825828261174f565b91505060a083015184820360a086015261183f828261174f565b91505060c083015161185460c0860182611788565b5060e083015161186760e0860182611797565b508091505092915050565b600061187e83836117a6565b905092915050565b6000602082019050919050565b600061189e82611712565b6118a8818561171d565b9350836020820285016118ba8561172e565b8060005b858110156118f657848403895281516118d78582611872565b94506118e283611886565b925060208a019950506001810190506118be565b50829750879550505050505092915050565b600060208201905081810360008301526119228184611893565b905092915050565b7f4e487b7100000000000000000000000000000000000000000000000000000000600052603260045260246000fd5b7f4e487b7100000000000000000000000000000000000000000000000000000000600052602260045260246000fd5b600060028204905060018216806119a057607f821691505b6020821081036119b3576119b2611959565b5b50919050565b600081905092915050565b60008190508160005260206000209050919050565b600081546119e681611988565b6119f081866119b9565b94506001821660008114611a0b5760018114611a2057611a53565b60ff1983168652811515820286019350611a53565b611a29856119c4565b60005b83811015611a4b57815481890152600182019150602081019050611a2c565b838801955050505b50505092915050565b6000611a6882846119d9565b915081905092915050565b60008190508160005260206000209050919050565b60006020601f8301049050919050565b600082821b905092915050565b600060088302611ad57fffffffffffffffffffffffffffffffffffffffffffffffffffffffffffffffff82611a98565b611adf8683611a98565b95508019841693508086168417925050509392505050565b6000819050919050565b6000611b1c611b17611b1284611222565b611af7565b611222565b9050919050565b6000819050919050565b611b3683611b01565b611b4a611b4282611b23565b848454611aa5565b825550505050565b600090565b611b5f611b52565b611b6a818484611b2d565b505050565b5b81811015611b8e57611b83600082611b57565b600181019050611b70565b5050565b601f821115611bd357611ba481611a73565b611bad84611a88565b81016020851015611bbc578190505b611bd0611bc885611a88565b830182611b6f565b50505b505050565b600082821c905092915050565b6000611bf660001984600802611bd8565b1980831691505092915050565b6000611c0f8383611be5565b9150826002028217905092915050565b611c288261141d565b67ffffffffffffffff811115611c4157611c406110f7565b5b611c4b8254611988565b611c56828285611b92565b600060209050601f831160018114611c895760008415611c77578287015190505b611c818582611c03565b865550611ce9565b601f198416611c9786611a73565b60005b82811015611cbf57848901518255600182019150602085019450602081019050611c9a565b86831015611cdc5784890151611cd8601f891682611be5565b8355505b6001600288020188555050505b505050505050565b600081905092915050565b60008154611d0981611988565b611d138186611cf1565b94506001821660008114611d2e5760018114611d4457611d77565b60ff198316865281151560200286019350611d77565b611d4d85611a73565b60005b83811015611d6f57815481890152600182019150602081019050611d50565b808801955050505b50505092915050565b6000611d8c8383611cfc565b905092915050565b60008160001c9050919050565b6000819050919050565b6000611dbe611db983611d94565b611da1565b9050919050565b611dce81611222565b82525050565b6000611de08383611dc5565b60208301905092915050565b600073ffffffffffffffffffffffffffffffffffffffff82169050919050565b6000611e1f611e1a83611d94565b611dec565b9050919050565b611e2f816113ed565b82525050565b6000611e418383611e26565b60208301905092915050565b60008083016000808401611e618682611d80565b95505060018401549050611e7481611dab565b611e7e8682611dd4565b95505060028401611e8f8682611d80565b95505060038401611ea08682611d80565b95505060048401611eb18682611d80565b95505060058401611ec28682611d80565b95505060068401549050611ed581611dab565b611edf8682611dd4565b95505060078401549050611ef281611e0c565b611efc8682611e35565b955050849250505092915050565b6000611f168284611e4d565b915081905092915050565b7f4e487b7100000000000000000000000000000000000000000000000000000000600052601160045260246000fd5b6000611f5b82611222565b91507fffffffffffffffffffffffffffffffffffffffffffffffffffffffffffffffff8203611f8d57611f8c611f21565b5b600182019050919050565b7f43616e6e6f742061646420612063616d70616761696e20776974682073616d6560008201527f206e616d65000000000000000000000000000000000000000000000000000000602082015250565b6000611ff4602583611428565b9150611fff82611f98565b604082019050919050565b6000602082019050818103600083015261202381611fe7565b9050919050565b60006120358261141d565b61203f8185611cf1565b935061204f818560208601611439565b612058816110e6565b840191505092915050565b600061206f838361202a565b905092915050565b6000808301600083015161208b8582612063565b945050602083015161209d8582611dd4565b94505060408301516120af8582612063565b94505060608301516120c18582612063565b94505060808301516120d38582612063565b94505060a08301516120e58582612063565b94505060c08301516120f78582611dd4565b94505060e08301516121098582611e35565b9450508391505092915050565b60006121228284612077565b91508190509291505056fea264697066735822122038fffd388629d9c93df10dd6a9dda35511cf4c2b00cab6097e50966eae97afa564736f6c63430008130033",
  "immutableReferences": {},
  "source": "// SPDX-License-Identifier: Ahmed FAST-NU\r\npragma solidity ^0.8.0;\r\n\r\ncontract Nobiety {\r\n    struct Backer{\r\n    address backer;\r\n    uint256 donation;\r\n    string time;\r\n    }\r\n    struct Campaign{\r\n        string title;\r\n        uint256 amount;\r\n        string date;\r\n        string url;\r\n        string description;\r\n        string status;\r\n        uint256 raisedAmount;\r\n        address owner;\r\n    }\r\n\r\n    Campaign[] public allCampaignList;\r\n    mapping(string=>Backer[]) public backers;\r\n        constructor() {\r\n    }\r\n    \r\n    event launchCampagin(Campaign indexed cam);\r\n    event updateCampagin(Campaign indexed cam);\r\n    event deleteCampagin(Campaign indexed cam);\r\n\r\n    function isNameExist(string memory title) public view returns(bool) {\r\n     bool flag = true;\r\n     for (uint256 i = 0; i < allCampaignList.length; i++) {\r\n        Campaign storage currentCampaign = allCampaignList[i];\r\n        if (keccak256(bytes(currentCampaign.title)) == keccak256(bytes(title))) {\r\n            flag = false;\r\n            break;\r\n        }\r\n    }\r\n    return flag;\r\n}\r\n\r\n   function addCampaign(string memory _title, uint256 _amount, string memory _date, string memory _url, string memory _description) public {\r\n        require(isNameExist(_title),\"Cannot add a campagain with same name\");\r\n        Campaign memory newCampaign = Campaign({\r\n            title: _title,\r\n            amount: _amount,\r\n            date: _date,\r\n            url: _url,\r\n            description: _description,\r\n            status : \"Live\",\r\n            raisedAmount : 0.00,\r\n            owner : msg.sender\r\n        });\r\n       \r\n        allCampaignList.push(newCampaign);\r\n        emit launchCampagin(newCampaign);\r\n        \r\n    }\r\n\r\n    function updateCampaign(string memory _oldTitle, string memory _title, uint256 _amount, string memory _date, string memory _url, string memory _description) public {\r\n    for (uint256 i = 0; i < allCampaignList.length; i++) {\r\n        Campaign storage currentCampaign = allCampaignList[i];\r\n        if (keccak256(bytes(currentCampaign.title)) == keccak256(bytes(_oldTitle)) && currentCampaign.owner == msg.sender) {\r\n            currentCampaign.title = _title;\r\n            currentCampaign.amount = _amount;\r\n            currentCampaign.date = _date;\r\n            currentCampaign.url = _url;\r\n            currentCampaign.description = _description;\r\n            emit updateCampagin(currentCampaign);\r\n            break;\r\n        }\r\n    }\r\n    }\r\n\r\n    function deleteCampaign(string memory _title) public {\r\n    for (uint256 i = 0; i < allCampaignList.length; i++) {\r\n        Campaign storage currentCampaign = allCampaignList[i];\r\n        if (keccak256(bytes(currentCampaign.title)) == keccak256(bytes(_title)) && currentCampaign.owner == msg.sender) {\r\n          currentCampaign.status = \"Deleted\";\r\n          emit deleteCampagin(currentCampaign);\r\n          break;\r\n        }\r\n    }\r\n    }\r\n\r\n     function getAllCampaignList() public view returns (Campaign[] memory) {\r\n        uint256 count = 0;\r\n        for (uint256 i = 0; i < allCampaignList.length; i++) {\r\n            if (keccak256(bytes(allCampaignList[i].status)) != keccak256(bytes(\"Deleted\"))) {\r\n                count++;\r\n            }\r\n        }\r\n        Campaign[] memory temp = new Campaign[](count);\r\n         uint256 j = 0;\r\n        for (uint256 i = 0; i < allCampaignList.length; i++) {\r\n            if (keccak256(bytes(allCampaignList[i].status)) != keccak256(bytes(\"Deleted\"))) {\r\n                temp[j] = allCampaignList[i];\r\n                j++;\r\n            }\r\n        }\r\n        return temp;\r\n    }  \r\n\r\n}",
  "sourcePath": "I:\\University Data\\FAST semester work\\Semester 8 work\\Blockchain\\Project\\Mid Submission\\contracts\\Nobiety.sol",
  "compiler": {
    "name": "solc",
    "version": "0.8.19+commit.7dd6d404.Emscripten.clang"
  },
  "schemaVersion": "3.4.13",
  "updatedAt": "2023-04-30T20:44:46.162Z",
  "networkType": "ethereum",
  "devdoc": {
    "kind": "dev",
    "methods": {},
    "version": 1
  },
  "userdoc": {
    "kind": "user",
    "methods": {},
    "version": 1
  }
}