{
  "contractName": "Nobiety",
  "abi": [
    {
      "inputs": [],
      "stateMutability": "nonpayable",
      "type": "constructor"
    },
    {
      "anonymous": false,
      "inputs": [
        {
          "components": [
            {
              "internalType": "address",
              "name": "backer",
              "type": "address"
            },
            {
              "internalType": "uint256",
              "name": "donation",
              "type": "uint256"
            },
            {
              "internalType": "string",
              "name": "time",
              "type": "string"
            }
          ],
          "indexed": true,
          "internalType": "struct Nobiety.Backer",
          "name": "",
          "type": "tuple"
        },
        {
          "indexed": false,
          "internalType": "string",
          "name": "",
          "type": "string"
        }
      ],
      "name": "backerCampagin",
      "type": "event"
    },
    {
      "anonymous": false,
      "inputs": [
        {
          "components": [
            {
              "internalType": "string",
              "name": "title",
              "type": "string"
            },
            {
              "internalType": "uint256",
              "name": "amount",
              "type": "uint256"
            },
            {
              "internalType": "string",
              "name": "date",
              "type": "string"
            },
            {
              "internalType": "string",
              "name": "url",
              "type": "string"
            },
            {
              "internalType": "string",
              "name": "description",
              "type": "string"
            },
            {
              "internalType": "string",
              "name": "status",
              "type": "string"
            },
            {
              "internalType": "uint256",
              "name": "raisedAmount",
              "type": "uint256"
            },
            {
              "internalType": "address",
              "name": "owner",
              "type": "address"
            }
          ],
          "indexed": true,
          "internalType": "struct Nobiety.Campaign",
          "name": "",
          "type": "tuple"
        }
      ],
      "name": "deleteCampagin",
      "type": "event"
    },
    {
      "anonymous": false,
      "inputs": [
        {
          "indexed": true,
          "internalType": "address",
          "name": "",
          "type": "address"
        },
        {
          "indexed": false,
          "internalType": "uint256",
          "name": "",
          "type": "uint256"
        },
        {
          "indexed": false,
          "internalType": "string",
          "name": "",
          "type": "string"
        }
      ],
      "name": "fundsSentToOwner",
      "type": "event"
    },
    {
      "anonymous": false,
      "inputs": [
        {
          "components": [
            {
              "internalType": "string",
              "name": "title",
              "type": "string"
            },
            {
              "internalType": "uint256",
              "name": "amount",
              "type": "uint256"
            },
            {
              "internalType": "string",
              "name": "date",
              "type": "string"
            },
            {
              "internalType": "string",
              "name": "url",
              "type": "string"
            },
            {
              "internalType": "string",
              "name": "description",
              "type": "string"
            },
            {
              "internalType": "string",
              "name": "status",
              "type": "string"
            },
            {
              "internalType": "uint256",
              "name": "raisedAmount",
              "type": "uint256"
            },
            {
              "internalType": "address",
              "name": "owner",
              "type": "address"
            }
          ],
          "indexed": true,
          "internalType": "struct Nobiety.Campaign",
          "name": "",
          "type": "tuple"
        }
      ],
      "name": "launchCampagin",
      "type": "event"
    },
    {
      "anonymous": false,
      "inputs": [
        {
          "indexed": true,
          "internalType": "address",
          "name": "",
          "type": "address"
        },
        {
          "indexed": false,
          "internalType": "uint256",
          "name": "",
          "type": "uint256"
        },
        {
          "indexed": false,
          "internalType": "string",
          "name": "",
          "type": "string"
        }
      ],
      "name": "refund",
      "type": "event"
    },
    {
      "anonymous": false,
      "inputs": [
        {
          "components": [
            {
              "internalType": "string",
              "name": "title",
              "type": "string"
            },
            {
              "internalType": "uint256",
              "name": "amount",
              "type": "uint256"
            },
            {
              "internalType": "string",
              "name": "date",
              "type": "string"
            },
            {
              "internalType": "string",
              "name": "url",
              "type": "string"
            },
            {
              "internalType": "string",
              "name": "description",
              "type": "string"
            },
            {
              "internalType": "string",
              "name": "status",
              "type": "string"
            },
            {
              "internalType": "uint256",
              "name": "raisedAmount",
              "type": "uint256"
            },
            {
              "internalType": "address",
              "name": "owner",
              "type": "address"
            }
          ],
          "indexed": true,
          "internalType": "struct Nobiety.Campaign",
          "name": "",
          "type": "tuple"
        }
      ],
      "name": "updateCampagin",
      "type": "event"
    },
    {
      "anonymous": false,
      "inputs": [
        {
          "indexed": true,
          "internalType": "address",
          "name": "",
          "type": "address"
        },
        {
          "indexed": false,
          "internalType": "uint256",
          "name": "",
          "type": "uint256"
        }
      ],
      "name": "withdrawAmount",
      "type": "event"
    },
    {
      "inputs": [
        {
          "internalType": "uint256",
          "name": "",
          "type": "uint256"
        }
      ],
      "name": "allCampaignList",
      "outputs": [
        {
          "internalType": "string",
          "name": "title",
          "type": "string"
        },
        {
          "internalType": "uint256",
          "name": "amount",
          "type": "uint256"
        },
        {
          "internalType": "string",
          "name": "date",
          "type": "string"
        },
        {
          "internalType": "string",
          "name": "url",
          "type": "string"
        },
        {
          "internalType": "string",
          "name": "description",
          "type": "string"
        },
        {
          "internalType": "string",
          "name": "status",
          "type": "string"
        },
        {
          "internalType": "uint256",
          "name": "raisedAmount",
          "type": "uint256"
        },
        {
          "internalType": "address",
          "name": "owner",
          "type": "address"
        }
      ],
      "stateMutability": "view",
      "type": "function",
      "constant": true
    },
    {
      "inputs": [
        {
          "internalType": "string",
          "name": "",
          "type": "string"
        },
        {
          "internalType": "uint256",
          "name": "",
          "type": "uint256"
        }
      ],
      "name": "backers",
      "outputs": [
        {
          "internalType": "address",
          "name": "backer",
          "type": "address"
        },
        {
          "internalType": "uint256",
          "name": "donation",
          "type": "uint256"
        },
        {
          "internalType": "string",
          "name": "time",
          "type": "string"
        }
      ],
      "stateMutability": "view",
      "type": "function",
      "constant": true
    },
    {
      "inputs": [
        {
          "internalType": "address",
          "name": "",
          "type": "address"
        }
      ],
      "name": "balances",
      "outputs": [
        {
          "internalType": "uint256",
          "name": "",
          "type": "uint256"
        }
      ],
      "stateMutability": "view",
      "type": "function",
      "constant": true
    },
    {
      "inputs": [],
      "name": "deposit",
      "outputs": [],
      "stateMutability": "payable",
      "type": "function",
      "payable": true
    },
    {
      "inputs": [
        {
          "internalType": "address",
          "name": "ad",
          "type": "address"
        }
      ],
      "name": "getDeposit",
      "outputs": [
        {
          "internalType": "uint256",
          "name": "",
          "type": "uint256"
        }
      ],
      "stateMutability": "view",
      "type": "function",
      "constant": true
    },
    {
      "inputs": [
        {
          "internalType": "uint256",
          "name": "_amount",
          "type": "uint256"
        }
      ],
      "name": "withdrawBalance",
      "outputs": [],
      "stateMutability": "payable",
      "type": "function",
      "payable": true
    },
    {
      "inputs": [
        {
          "internalType": "string",
          "name": "_title",
          "type": "string"
        },
        {
          "internalType": "uint256",
          "name": "_donation",
          "type": "uint256"
        },
        {
          "internalType": "string",
          "name": "_time",
          "type": "string"
        }
      ],
      "name": "backCampaign",
      "outputs": [],
      "stateMutability": "nonpayable",
      "type": "function"
    },
    {
      "inputs": [
        {
          "internalType": "string",
          "name": "_title",
          "type": "string"
        }
      ],
      "name": "sendFundsToOwner",
      "outputs": [],
      "stateMutability": "payable",
      "type": "function",
      "payable": true
    },
    {
      "inputs": [
        {
          "internalType": "string",
          "name": "title",
          "type": "string"
        }
      ],
      "name": "isTitleExist",
      "outputs": [
        {
          "internalType": "bool",
          "name": "",
          "type": "bool"
        }
      ],
      "stateMutability": "view",
      "type": "function",
      "constant": true
    },
    {
      "inputs": [
        {
          "internalType": "string",
          "name": "_title",
          "type": "string"
        }
      ],
      "name": "retreiveCampaignFromMemory",
      "outputs": [
        {
          "components": [
            {
              "internalType": "string",
              "name": "title",
              "type": "string"
            },
            {
              "internalType": "uint256",
              "name": "amount",
              "type": "uint256"
            },
            {
              "internalType": "string",
              "name": "date",
              "type": "string"
            },
            {
              "internalType": "string",
              "name": "url",
              "type": "string"
            },
            {
              "internalType": "string",
              "name": "description",
              "type": "string"
            },
            {
              "internalType": "string",
              "name": "status",
              "type": "string"
            },
            {
              "internalType": "uint256",
              "name": "raisedAmount",
              "type": "uint256"
            },
            {
              "internalType": "address",
              "name": "owner",
              "type": "address"
            }
          ],
          "internalType": "struct Nobiety.Campaign",
          "name": "",
          "type": "tuple"
        }
      ],
      "stateMutability": "view",
      "type": "function",
      "constant": true
    },
    {
      "inputs": [
        {
          "internalType": "string",
          "name": "_title",
          "type": "string"
        },
        {
          "internalType": "uint256",
          "name": "_amount",
          "type": "uint256"
        },
        {
          "internalType": "string",
          "name": "_date",
          "type": "string"
        },
        {
          "internalType": "string",
          "name": "_url",
          "type": "string"
        },
        {
          "internalType": "string",
          "name": "_description",
          "type": "string"
        }
      ],
      "name": "addCampaign",
      "outputs": [],
      "stateMutability": "nonpayable",
      "type": "function"
    },
    {
      "inputs": [
        {
          "internalType": "string",
          "name": "_oldTitle",
          "type": "string"
        },
        {
          "internalType": "string",
          "name": "_title",
          "type": "string"
        },
        {
          "internalType": "uint256",
          "name": "_amount",
          "type": "uint256"
        },
        {
          "internalType": "string",
          "name": "_date",
          "type": "string"
        },
        {
          "internalType": "string",
          "name": "_url",
          "type": "string"
        },
        {
          "internalType": "string",
          "name": "_description",
          "type": "string"
        }
      ],
      "name": "updateCampaign",
      "outputs": [],
      "stateMutability": "nonpayable",
      "type": "function"
    },
    {
      "inputs": [
        {
          "internalType": "string",
          "name": "_title",
          "type": "string"
        }
      ],
      "name": "deleteCampaign",
      "outputs": [],
      "stateMutability": "payable",
      "type": "function",
      "payable": true
    },
    {
      "inputs": [
        {
          "internalType": "string",
          "name": "_title",
          "type": "string"
        }
      ],
      "name": "getBackers",
      "outputs": [
        {
          "components": [
            {
              "internalType": "address",
              "name": "backer",
              "type": "address"
            },
            {
              "internalType": "uint256",
              "name": "donation",
              "type": "uint256"
            },
            {
              "internalType": "string",
              "name": "time",
              "type": "string"
            }
          ],
          "internalType": "struct Nobiety.Backer[]",
          "name": "",
          "type": "tuple[]"
        }
      ],
      "stateMutability": "view",
      "type": "function",
      "constant": true
    },
    {
      "inputs": [],
      "name": "getAllCampaignList",
      "outputs": [
        {
          "components": [
            {
              "internalType": "string",
              "name": "title",
              "type": "string"
            },
            {
              "internalType": "uint256",
              "name": "amount",
              "type": "uint256"
            },
            {
              "internalType": "string",
              "name": "date",
              "type": "string"
            },
            {
              "internalType": "string",
              "name": "url",
              "type": "string"
            },
            {
              "internalType": "string",
              "name": "description",
              "type": "string"
            },
            {
              "internalType": "string",
              "name": "status",
              "type": "string"
            },
            {
              "internalType": "uint256",
              "name": "raisedAmount",
              "type": "uint256"
            },
            {
              "internalType": "address",
              "name": "owner",
              "type": "address"
            }
          ],
          "internalType": "struct Nobiety.Campaign[]",
          "name": "",
          "type": "tuple[]"
        }
      ],
      "stateMutability": "view",
      "type": "function",
      "constant": true
    }
  ],
  "bytecode": "0x608060405234801561001057600080fd5b506141f1806100206000396000f3fe6080604052600436106100e85760003560e01c8063a739dbd71161008a578063d0e30db011610059578063d0e30db014610317578063da76d5cd14610321578063e1254fba1461033d578063e1b3727d1461037a576100e8565b8063a739dbd714610230578063ae87732d1461026d578063c178d0c3146102b1578063d0602e69146102ee576100e8565b80636b03e1b0116100c65780636b03e1b01461016f5780636d25a5f3146101ac57806377adfc64146101eb5780639eb1903b14610207576100e8565b806306d6f9ac146100ed57806308497b631461010957806327e235e314610132575b600080fd5b61010760048036038101906101029190612706565b6103a5565b005b34801561011557600080fd5b50610130600480360381019061012b9190612785565b610578565b005b34801561013e57600080fd5b50610159600480360381019061015491906128fc565b610742565b6040516101669190612938565b60405180910390f35b34801561017b57600080fd5b5061019660048036038101906101919190612706565b61075a565b6040516101a39190612b02565b60405180910390f35b3480156101b857600080fd5b506101d360048036038101906101ce9190612b24565b6108c9565b6040516101e293929190612bd9565b60405180910390f35b61020560048036038101906102009190612706565b6109ce565b005b34801561021357600080fd5b5061022e60048036038101906102299190612c17565b610f2b565b005b34801561023c57600080fd5b5061025760048036038101906102529190612706565b61113e565b6040516102649190612dce565b60405180910390f35b34801561027957600080fd5b50610294600480360381019061028f9190612df0565b611550565b6040516102a8989796959493929190612e1d565b60405180910390f35b3480156102bd57600080fd5b506102d860048036038101906102d39190612706565b611870565b6040516102e59190612ed9565b60405180910390f35b3480156102fa57600080fd5b5061031560048036038101906103109190612ef4565b6118fa565b005b61031f611cd1565b005b61033b60048036038101906103369190612df0565b611d29565b005b34801561034957600080fd5b50610364600480360381019061035f91906128fc565b611e99565b6040516103719190612938565b60405180910390f35b34801561038657600080fd5b5061038f611ee2565b60405161039c919061310d565b60405180910390f35b60006103b082612435565b905080600101548160060154146103fc576040517f08c379a00000000000000000000000000000000000000000000000000000000081526004016103f39061317b565b60405180910390fd5b60008160060154905060008260070160009054906101000a900473ffffffffffffffffffffffffffffffffffffffff16905060008173ffffffffffffffffffffffffffffffffffffffff1683604051610454906131cc565b60006040518083038185875af1925050503d8060008114610491576040519150601f19603f3d011682016040523d82523d6000602084013e610496565b606091505b50509050806104da576040517f08c379a00000000000000000000000000000000000000000000000000000000081526004016104d19061322d565b60405180910390fd5b6040518060400160405280600681526020017f52616973656400000000000000000000000000000000000000000000000000008152508460050190816105209190613459565b508173ffffffffffffffffffffffffffffffffffffffff167f2465133b67ce24a12ccac4285f1e7a10e405b3bebed013126f6aec55a068c907848760405161056992919061352b565b60405180910390a25050505050565b61058185611870565b6105c0576040517f08c379a00000000000000000000000000000000000000000000000000000000081526004016105b7906135cd565b60405180910390fd5b60006105cb87612435565b90503373ffffffffffffffffffffffffffffffffffffffff168160070160009054906101000a900473ffffffffffffffffffffffffffffffffffffffff1673ffffffffffffffffffffffffffffffffffffffff161461065f576040517f08c379a000000000000000000000000000000000000000000000000000000000815260040161065690613639565b60405180910390fd5b60008160060154146106a6576040517f08c379a000000000000000000000000000000000000000000000000000000000815260040161069d906136cb565b60405180910390fd5b858160000190816106b79190613459565b50848160010181905550838160020190816106d29190613459565b50828160030190816106e49190613459565b50818160040190816106f69190613459565b50806040516107059190613904565b60405180910390207f210f6ddd741fd33dcd0135e4d6c9f95a217ad64afb0ec8bd2dd4ed09e775325960405160405180910390a250505050505050565b60026020528060005260406000206000915090505481565b606060018260405161076c9190613957565b9081526020016040518091039020805480602002602001604051908101604052809291908181526020016000905b828210156108be57838290600052602060002090600302016040518060600160405290816000820160009054906101000a900473ffffffffffffffffffffffffffffffffffffffff1673ffffffffffffffffffffffffffffffffffffffff1673ffffffffffffffffffffffffffffffffffffffff1681526020016001820154815260200160028201805461082d9061327c565b80601f01602080910402602001604051908101604052809291908181526020018280546108599061327c565b80156108a65780601f1061087b576101008083540402835291602001916108a6565b820191906000526020600020905b81548152906001019060200180831161088957829003601f168201915b5050505050815250508152602001906001019061079a565b505050509050919050565b60018280516020810182018051848252602083016020850120818352809550505050505081815481106108fb57600080fd5b9060005260206000209060030201600091509150508060000160009054906101000a900473ffffffffffffffffffffffffffffffffffffffff169080600101549080600201805461094b9061327c565b80601f01602080910402602001604051908101604052809291908181526020018280546109779061327c565b80156109c45780601f10610999576101008083540402835291602001916109c4565b820191906000526020600020905b8154815290600101906020018083116109a757829003601f168201915b5050505050905083565b60006109d982612435565b90503373ffffffffffffffffffffffffffffffffffffffff168160070160009054906101000a900473ffffffffffffffffffffffffffffffffffffffff1673ffffffffffffffffffffffffffffffffffffffff1614610a6d576040517f08c379a0000000000000000000000000000000000000000000000000000000008152600401610a64906139ba565b60405180910390fd5b6040518060400160405280600681526020017f52616973656400000000000000000000000000000000000000000000000000008152508051906020012081600501604051610abb9190613a72565b604051809103902003610b03576040517f08c379a0000000000000000000000000000000000000000000000000000000008152600401610afa90613afb565b60405180910390fd5b6000600183604051610b159190613957565b9081526020016040518091039020905060005b8180549050811015610c76576000828281548110610b4957610b48613b1b565b5b90600052602060002090600302019050670de0b6b3a76400008160010154610b719190613b79565b600260008360000160009054906101000a900473ffffffffffffffffffffffffffffffffffffffff1673ffffffffffffffffffffffffffffffffffffffff1673ffffffffffffffffffffffffffffffffffffffff1681526020019081526020016000206000828254610be39190613bbb565b925050819055508060000160009054906101000a900473ffffffffffffffffffffffffffffffffffffffff1673ffffffffffffffffffffffffffffffffffffffff167fb00a96fea3a33bb737e8809e78b80b2cd91f1e938e2e0a33975a8563cbfde515826001015487604051610c5a92919061352b565b60405180910390a2508080610c6e90613bef565b915050610b28565b50600080600090505b600080549050811015610cf4576000808281548110610ca157610ca0613b1b565b5b90600052602060002090600802019050858051906020012081600001604051610cca9190613a72565b604051809103902003610ce05781925050610cf4565b508080610cec90613bef565b915050610c7f565b5060006001600080549050610d099190613c37565b81548110610d1a57610d19613b1b565b5b906000526020600020906008020160008281548110610d3c57610d3b613b1b565b5b906000526020600020906008020160008201816000019081610d5e9190613c81565b506001820154816001015560028201816002019081610d7d9190613c81565b5060038201816003019081610d929190613c81565b5060048201816004019081610da79190613c81565b5060058201816005019081610dbc9190613c81565b50600682015481600601556007820160009054906101000a900473ffffffffffffffffffffffffffffffffffffffff168160070160006101000a81548173ffffffffffffffffffffffffffffffffffffffff021916908373ffffffffffffffffffffffffffffffffffffffff1602179055509050506000805480610e4357610e42613d69565b5b600190038181906000526020600020906008020160008082016000610e6891906124f4565b6001820160009055600282016000610e8091906124f4565b600382016000610e9091906124f4565b600482016000610ea091906124f4565b600582016000610eb091906124f4565b60068201600090556007820160006101000a81549073ffffffffffffffffffffffffffffffffffffffff02191690555050905582604051610ef19190613904565b60405180910390207f146e77c6f7415b94c0c46c068539ac3e7ef701234955975a6c4b77ae26d66c5160405160405180910390a250505050565b610f3485611870565b610f73576040517f08c379a0000000000000000000000000000000000000000000000000000000008152600401610f6a906135cd565b60405180910390fd5b60006040518061010001604052808781526020018681526020018581526020018481526020018381526020016040518060400160405280600481526020017f4c697665000000000000000000000000000000000000000000000000000000008152508152602001600081526020013373ffffffffffffffffffffffffffffffffffffffff1681525090506000819080600181540180825580915050600190039060005260206000209060080201600090919091909150600082015181600001908161103e9190613459565b5060208201518160010155604082015181600201908161105e9190613459565b5060608201518160030190816110749190613459565b50608082015181600401908161108a9190613459565b5060a08201518160050190816110a09190613459565b5060c0820151816006015560e08201518160070160006101000a81548173ffffffffffffffffffffffffffffffffffffffff021916908373ffffffffffffffffffffffffffffffffffffffff1602179055505050806040516111029190613e84565b60405180910390207f9c2cefb345976953895dc12b445ec5580695c265d6f063c974e1552f310eb2a760405160405180910390a2505050505050565b611146612534565b60005b60008054905081101561150f57600080828154811061116b5761116a613b1b565b5b906000526020600020906008020190508380519060200120816000016040516111949190613a72565b6040518091039020036114fb5780604051806101000160405290816000820180546111be9061327c565b80601f01602080910402602001604051908101604052809291908181526020018280546111ea9061327c565b80156112375780601f1061120c57610100808354040283529160200191611237565b820191906000526020600020905b81548152906001019060200180831161121a57829003601f168201915b505050505081526020016001820154815260200160028201805461125a9061327c565b80601f01602080910402602001604051908101604052809291908181526020018280546112869061327c565b80156112d35780601f106112a8576101008083540402835291602001916112d3565b820191906000526020600020905b8154815290600101906020018083116112b657829003601f168201915b505050505081526020016003820180546112ec9061327c565b80601f01602080910402602001604051908101604052809291908181526020018280546113189061327c565b80156113655780601f1061133a57610100808354040283529160200191611365565b820191906000526020600020905b81548152906001019060200180831161134857829003601f168201915b5050505050815260200160048201805461137e9061327c565b80601f01602080910402602001604051908101604052809291908181526020018280546113aa9061327c565b80156113f75780601f106113cc576101008083540402835291602001916113f7565b820191906000526020600020905b8154815290600101906020018083116113da57829003601f168201915b505050505081526020016005820180546114109061327c565b80601f016020809104026020016040519081016040528092919081815260200182805461143c9061327c565b80156114895780601f1061145e57610100808354040283529160200191611489565b820191906000526020600020905b81548152906001019060200180831161146c57829003601f168201915b50505050508152602001600682015481526020016007820160009054906101000a900473ffffffffffffffffffffffffffffffffffffffff1673ffffffffffffffffffffffffffffffffffffffff1673ffffffffffffffffffffffffffffffffffffffff16815250509250505061154b565b50808061150790613bef565b915050611149565b506040517f08c379a000000000000000000000000000000000000000000000000000000000815260040161154290613ee7565b60405180910390fd5b919050565b6000818154811061156057600080fd5b90600052602060002090600802016000915090508060000180546115839061327c565b80601f01602080910402602001604051908101604052809291908181526020018280546115af9061327c565b80156115fc5780601f106115d1576101008083540402835291602001916115fc565b820191906000526020600020905b8154815290600101906020018083116115df57829003601f168201915b5050505050908060010154908060020180546116179061327c565b80601f01602080910402602001604051908101604052809291908181526020018280546116439061327c565b80156116905780601f1061166557610100808354040283529160200191611690565b820191906000526020600020905b81548152906001019060200180831161167357829003601f168201915b5050505050908060030180546116a59061327c565b80601f01602080910402602001604051908101604052809291908181526020018280546116d19061327c565b801561171e5780601f106116f35761010080835404028352916020019161171e565b820191906000526020600020905b81548152906001019060200180831161170157829003601f168201915b5050505050908060040180546117339061327c565b80601f016020809104026020016040519081016040528092919081815260200182805461175f9061327c565b80156117ac5780601f10611781576101008083540402835291602001916117ac565b820191906000526020600020905b81548152906001019060200180831161178f57829003601f168201915b5050505050908060050180546117c19061327c565b80601f01602080910402602001604051908101604052809291908181526020018280546117ed9061327c565b801561183a5780601f1061180f5761010080835404028352916020019161183a565b820191906000526020600020905b81548152906001019060200180831161181d57829003601f168201915b5050505050908060060154908060070160009054906101000a900473ffffffffffffffffffffffffffffffffffffffff16905088565b6000806001905060005b6000805490508110156118f057600080828154811061189c5761189b613b1b565b5b906000526020600020906008020190508480519060200120816000016040516118c59190613a72565b6040518091039020036118dc5760009250506118f0565b5080806118e890613bef565b91505061187a565b5080915050919050565b6000151561190784611870565b151514611949576040517f08c379a000000000000000000000000000000000000000000000000000000000815260040161194090613f53565b60405180910390fd5b600061195484612435565b905080600101548160060154106119a0576040517f08c379a000000000000000000000000000000000000000000000000000000000815260040161199790613fbf565b60405180910390fd5b8060070160009054906101000a900473ffffffffffffffffffffffffffffffffffffffff1673ffffffffffffffffffffffffffffffffffffffff163373ffffffffffffffffffffffffffffffffffffffff1603611a32576040517f08c379a0000000000000000000000000000000000000000000000000000000008152600401611a2990614051565b60405180910390fd5b82600260003373ffffffffffffffffffffffffffffffffffffffff1673ffffffffffffffffffffffffffffffffffffffff168152602001908152602001600020541015611ab4576040517f08c379a0000000000000000000000000000000000000000000000000000000008152600401611aab906140bd565b60405180910390fd5b6000670de0b6b3a764000084611aca919061410c565b9050600082600601548360010154611ae29190613c37565b90506000818310611af35781611af5565b825b905080846006016000828254611b0b9190613bbb565b92505081905550670de0b6b3a764000081611b269190613b79565b600260003373ffffffffffffffffffffffffffffffffffffffff1673ffffffffffffffffffffffffffffffffffffffff1681526020019081526020016000206000828254611b749190613c37565b92505081905550600060405180606001604052803373ffffffffffffffffffffffffffffffffffffffff168152602001838152602001878152509050600188604051611bc09190613957565b908152602001604051809103902081908060018154018082558091505060019003906000526020600020906003020160009091909190915060008201518160000160006101000a81548173ffffffffffffffffffffffffffffffffffffffff021916908373ffffffffffffffffffffffffffffffffffffffff160217905550602082015181600101556040820151816002019081611c5e9190613459565b5050508460010154856006015403611c7a57611c79886103a5565b5b80604051611c889190614182565b60405180910390207fdec360b0577bfef00e9bd6fc701e8eddf85e1ba47cafba43e8bd3346d6e5f25f89604051611cbf9190614199565b60405180910390a25050505050505050565b34600260003373ffffffffffffffffffffffffffffffffffffffff1673ffffffffffffffffffffffffffffffffffffffff1681526020019081526020016000206000828254611d209190613bbb565b92505081905550565b80600260003373ffffffffffffffffffffffffffffffffffffffff1673ffffffffffffffffffffffffffffffffffffffff168152602001908152602001600020541015611dab576040517f08c379a0000000000000000000000000000000000000000000000000000000008152600401611da2906140bd565b60405180910390fd5b80600260003373ffffffffffffffffffffffffffffffffffffffff1673ffffffffffffffffffffffffffffffffffffffff1681526020019081526020016000206000828254611dfa9190613c37565b925050819055503373ffffffffffffffffffffffffffffffffffffffff166108fc829081150290604051600060405180830381858888f19350505050158015611e47573d6000803e3d6000fd5b503373ffffffffffffffffffffffffffffffffffffffff167f736fe5656fcd35d9d20cbd1c42f7f6256ee31aea93b61054d47141c4927e220a82604051611e8e9190612938565b60405180910390a250565b6000600260008373ffffffffffffffffffffffffffffffffffffffff1673ffffffffffffffffffffffffffffffffffffffff168152602001908152602001600020549050919050565b60606000805b600080549050811015611f93576040518060400160405280600781526020017f44656c65746564000000000000000000000000000000000000000000000000008152508051906020012060008281548110611f4657611f45613b1b565b5b9060005260206000209060080201600501604051611f649190613a72565b604051809103902014611f80578180611f7c90613bef565b9250505b8080611f8b90613bef565b915050611ee8565b5060008167ffffffffffffffff811115611fb057611faf6125db565b5b604051908082528060200260200182016040528015611fe957816020015b611fd6612534565b815260200190600190039081611fce5790505b5090506000805b60008054905081101561242b576040518060400160405280600781526020017f44656c6574656400000000000000000000000000000000000000000000000000815250805190602001206000828154811061204e5761204d613b1b565b5b906000526020600020906008020160050160405161206c9190613a72565b604051809103902014612418576000818154811061208d5761208c613b1b565b5b9060005260206000209060080201604051806101000160405290816000820180546120b79061327c565b80601f01602080910402602001604051908101604052809291908181526020018280546120e39061327c565b80156121305780601f1061210557610100808354040283529160200191612130565b820191906000526020600020905b81548152906001019060200180831161211357829003601f168201915b50505050508152602001600182015481526020016002820180546121539061327c565b80601f016020809104026020016040519081016040528092919081815260200182805461217f9061327c565b80156121cc5780601f106121a1576101008083540402835291602001916121cc565b820191906000526020600020905b8154815290600101906020018083116121af57829003601f168201915b505050505081526020016003820180546121e59061327c565b80601f01602080910402602001604051908101604052809291908181526020018280546122119061327c565b801561225e5780601f106122335761010080835404028352916020019161225e565b820191906000526020600020905b81548152906001019060200180831161224157829003601f168201915b505050505081526020016004820180546122779061327c565b80601f01602080910402602001604051908101604052809291908181526020018280546122a39061327c565b80156122f05780601f106122c5576101008083540402835291602001916122f0565b820191906000526020600020905b8154815290600101906020018083116122d357829003601f168201915b505050505081526020016005820180546123099061327c565b80601f01602080910402602001604051908101604052809291908181526020018280546123359061327c565b80156123825780601f1061235757610100808354040283529160200191612382565b820191906000526020600020905b81548152906001019060200180831161236557829003601f168201915b50505050508152602001600682015481526020016007820160009054906101000a900473ffffffffffffffffffffffffffffffffffffffff1673ffffffffffffffffffffffffffffffffffffffff1673ffffffffffffffffffffffffffffffffffffffff16815250508383815181106123fe576123fd613b1b565b5b6020026020010181905250818061241490613bef565b9250505b808061242390613bef565b915050611ff0565b5081935050505090565b600080600090505b6000805490508110156124b357600080828154811061245f5761245e613b1b565b5b906000526020600020906008020190508380519060200120816000016040516124889190613a72565b60405180910390200361249f5780925050506124ef565b5080806124ab90613bef565b91505061243d565b506040517f08c379a00000000000000000000000000000000000000000000000000000000081526004016124e690613ee7565b60405180910390fd5b919050565b5080546125009061327c565b6000825580601f106125125750612531565b601f016020900490600052602060002090810190612530919061258f565b5b50565b60405180610100016040528060608152602001600081526020016060815260200160608152602001606081526020016060815260200160008152602001600073ffffffffffffffffffffffffffffffffffffffff1681525090565b5b808211156125a8576000816000905550600101612590565b5090565b6000604051905090565b600080fd5b600080fd5b600080fd5b600080fd5b6000601f19601f8301169050919050565b7f4e487b7100000000000000000000000000000000000000000000000000000000600052604160045260246000fd5b612613826125ca565b810181811067ffffffffffffffff82111715612632576126316125db565b5b80604052505050565b60006126456125ac565b9050612651828261260a565b919050565b600067ffffffffffffffff821115612671576126706125db565b5b61267a826125ca565b9050602081019050919050565b82818337600083830152505050565b60006126a96126a484612656565b61263b565b9050828152602081018484840111156126c5576126c46125c5565b5b6126d0848285612687565b509392505050565b600082601f8301126126ed576126ec6125c0565b5b81356126fd848260208601612696565b91505092915050565b60006020828403121561271c5761271b6125b6565b5b600082013567ffffffffffffffff81111561273a576127396125bb565b5b612746848285016126d8565b91505092915050565b6000819050919050565b6127628161274f565b811461276d57600080fd5b50565b60008135905061277f81612759565b92915050565b60008060008060008060c087890312156127a2576127a16125b6565b5b600087013567ffffffffffffffff8111156127c0576127bf6125bb565b5b6127cc89828a016126d8565b965050602087013567ffffffffffffffff8111156127ed576127ec6125bb565b5b6127f989828a016126d8565b955050604061280a89828a01612770565b945050606087013567ffffffffffffffff81111561282b5761282a6125bb565b5b61283789828a016126d8565b935050608087013567ffffffffffffffff811115612858576128576125bb565b5b61286489828a016126d8565b92505060a087013567ffffffffffffffff811115612885576128846125bb565b5b61289189828a016126d8565b9150509295509295509295565b600073ffffffffffffffffffffffffffffffffffffffff82169050919050565b60006128c98261289e565b9050919050565b6128d9816128be565b81146128e457600080fd5b50565b6000813590506128f6816128d0565b92915050565b600060208284031215612912576129116125b6565b5b6000612920848285016128e7565b91505092915050565b6129328161274f565b82525050565b600060208201905061294d6000830184612929565b92915050565b600081519050919050565b600082825260208201905092915050565b6000819050602082019050919050565b612988816128be565b82525050565b6129978161274f565b82525050565b600081519050919050565b600082825260208201905092915050565b60005b838110156129d75780820151818401526020810190506129bc565b60008484015250505050565b60006129ee8261299d565b6129f881856129a8565b9350612a088185602086016129b9565b612a11816125ca565b840191505092915050565b6000606083016000830151612a34600086018261297f565b506020830151612a47602086018261298e565b5060408301518482036040860152612a5f82826129e3565b9150508091505092915050565b6000612a788383612a1c565b905092915050565b6000602082019050919050565b6000612a9882612953565b612aa2818561295e565b935083602082028501612ab48561296f565b8060005b85811015612af05784840389528151612ad18582612a6c565b9450612adc83612a80565b925060208a01995050600181019050612ab8565b50829750879550505050505092915050565b60006020820190508181036000830152612b1c8184612a8d565b905092915050565b60008060408385031215612b3b57612b3a6125b6565b5b600083013567ffffffffffffffff811115612b5957612b586125bb565b5b612b65858286016126d8565b9250506020612b7685828601612770565b9150509250929050565b612b89816128be565b82525050565b600082825260208201905092915050565b6000612bab8261299d565b612bb58185612b8f565b9350612bc58185602086016129b9565b612bce816125ca565b840191505092915050565b6000606082019050612bee6000830186612b80565b612bfb6020830185612929565b8181036040830152612c0d8184612ba0565b9050949350505050565b600080600080600060a08688031215612c3357612c326125b6565b5b600086013567ffffffffffffffff811115612c5157612c506125bb565b5b612c5d888289016126d8565b9550506020612c6e88828901612770565b945050604086013567ffffffffffffffff811115612c8f57612c8e6125bb565b5b612c9b888289016126d8565b935050606086013567ffffffffffffffff811115612cbc57612cbb6125bb565b5b612cc8888289016126d8565b925050608086013567ffffffffffffffff811115612ce957612ce86125bb565b5b612cf5888289016126d8565b9150509295509295909350565b6000610100830160008301518482036000860152612d2082826129e3565b9150506020830151612d35602086018261298e565b5060408301518482036040860152612d4d82826129e3565b91505060608301518482036060860152612d6782826129e3565b91505060808301518482036080860152612d8182826129e3565b91505060a083015184820360a0860152612d9b82826129e3565b91505060c0830151612db060c086018261298e565b5060e0830151612dc360e086018261297f565b508091505092915050565b60006020820190508181036000830152612de88184612d02565b905092915050565b600060208284031215612e0657612e056125b6565b5b6000612e1484828501612770565b91505092915050565b6000610100820190508181036000830152612e38818b612ba0565b9050612e47602083018a612929565b8181036040830152612e598189612ba0565b90508181036060830152612e6d8188612ba0565b90508181036080830152612e818187612ba0565b905081810360a0830152612e958186612ba0565b9050612ea460c0830185612929565b612eb160e0830184612b80565b9998505050505050505050565b60008115159050919050565b612ed381612ebe565b82525050565b6000602082019050612eee6000830184612eca565b92915050565b600080600060608486031215612f0d57612f0c6125b6565b5b600084013567ffffffffffffffff811115612f2b57612f2a6125bb565b5b612f37868287016126d8565b9350506020612f4886828701612770565b925050604084013567ffffffffffffffff811115612f6957612f686125bb565b5b612f75868287016126d8565b9150509250925092565b600081519050919050565b600082825260208201905092915050565b6000819050602082019050919050565b6000610100830160008301518482036000860152612fc982826129e3565b9150506020830151612fde602086018261298e565b5060408301518482036040860152612ff682826129e3565b9150506060830151848203606086015261301082826129e3565b9150506080830151848203608086015261302a82826129e3565b91505060a083015184820360a086015261304482826129e3565b91505060c083015161305960c086018261298e565b5060e083015161306c60e086018261297f565b508091505092915050565b60006130838383612fab565b905092915050565b6000602082019050919050565b60006130a382612f7f565b6130ad8185612f8a565b9350836020820285016130bf85612f9b565b8060005b858110156130fb57848403895281516130dc8582613077565b94506130e78361308b565b925060208a019950506001810190506130c3565b50829750879550505050505092915050565b600060208201905081810360008301526131278184613098565b905092915050565b7f43616d706169676e206e6f742066756c6c792066756e64656400000000000000600082015250565b6000613165601983612b8f565b91506131708261312f565b602082019050919050565b6000602082019050818103600083015261319481613158565b9050919050565b600081905092915050565b50565b60006131b660008361319b565b91506131c1826131a6565b600082019050919050565b60006131d7826131a9565b9150819050919050565b7f5472616e73666572206661696c65640000000000000000000000000000000000600082015250565b6000613217600f83612b8f565b9150613222826131e1565b602082019050919050565b600060208201905081810360008301526132468161320a565b9050919050565b7f4e487b7100000000000000000000000000000000000000000000000000000000600052602260045260246000fd5b6000600282049050600182168061329457607f821691505b6020821081036132a7576132a661324d565b5b50919050565b60008190508160005260206000209050919050565b60006020601f8301049050919050565b600082821b905092915050565b60006008830261330f7fffffffffffffffffffffffffffffffffffffffffffffffffffffffffffffffff826132d2565b61331986836132d2565b95508019841693508086168417925050509392505050565b6000819050919050565b600061335661335161334c8461274f565b613331565b61274f565b9050919050565b6000819050919050565b6133708361333b565b61338461337c8261335d565b8484546132df565b825550505050565b600090565b61339961338c565b6133a4818484613367565b505050565b5b818110156133c8576133bd600082613391565b6001810190506133aa565b5050565b601f82111561340d576133de816132ad565b6133e7846132c2565b810160208510156133f6578190505b61340a613402856132c2565b8301826133a9565b50505b505050565b600082821c905092915050565b600061343060001984600802613412565b1980831691505092915050565b6000613449838361341f565b9150826002028217905092915050565b6134628261299d565b67ffffffffffffffff81111561347b5761347a6125db565b5b613485825461327c565b6134908282856133cc565b600060209050601f8311600181146134c357600084156134b1578287015190505b6134bb858261343d565b865550613523565b601f1984166134d1866132ad565b60005b828110156134f9578489015182556001820191506020850194506020810190506134d4565b868310156135165784890151613512601f89168261341f565b8355505b6001600288020188555050505b505050505050565b60006040820190506135406000830185612929565b81810360208301526135528184612ba0565b90509392505050565b7f43616e6e6f742061646420612063616d70616761696e20776974682073616d6560008201527f206e616d65000000000000000000000000000000000000000000000000000000602082015250565b60006135b7602583612b8f565b91506135c28261355b565b604082019050919050565b600060208201905081810360008301526135e6816135aa565b9050919050565b7f4f6e6c79206f776e65722063616e207570646174652063616d706169676e0000600082015250565b6000613623601e83612b8f565b915061362e826135ed565b602082019050919050565b6000602082019050818103600083015261365281613616565b9050919050565b7f43616e6e6f742075706461746520616c7265616479207374617274656420636160008201527f6d706169676e0000000000000000000000000000000000000000000000000000602082015250565b60006136b5602683612b8f565b91506136c082613659565b604082019050919050565b600060208201905081810360008301526136e4816136a8565b9050919050565b600081905092915050565b600081546137038161327c565b61370d81866136eb565b94506001821660008114613728576001811461373e57613771565b60ff198316865281151560200286019350613771565b613747856132ad565b60005b838110156137695781548189015260018201915060208101905061374a565b808801955050505b50505092915050565b600061378683836136f6565b905092915050565b60008160001c9050919050565b6000819050919050565b60006137b86137b38361378e565b61379b565b9050919050565b6137c88161274f565b82525050565b60006137da83836137bf565b60208301905092915050565b600073ffffffffffffffffffffffffffffffffffffffff82169050919050565b60006138196138148361378e565b6137e6565b9050919050565b613829816128be565b82525050565b600061383b8383613820565b60208301905092915050565b6000808301600080840161385b868261377a565b9550506001840154905061386e816137a5565b61387886826137ce565b95505060028401613889868261377a565b9550506003840161389a868261377a565b955050600484016138ab868261377a565b955050600584016138bc868261377a565b955050600684015490506138cf816137a5565b6138d986826137ce565b955050600784015490506138ec81613806565b6138f6868261382f565b955050849250505092915050565b60006139108284613847565b915081905092915050565b600081905092915050565b60006139318261299d565b61393b818561391b565b935061394b8185602086016129b9565b80840191505092915050565b60006139638284613926565b915081905092915050565b7f4f6e6c79206f776e65722063616e2064656c6574652063616d706169676e0000600082015250565b60006139a4601e83612b8f565b91506139af8261396e565b602082019050919050565b600060208201905081810360008301526139d381613997565b9050919050565b60008190508160005260206000209050919050565b600081546139fc8161327c565b613a06818661319b565b94506001821660008114613a215760018114613a3657613a69565b60ff1983168652811515820286019350613a69565b613a3f856139da565b60005b83811015613a6157815481890152600182019150602081019050613a42565b838801955050505b50505092915050565b6000613a7e82846139ef565b915081905092915050565b7f43616e6e6f742064656c6574652063616d706169676e2074686174206861732060008201527f7261697365642066756e64730000000000000000000000000000000000000000602082015250565b6000613ae5602c83612b8f565b9150613af082613a89565b604082019050919050565b60006020820190508181036000830152613b1481613ad8565b9050919050565b7f4e487b7100000000000000000000000000000000000000000000000000000000600052603260045260246000fd5b7f4e487b7100000000000000000000000000000000000000000000000000000000600052601160045260246000fd5b6000613b848261274f565b9150613b8f8361274f565b9250828202613b9d8161274f565b91508282048414831517613bb457613bb3613b4a565b5b5092915050565b6000613bc68261274f565b9150613bd18361274f565b9250828201905080821115613be957613be8613b4a565b5b92915050565b6000613bfa8261274f565b91507fffffffffffffffffffffffffffffffffffffffffffffffffffffffffffffffff8203613c2c57613c2b613b4a565b5b600182019050919050565b6000613c428261274f565b9150613c4d8361274f565b9250828203905081811115613c6557613c64613b4a565b5b92915050565b600081549050613c7a8161327c565b9050919050565b818103613c8f575050613d67565b613c9882613c6b565b67ffffffffffffffff811115613cb157613cb06125db565b5b613cbb825461327c565b613cc68282856133cc565b6000601f831160018114613cf55760008415613ce3578287015490505b613ced858261343d565b865550613d60565b601f198416613d03876132ad565b9650613d0e866132ad565b60005b82811015613d3657848901548255600182019150600185019450602081019050613d11565b86831015613d535784890154613d4f601f89168261341f565b8355505b6001600288020188555050505b5050505050505b565b7f4e487b7100000000000000000000000000000000000000000000000000000000600052603160045260246000fd5b6000613da38261299d565b613dad81856136eb565b9350613dbd8185602086016129b9565b613dc6816125ca565b840191505092915050565b6000613ddd8383613d98565b905092915050565b60008083016000830151613df98582613dd1565b9450506020830151613e0b85826137ce565b9450506040830151613e1d8582613dd1565b9450506060830151613e2f8582613dd1565b9450506080830151613e418582613dd1565b94505060a0830151613e538582613dd1565b94505060c0830151613e6585826137ce565b94505060e0830151613e77858261382f565b9450508391505092915050565b6000613e908284613de5565b915081905092915050565b7f43616d706169676e206e6f7420666f756e640000000000000000000000000000600082015250565b6000613ed1601283612b8f565b9150613edc82613e9b565b602082019050919050565b60006020820190508181036000830152613f0081613ec4565b9050919050565b7f496e76616c6964207469746c652070726f766964656400000000000000000000600082015250565b6000613f3d601683612b8f565b9150613f4882613f07565b602082019050919050565b60006020820190508181036000830152613f6c81613f30565b9050919050565b7f43616d706169676e2066756c6c792066756e6465640000000000000000000000600082015250565b6000613fa9601583612b8f565b9150613fb482613f73565b602082019050919050565b60006020820190508181036000830152613fd881613f9c565b9050919050565b7f4f776e65722063616e6e6f74206261636b20686973206f776e2063616d70616960008201527f676e000000000000000000000000000000000000000000000000000000000000602082015250565b600061403b602283612b8f565b915061404682613fdf565b604082019050919050565b6000602082019050818103600083015261406a8161402e565b9050919050565b7f496e73756666696369656e742062616c616e6365000000000000000000000000600082015250565b60006140a7601483612b8f565b91506140b282614071565b602082019050919050565b600060208201905081810360008301526140d68161409a565b9050919050565b7f4e487b7100000000000000000000000000000000000000000000000000000000600052601260045260246000fd5b60006141178261274f565b91506141228361274f565b925082614132576141316140dd565b5b828204905092915050565b60008083016000830151614151858261382f565b945050602083015161416385826137ce565b94505060408301516141758582613dd1565b9450508391505092915050565b600061418e828461413d565b915081905092915050565b600060208201905081810360008301526141b38184612ba0565b90509291505056fea2646970667358221220f08520015e28ef0f11b00ea49474e8ddf69dc62824f096c7e9545292e28d3e2164736f6c63430008130033",
  "immutableReferences": {},
  "source": "// SPDX-License-Identifier: Ahmed FAST-NU\r\npragma solidity ^0.8.0;\r\n\r\ncontract Nobiety {\r\n    struct Backer{\r\n    address backer;\r\n    uint256 donation;\r\n    string time;\r\n    }\r\n\r\n    struct Campaign{\r\n        string title;\r\n        uint256 amount;\r\n        string date;\r\n        string url;\r\n        string description;\r\n        string status;\r\n        uint256 raisedAmount;\r\n        address owner;\r\n    }\r\n\r\n    Campaign[] public allCampaignList;\r\n    mapping(string=>Backer[]) public backers; //map backer list to title\r\n    mapping(address => uint256) public balances;\r\n\r\n\r\n\r\n        constructor() {\r\n    }\r\n    \r\n    event launchCampagin(Campaign indexed);\r\n    event updateCampagin(Campaign indexed);\r\n    event deleteCampagin(Campaign indexed);\r\n    event backerCampagin(Backer indexed,string);\r\n    event refund(address indexed,uint256,string);\r\n    event fundsSentToOwner(address indexed,uint256,string);\r\n    event withdrawAmount(address indexed,uint256);\r\n\r\n     function getCampaign(string memory _title) internal view returns (Campaign storage) {\r\n        for (uint256 i = 0; i < allCampaignList.length; i++) {\r\n            Campaign storage currentCampaign = allCampaignList[i];\r\n            if (keccak256(bytes(currentCampaign.title)) == keccak256(bytes(_title))) {\r\n                return currentCampaign;\r\n            }\r\n        }\r\n        revert(\"Campaign not found\");\r\n    }\r\n\r\n\r\n\r\n\r\n   function deposit() public payable {\r\n    balances[msg.sender] += msg.value;\r\n    }\r\n\r\n    function getDeposit(address ad) public view returns (uint256){\r\n        return balances[ad];\r\n    }\r\n\r\n    \r\n    function withdrawBalance(uint _amount) public payable {\r\n       require(balances[msg.sender] >= _amount, \"Insufficient balance\");\r\n        balances[msg.sender] -= _amount;\r\n        payable(msg.sender).transfer(_amount);\r\n        emit withdrawAmount(msg.sender, _amount);\r\n    }\r\n\r\n    function backCampaign(string memory _title, uint _donation, string memory _time) public {\r\n    require(isTitleExist(_title) == false, \"Invalid title provided\");\r\n    Campaign storage currentCampaign = getCampaign(_title);\r\n    require(currentCampaign.raisedAmount < currentCampaign.amount, \"Campaign fully funded\");\r\n    require(msg.sender != currentCampaign.owner, \"Owner cannot back his own campaign\");\r\n    require(balances[msg.sender] >= _donation, \"Insufficient balance\");\r\n    uint donationInEther = _donation / 1 ether;\r\n    uint remainingAmount = currentCampaign.amount - currentCampaign.raisedAmount;\r\n    uint donationToAdd = donationInEther < remainingAmount ? donationInEther : remainingAmount;\r\n    currentCampaign.raisedAmount += donationToAdd;\r\n    balances[msg.sender] -= donationToAdd * 1 ether;\r\n\r\n    Backer memory backer = Backer({\r\n        backer: msg.sender,\r\n        donation: donationToAdd,\r\n        time: _time\r\n    });\r\n\r\n    backers[_title].push(backer);\r\n\r\n    if (currentCampaign.raisedAmount == currentCampaign.amount) {\r\n        sendFundsToOwner(_title);\r\n    }\r\n\r\n    emit backerCampagin(backer, _title);\r\n}\r\n    \r\n\r\n    function sendFundsToOwner(string memory _title) public payable {\r\n        Campaign storage currentCampaign = getCampaign(_title);\r\n\r\n        require(currentCampaign.raisedAmount == currentCampaign.amount, \"Campaign not fully funded\");\r\n\r\n        uint256 amountToSend = currentCampaign.raisedAmount;\r\n        address payable owner = payable(currentCampaign.owner);\r\n\r\n        (bool success, ) = owner.call{value: amountToSend}(\"\");\r\n        require(success, \"Transfer failed\");\r\n        currentCampaign.status = \"Raised\";\r\n        emit fundsSentToOwner(owner, amountToSend, _title);\r\n    }\r\n\r\n    function isTitleExist(string memory title) public view  returns(bool) {\r\n     bool flag = true;\r\n     for (uint256 i = 0; i < allCampaignList.length; i++) {\r\n        Campaign storage currentCampaign = allCampaignList[i];\r\n        if (keccak256(bytes(currentCampaign.title)) == keccak256(bytes(title))) {\r\n            flag = false;\r\n            break;\r\n        }\r\n    }\r\n    return flag;\r\n}\r\n\r\n    function retreiveCampaignFromMemory(string memory _title) public view returns (Campaign memory) {\r\n        for (uint256 i = 0; i < allCampaignList.length; i++) {\r\n            Campaign storage currentCampaign = allCampaignList[i];\r\n            if (keccak256(bytes(currentCampaign.title)) == keccak256(bytes(_title))) {\r\n                return currentCampaign;\r\n            }\r\n        }\r\n        revert(\"Campaign not found\");\r\n    }\r\n\r\n\r\n\r\n   function addCampaign(string memory _title, uint256 _amount, string memory _date, string memory _url, string memory _description) public {\r\n        require(isTitleExist(_title),\"Cannot add a campagain with same name\");\r\n        Campaign memory newCampaign = Campaign({\r\n            title: _title,\r\n            amount: _amount,\r\n            date: _date,\r\n            url: _url,\r\n            description: _description,\r\n            status : \"Live\",\r\n            raisedAmount : 0.00,\r\n            owner : msg.sender\r\n        });\r\n       \r\n        allCampaignList.push(newCampaign);\r\n        emit launchCampagin(newCampaign);\r\n    }\r\n\r\n    function updateCampaign(string memory _oldTitle, string memory _title, uint256 _amount, string memory _date, string memory _url, string memory _description) public {\r\n    require(isTitleExist(_title),\"Cannot add a campagain with same name\");\r\n    Campaign storage campaignToUpdate = getCampaign(_oldTitle);\r\n    require(campaignToUpdate.owner == msg.sender, \"Only owner can update campaign\");\r\n    require(campaignToUpdate.raisedAmount== 0 ether, \"Cannot update already started campaign\");\r\n        campaignToUpdate.title = _title;\r\n        campaignToUpdate.amount = _amount;\r\n        campaignToUpdate.date = _date;\r\n        campaignToUpdate.url = _url;\r\n        campaignToUpdate.description = _description;\r\n        emit updateCampagin(campaignToUpdate);\r\n        \r\n    }\r\n\r\n    function deleteCampaign(string memory _title) public payable {\r\n        \r\n        Campaign storage campaignToDelete = getCampaign(_title);\r\n\r\n        require(campaignToDelete.owner == msg.sender, \"Only owner can delete campaign\");\r\n        require(keccak256(bytes(campaignToDelete.status)) != keccak256(bytes(\"Raised\")), \"Cannot delete campaign that has raised funds\");\r\n        Backer[] storage backersToRefund = backers[_title];\r\n        for (uint256 i = 0; i < backersToRefund.length; i++) {\r\n            Backer storage currentBacker = backersToRefund[i];\r\n            balances[currentBacker.backer] += currentBacker.donation * 1 ether;\r\n            emit refund(currentBacker.backer, currentBacker.donation, _title);\r\n        }\r\n        uint256 indexToDelete;\r\n        for (uint256 i = 0; i < allCampaignList.length; i++) {\r\n            Campaign storage currentCampaign = allCampaignList[i];\r\n            if (keccak256(bytes(currentCampaign.title)) == keccak256(bytes(_title))) {\r\n                indexToDelete = i;\r\n                break;\r\n            }\r\n        }\r\n        allCampaignList[indexToDelete] = allCampaignList[allCampaignList.length - 1];\r\n        allCampaignList.pop();\r\n\r\n        emit deleteCampagin(campaignToDelete);\r\n    \r\n    }\r\n\r\n    \r\n    function getBackers(string memory _title) public view returns (Backer[] memory) {\r\n        return backers[_title];\r\n    }\r\n\r\n     function getAllCampaignList() public view returns (Campaign[] memory) {\r\n        uint256 count = 0;\r\n        for (uint256 i = 0; i < allCampaignList.length; i++) {\r\n            if (keccak256(bytes(allCampaignList[i].status)) != keccak256(bytes(\"Deleted\"))) {\r\n                count++;\r\n            }\r\n        }\r\n        Campaign[] memory temp = new Campaign[](count);\r\n         uint256 j = 0;\r\n        for (uint256 i = 0; i < allCampaignList.length; i++) {\r\n            if (keccak256(bytes(allCampaignList[i].status)) != keccak256(bytes(\"Deleted\"))) {\r\n                temp[j] = allCampaignList[i];\r\n                j++;\r\n            }\r\n        }\r\n        return temp;\r\n    }  \r\n\r\n}",
  "sourcePath": "I:\\University Data\\FAST semester work\\Semester 8 work\\Blockchain\\Practice\\crowd_fund\\contracts\\Nobiety.sol",
  "compiler": {
    "name": "solc",
    "version": "0.8.19+commit.7dd6d404.Emscripten.clang"
  },
  "schemaVersion": "3.4.13",
  "updatedAt": "2023-04-22T18:25:29.833Z",
  "networkType": "ethereum",
  "devdoc": {
    "kind": "dev",
    "methods": {},
    "version": 1
  },
  "userdoc": {
    "kind": "user",
    "methods": {},
    "version": 1
  }
}