{
  "contractName": "Nobiety",
  "abi": [
    {
      "inputs": [],
      "stateMutability": "nonpayable",
      "type": "constructor"
    },
    {
      "anonymous": false,
      "inputs": [
        {
          "components": [
            {
              "internalType": "address",
              "name": "backer",
              "type": "address"
            },
            {
              "internalType": "uint256",
              "name": "donation",
              "type": "uint256"
            },
            {
              "internalType": "string",
              "name": "time",
              "type": "string"
            }
          ],
          "indexed": true,
          "internalType": "struct Nobiety.Backer",
          "name": "",
          "type": "tuple"
        },
        {
          "indexed": false,
          "internalType": "string",
          "name": "",
          "type": "string"
        }
      ],
      "name": "backerCampagin",
      "type": "event"
    },
    {
      "anonymous": false,
      "inputs": [
        {
          "components": [
            {
              "internalType": "string",
              "name": "title",
              "type": "string"
            },
            {
              "internalType": "uint256",
              "name": "amount",
              "type": "uint256"
            },
            {
              "internalType": "string",
              "name": "date",
              "type": "string"
            },
            {
              "internalType": "string",
              "name": "url",
              "type": "string"
            },
            {
              "internalType": "string",
              "name": "description",
              "type": "string"
            },
            {
              "internalType": "string",
              "name": "status",
              "type": "string"
            },
            {
              "internalType": "uint256",
              "name": "raisedAmount",
              "type": "uint256"
            },
            {
              "internalType": "address",
              "name": "owner",
              "type": "address"
            }
          ],
          "indexed": true,
          "internalType": "struct Nobiety.Campaign",
          "name": "",
          "type": "tuple"
        }
      ],
      "name": "deleteCampagin",
      "type": "event"
    },
    {
      "anonymous": false,
      "inputs": [
        {
          "indexed": true,
          "internalType": "address",
          "name": "",
          "type": "address"
        },
        {
          "indexed": false,
          "internalType": "uint256",
          "name": "",
          "type": "uint256"
        },
        {
          "indexed": false,
          "internalType": "string",
          "name": "",
          "type": "string"
        }
      ],
      "name": "fundsSentToOwner",
      "type": "event"
    },
    {
      "anonymous": false,
      "inputs": [
        {
          "components": [
            {
              "internalType": "string",
              "name": "title",
              "type": "string"
            },
            {
              "internalType": "uint256",
              "name": "amount",
              "type": "uint256"
            },
            {
              "internalType": "string",
              "name": "date",
              "type": "string"
            },
            {
              "internalType": "string",
              "name": "url",
              "type": "string"
            },
            {
              "internalType": "string",
              "name": "description",
              "type": "string"
            },
            {
              "internalType": "string",
              "name": "status",
              "type": "string"
            },
            {
              "internalType": "uint256",
              "name": "raisedAmount",
              "type": "uint256"
            },
            {
              "internalType": "address",
              "name": "owner",
              "type": "address"
            }
          ],
          "indexed": true,
          "internalType": "struct Nobiety.Campaign",
          "name": "",
          "type": "tuple"
        }
      ],
      "name": "launchCampagin",
      "type": "event"
    },
    {
      "anonymous": false,
      "inputs": [
        {
          "indexed": true,
          "internalType": "address",
          "name": "",
          "type": "address"
        },
        {
          "indexed": false,
          "internalType": "uint256",
          "name": "",
          "type": "uint256"
        },
        {
          "indexed": false,
          "internalType": "string",
          "name": "",
          "type": "string"
        }
      ],
      "name": "refund",
      "type": "event"
    },
    {
      "anonymous": false,
      "inputs": [
        {
          "components": [
            {
              "internalType": "string",
              "name": "title",
              "type": "string"
            },
            {
              "internalType": "uint256",
              "name": "amount",
              "type": "uint256"
            },
            {
              "internalType": "string",
              "name": "date",
              "type": "string"
            },
            {
              "internalType": "string",
              "name": "url",
              "type": "string"
            },
            {
              "internalType": "string",
              "name": "description",
              "type": "string"
            },
            {
              "internalType": "string",
              "name": "status",
              "type": "string"
            },
            {
              "internalType": "uint256",
              "name": "raisedAmount",
              "type": "uint256"
            },
            {
              "internalType": "address",
              "name": "owner",
              "type": "address"
            }
          ],
          "indexed": true,
          "internalType": "struct Nobiety.Campaign",
          "name": "",
          "type": "tuple"
        }
      ],
      "name": "updateCampagin",
      "type": "event"
    },
    {
      "anonymous": false,
      "inputs": [
        {
          "indexed": true,
          "internalType": "address",
          "name": "",
          "type": "address"
        },
        {
          "indexed": false,
          "internalType": "uint256",
          "name": "",
          "type": "uint256"
        }
      ],
      "name": "withdrawAmount",
      "type": "event"
    },
    {
      "inputs": [
        {
          "internalType": "uint256",
          "name": "",
          "type": "uint256"
        }
      ],
      "name": "allCampaignList",
      "outputs": [
        {
          "internalType": "string",
          "name": "title",
          "type": "string"
        },
        {
          "internalType": "uint256",
          "name": "amount",
          "type": "uint256"
        },
        {
          "internalType": "string",
          "name": "date",
          "type": "string"
        },
        {
          "internalType": "string",
          "name": "url",
          "type": "string"
        },
        {
          "internalType": "string",
          "name": "description",
          "type": "string"
        },
        {
          "internalType": "string",
          "name": "status",
          "type": "string"
        },
        {
          "internalType": "uint256",
          "name": "raisedAmount",
          "type": "uint256"
        },
        {
          "internalType": "address",
          "name": "owner",
          "type": "address"
        }
      ],
      "stateMutability": "view",
      "type": "function",
      "constant": true
    },
    {
      "inputs": [
        {
          "internalType": "string",
          "name": "",
          "type": "string"
        },
        {
          "internalType": "uint256",
          "name": "",
          "type": "uint256"
        }
      ],
      "name": "backers",
      "outputs": [
        {
          "internalType": "address",
          "name": "backer",
          "type": "address"
        },
        {
          "internalType": "uint256",
          "name": "donation",
          "type": "uint256"
        },
        {
          "internalType": "string",
          "name": "time",
          "type": "string"
        }
      ],
      "stateMutability": "view",
      "type": "function",
      "constant": true
    },
    {
      "inputs": [
        {
          "internalType": "address",
          "name": "",
          "type": "address"
        }
      ],
      "name": "balances",
      "outputs": [
        {
          "internalType": "uint256",
          "name": "",
          "type": "uint256"
        }
      ],
      "stateMutability": "view",
      "type": "function",
      "constant": true
    },
    {
      "inputs": [],
      "name": "deposit",
      "outputs": [],
      "stateMutability": "payable",
      "type": "function",
      "payable": true
    },
    {
      "inputs": [
        {
          "internalType": "address",
          "name": "ad",
          "type": "address"
        }
      ],
      "name": "getDeposit",
      "outputs": [
        {
          "internalType": "uint256",
          "name": "",
          "type": "uint256"
        }
      ],
      "stateMutability": "view",
      "type": "function",
      "constant": true
    },
    {
      "inputs": [
        {
          "internalType": "uint256",
          "name": "_amount",
          "type": "uint256"
        }
      ],
      "name": "withdrawBalance",
      "outputs": [],
      "stateMutability": "payable",
      "type": "function",
      "payable": true
    },
    {
      "inputs": [
        {
          "internalType": "string",
          "name": "_title",
          "type": "string"
        },
        {
          "internalType": "uint256",
          "name": "_donation",
          "type": "uint256"
        },
        {
          "internalType": "string",
          "name": "_time",
          "type": "string"
        }
      ],
      "name": "backCampaign",
      "outputs": [],
      "stateMutability": "nonpayable",
      "type": "function"
    },
    {
      "inputs": [
        {
          "internalType": "string",
          "name": "_title",
          "type": "string"
        }
      ],
      "name": "sendFundsToOwner",
      "outputs": [],
      "stateMutability": "payable",
      "type": "function",
      "payable": true
    },
    {
      "inputs": [
        {
          "internalType": "string",
          "name": "title",
          "type": "string"
        }
      ],
      "name": "isTitleExist",
      "outputs": [
        {
          "internalType": "bool",
          "name": "",
          "type": "bool"
        }
      ],
      "stateMutability": "view",
      "type": "function",
      "constant": true
    },
    {
      "inputs": [
        {
          "internalType": "string",
          "name": "_title",
          "type": "string"
        }
      ],
      "name": "retreiveCampaignFromMemory",
      "outputs": [
        {
          "components": [
            {
              "internalType": "string",
              "name": "title",
              "type": "string"
            },
            {
              "internalType": "uint256",
              "name": "amount",
              "type": "uint256"
            },
            {
              "internalType": "string",
              "name": "date",
              "type": "string"
            },
            {
              "internalType": "string",
              "name": "url",
              "type": "string"
            },
            {
              "internalType": "string",
              "name": "description",
              "type": "string"
            },
            {
              "internalType": "string",
              "name": "status",
              "type": "string"
            },
            {
              "internalType": "uint256",
              "name": "raisedAmount",
              "type": "uint256"
            },
            {
              "internalType": "address",
              "name": "owner",
              "type": "address"
            }
          ],
          "internalType": "struct Nobiety.Campaign",
          "name": "",
          "type": "tuple"
        }
      ],
      "stateMutability": "view",
      "type": "function",
      "constant": true
    },
    {
      "inputs": [
        {
          "internalType": "string",
          "name": "_title",
          "type": "string"
        },
        {
          "internalType": "uint256",
          "name": "_amount",
          "type": "uint256"
        },
        {
          "internalType": "string",
          "name": "_date",
          "type": "string"
        },
        {
          "internalType": "string",
          "name": "_url",
          "type": "string"
        },
        {
          "internalType": "string",
          "name": "_description",
          "type": "string"
        }
      ],
      "name": "addCampaign",
      "outputs": [],
      "stateMutability": "nonpayable",
      "type": "function"
    },
    {
      "inputs": [
        {
          "internalType": "string",
          "name": "_oldTitle",
          "type": "string"
        },
        {
          "internalType": "string",
          "name": "_title",
          "type": "string"
        },
        {
          "internalType": "uint256",
          "name": "_amount",
          "type": "uint256"
        },
        {
          "internalType": "string",
          "name": "_date",
          "type": "string"
        },
        {
          "internalType": "string",
          "name": "_url",
          "type": "string"
        },
        {
          "internalType": "string",
          "name": "_description",
          "type": "string"
        }
      ],
      "name": "updateCampaign",
      "outputs": [],
      "stateMutability": "nonpayable",
      "type": "function"
    },
    {
      "inputs": [
        {
          "internalType": "string",
          "name": "_title",
          "type": "string"
        }
      ],
      "name": "deleteCampaign",
      "outputs": [],
      "stateMutability": "nonpayable",
      "type": "function"
    },
    {
      "inputs": [
        {
          "internalType": "string",
          "name": "_title",
          "type": "string"
        }
      ],
      "name": "refundCampaign",
      "outputs": [],
      "stateMutability": "payable",
      "type": "function",
      "payable": true
    },
    {
      "inputs": [
        {
          "internalType": "string",
          "name": "_title",
          "type": "string"
        }
      ],
      "name": "getBackers",
      "outputs": [
        {
          "components": [
            {
              "internalType": "address",
              "name": "backer",
              "type": "address"
            },
            {
              "internalType": "uint256",
              "name": "donation",
              "type": "uint256"
            },
            {
              "internalType": "string",
              "name": "time",
              "type": "string"
            }
          ],
          "internalType": "struct Nobiety.Backer[]",
          "name": "",
          "type": "tuple[]"
        }
      ],
      "stateMutability": "view",
      "type": "function",
      "constant": true
    },
    {
      "inputs": [],
      "name": "getAllCampaignList",
      "outputs": [
        {
          "components": [
            {
              "internalType": "string",
              "name": "title",
              "type": "string"
            },
            {
              "internalType": "uint256",
              "name": "amount",
              "type": "uint256"
            },
            {
              "internalType": "string",
              "name": "date",
              "type": "string"
            },
            {
              "internalType": "string",
              "name": "url",
              "type": "string"
            },
            {
              "internalType": "string",
              "name": "description",
              "type": "string"
            },
            {
              "internalType": "string",
              "name": "status",
              "type": "string"
            },
            {
              "internalType": "uint256",
              "name": "raisedAmount",
              "type": "uint256"
            },
            {
              "internalType": "address",
              "name": "owner",
              "type": "address"
            }
          ],
          "internalType": "struct Nobiety.Campaign[]",
          "name": "",
          "type": "tuple[]"
        }
      ],
      "stateMutability": "view",
      "type": "function",
      "constant": true
    }
  ],
  "bytecode": "0x608060405234801561001057600080fd5b50613dc1806100206000396000f3fe6080604052600436106100f35760003560e01c8063a739dbd71161008a578063d0e30db011610059578063d0e30db01461034b578063da76d5cd14610355578063e1254fba14610371578063e1b3727d146103ae576100f3565b8063a739dbd714610264578063ae87732d146102a1578063c178d0c3146102e5578063d0602e6914610322576100f3565b80636b03e1b0116100c65780636b03e1b0146101965780636d25a5f3146101d357806377adfc64146102125780639eb1903b1461023b576100f3565b806306d6f9ac146100f857806308497b631461011457806327e235e31461013d5780632c8182a91461017a575b600080fd5b610112600480360381019061010d9190612593565b6103d9565b005b34801561012057600080fd5b5061013b60048036038101906101369190612612565b6105ac565b005b34801561014957600080fd5b50610164600480360381019061015f9190612789565b610761565b60405161017191906127c5565b60405180910390f35b610194600480360381019061018f9190612593565b610779565b005b3480156101a257600080fd5b506101bd60048036038101906101b89190612593565b6109a0565b6040516101ca919061298f565b60405180910390f35b3480156101df57600080fd5b506101fa60048036038101906101f591906129b1565b610b0f565b60405161020993929190612a66565b60405180910390f35b34801561021e57600080fd5b5061023960048036038101906102349190612593565b610c14565b005b34801561024757600080fd5b50610262600480360381019061025d9190612aa4565b610e15565b005b34801561027057600080fd5b5061028b60048036038101906102869190612593565b611028565b6040516102989190612c5b565b60405180910390f35b3480156102ad57600080fd5b506102c860048036038101906102c39190612c7d565b61143a565b6040516102dc989796959493929190612caa565b60405180910390f35b3480156102f157600080fd5b5061030c60048036038101906103079190612593565b61175a565b6040516103199190612d66565b60405180910390f35b34801561032e57600080fd5b5061034960048036038101906103449190612d81565b6117e4565b005b610353611bbb565b005b61036f600480360381019061036a9190612c7d565b611c13565b005b34801561037d57600080fd5b5061039860048036038101906103939190612789565b611d83565b6040516103a591906127c5565b60405180910390f35b3480156103ba57600080fd5b506103c3611dcc565b6040516103d09190612f9a565b60405180910390f35b60006103e48261231f565b90508060010154816006015414610430576040517f08c379a000000000000000000000000000000000000000000000000000000000815260040161042790613008565b60405180910390fd5b60008160060154905060008260070160009054906101000a900473ffffffffffffffffffffffffffffffffffffffff16905060008173ffffffffffffffffffffffffffffffffffffffff168360405161048890613059565b60006040518083038185875af1925050503d80600081146104c5576040519150601f19603f3d011682016040523d82523d6000602084013e6104ca565b606091505b505090508061050e576040517f08c379a0000000000000000000000000000000000000000000000000000000008152600401610505906130ba565b60405180910390fd5b6040518060400160405280600681526020017f526169736564000000000000000000000000000000000000000000000000000081525084600501908161055491906132e6565b508173ffffffffffffffffffffffffffffffffffffffff167f2465133b67ce24a12ccac4285f1e7a10e405b3bebed013126f6aec55a068c907848760405161059d9291906133b8565b60405180910390a25050505050565b6105b58561175a565b6105f4576040517f08c379a00000000000000000000000000000000000000000000000000000000081526004016105eb9061345a565b60405180910390fd5b60005b6000805490508110156107585760008082815481106106195761061861347a565b5b906000526020600020906008020190508780519060200120816000016040516106429190613541565b60405180910390201480156106a657503373ffffffffffffffffffffffffffffffffffffffff168160070160009054906101000a900473ffffffffffffffffffffffffffffffffffffffff1673ffffffffffffffffffffffffffffffffffffffff16145b1561074457868160000190816106bc91906132e6565b50858160010181905550848160020190816106d791906132e6565b50838160030190816106e991906132e6565b50828160040190816106fb91906132e6565b508060405161070a9190613771565b60405180910390207f210f6ddd741fd33dcd0135e4d6c9f95a217ad64afb0ec8bd2dd4ed09e775325960405160405180910390a250610758565b508080610750906137b7565b9150506105f7565b50505050505050565b60026020528060005260406000206000915090505481565b60006107848261231f565b905060008160060154116107cd576040517f08c379a00000000000000000000000000000000000000000000000000000000081526004016107c49061384b565b60405180910390fd5b60005b6001836040516107e091906138a7565b90815260200160405180910390208054905081101561099b57600060018460405161080b91906138a7565b9081526020016040518091039020828154811061082b5761082a61347a565b5b9060005260206000209060030201905060008160010154905060008260000160009054906101000a900473ffffffffffffffffffffffffffffffffffffffff1690508185600601600082825461088191906138be565b925050819055508073ffffffffffffffffffffffffffffffffffffffff167fb00a96fea3a33bb737e8809e78b80b2cd91f1e938e2e0a33975a8563cbfde51583886040516108d09291906133b8565b60405180910390a260008173ffffffffffffffffffffffffffffffffffffffff16836040516108fe90613059565b60006040518083038185875af1925050503d806000811461093b576040519150601f19603f3d011682016040523d82523d6000602084013e610940565b606091505b5050905080610984576040517f08c379a000000000000000000000000000000000000000000000000000000000815260040161097b906130ba565b60405180910390fd5b505050508080610993906137b7565b9150506107d0565b505050565b60606001826040516109b291906138a7565b9081526020016040518091039020805480602002602001604051908101604052809291908181526020016000905b82821015610b0457838290600052602060002090600302016040518060600160405290816000820160009054906101000a900473ffffffffffffffffffffffffffffffffffffffff1673ffffffffffffffffffffffffffffffffffffffff1673ffffffffffffffffffffffffffffffffffffffff16815260200160018201548152602001600282018054610a7390613109565b80601f0160208091040260200160405190810160405280929190818152602001828054610a9f90613109565b8015610aec5780601f10610ac157610100808354040283529160200191610aec565b820191906000526020600020905b815481529060010190602001808311610acf57829003601f168201915b505050505081525050815260200190600101906109e0565b505050509050919050565b6001828051602081018201805184825260208301602085012081835280955050505050508181548110610b4157600080fd5b9060005260206000209060030201600091509150508060000160009054906101000a900473ffffffffffffffffffffffffffffffffffffffff1690806001015490806002018054610b9190613109565b80601f0160208091040260200160405190810160405280929190818152602001828054610bbd90613109565b8015610c0a5780601f10610bdf57610100808354040283529160200191610c0a565b820191906000526020600020905b815481529060010190602001808311610bed57829003601f168201915b5050505050905083565b60005b600080549050811015610e11576000808281548110610c3957610c3861347a565b5b90600052602060002090600802019050828051906020012081600001604051610c629190613541565b6040518091039020148015610cc657503373ffffffffffffffffffffffffffffffffffffffff168160070160009054906101000a900473ffffffffffffffffffffffffffffffffffffffff1673ffffffffffffffffffffffffffffffffffffffff16145b15610dfd576040518060400160405280600781526020017f44656c6574656400000000000000000000000000000000000000000000000000815250816005019081610d1191906132e6565b50600081600601541115610db557610db4816000018054610d3190613109565b80601f0160208091040260200160405190810160405280929190818152602001828054610d5d90613109565b8015610daa5780601f10610d7f57610100808354040283529160200191610daa565b820191906000526020600020905b815481529060010190602001808311610d8d57829003601f168201915b5050505050610779565b5b80604051610dc39190613771565b60405180910390207f146e77c6f7415b94c0c46c068539ac3e7ef701234955975a6c4b77ae26d66c5160405160405180910390a250610e11565b508080610e09906137b7565b915050610c17565b5050565b610e1e8561175a565b610e5d576040517f08c379a0000000000000000000000000000000000000000000000000000000008152600401610e549061345a565b60405180910390fd5b60006040518061010001604052808781526020018681526020018581526020018481526020018381526020016040518060400160405280600481526020017f4c697665000000000000000000000000000000000000000000000000000000008152508152602001600081526020013373ffffffffffffffffffffffffffffffffffffffff16815250905060008190806001815401808255809150506001900390600052602060002090600802016000909190919091506000820151816000019081610f2891906132e6565b50602082015181600101556040820151816002019081610f4891906132e6565b506060820151816003019081610f5e91906132e6565b506080820151816004019081610f7491906132e6565b5060a0820151816005019081610f8a91906132e6565b5060c0820151816006015560e08201518160070160006101000a81548173ffffffffffffffffffffffffffffffffffffffff021916908373ffffffffffffffffffffffffffffffffffffffff160217905550505080604051610fec91906139de565b60405180910390207f9c2cefb345976953895dc12b445ec5580695c265d6f063c974e1552f310eb2a760405160405180910390a2505050505050565b6110306123de565b60005b6000805490508110156113f95760008082815481106110555761105461347a565b5b9060005260206000209060080201905083805190602001208160000160405161107e9190613541565b6040518091039020036113e55780604051806101000160405290816000820180546110a890613109565b80601f01602080910402602001604051908101604052809291908181526020018280546110d490613109565b80156111215780601f106110f657610100808354040283529160200191611121565b820191906000526020600020905b81548152906001019060200180831161110457829003601f168201915b505050505081526020016001820154815260200160028201805461114490613109565b80601f016020809104026020016040519081016040528092919081815260200182805461117090613109565b80156111bd5780601f10611192576101008083540402835291602001916111bd565b820191906000526020600020905b8154815290600101906020018083116111a057829003601f168201915b505050505081526020016003820180546111d690613109565b80601f016020809104026020016040519081016040528092919081815260200182805461120290613109565b801561124f5780601f106112245761010080835404028352916020019161124f565b820191906000526020600020905b81548152906001019060200180831161123257829003601f168201915b5050505050815260200160048201805461126890613109565b80601f016020809104026020016040519081016040528092919081815260200182805461129490613109565b80156112e15780601f106112b6576101008083540402835291602001916112e1565b820191906000526020600020905b8154815290600101906020018083116112c457829003601f168201915b505050505081526020016005820180546112fa90613109565b80601f016020809104026020016040519081016040528092919081815260200182805461132690613109565b80156113735780601f1061134857610100808354040283529160200191611373565b820191906000526020600020905b81548152906001019060200180831161135657829003601f168201915b50505050508152602001600682015481526020016007820160009054906101000a900473ffffffffffffffffffffffffffffffffffffffff1673ffffffffffffffffffffffffffffffffffffffff1673ffffffffffffffffffffffffffffffffffffffff168152505092505050611435565b5080806113f1906137b7565b915050611033565b506040517f08c379a000000000000000000000000000000000000000000000000000000000815260040161142c90613a41565b60405180910390fd5b919050565b6000818154811061144a57600080fd5b906000526020600020906008020160009150905080600001805461146d90613109565b80601f016020809104026020016040519081016040528092919081815260200182805461149990613109565b80156114e65780601f106114bb576101008083540402835291602001916114e6565b820191906000526020600020905b8154815290600101906020018083116114c957829003601f168201915b50505050509080600101549080600201805461150190613109565b80601f016020809104026020016040519081016040528092919081815260200182805461152d90613109565b801561157a5780601f1061154f5761010080835404028352916020019161157a565b820191906000526020600020905b81548152906001019060200180831161155d57829003601f168201915b50505050509080600301805461158f90613109565b80601f01602080910402602001604051908101604052809291908181526020018280546115bb90613109565b80156116085780601f106115dd57610100808354040283529160200191611608565b820191906000526020600020905b8154815290600101906020018083116115eb57829003601f168201915b50505050509080600401805461161d90613109565b80601f016020809104026020016040519081016040528092919081815260200182805461164990613109565b80156116965780601f1061166b57610100808354040283529160200191611696565b820191906000526020600020905b81548152906001019060200180831161167957829003601f168201915b5050505050908060050180546116ab90613109565b80601f01602080910402602001604051908101604052809291908181526020018280546116d790613109565b80156117245780601f106116f957610100808354040283529160200191611724565b820191906000526020600020905b81548152906001019060200180831161170757829003601f168201915b5050505050908060060154908060070160009054906101000a900473ffffffffffffffffffffffffffffffffffffffff16905088565b6000806001905060005b6000805490508110156117da5760008082815481106117865761178561347a565b5b906000526020600020906008020190508480519060200120816000016040516117af9190613541565b6040518091039020036117c65760009250506117da565b5080806117d2906137b7565b915050611764565b5080915050919050565b600015156117f18461175a565b151514611833576040517f08c379a000000000000000000000000000000000000000000000000000000000815260040161182a90613aad565b60405180910390fd5b600061183e8461231f565b9050806001015481600601541061188a576040517f08c379a000000000000000000000000000000000000000000000000000000000815260040161188190613b19565b60405180910390fd5b8060070160009054906101000a900473ffffffffffffffffffffffffffffffffffffffff1673ffffffffffffffffffffffffffffffffffffffff163373ffffffffffffffffffffffffffffffffffffffff160361191c576040517f08c379a000000000000000000000000000000000000000000000000000000000815260040161191390613bab565b60405180910390fd5b82600260003373ffffffffffffffffffffffffffffffffffffffff1673ffffffffffffffffffffffffffffffffffffffff16815260200190815260200160002054101561199e576040517f08c379a000000000000000000000000000000000000000000000000000000000815260040161199590613c17565b60405180910390fd5b6000670de0b6b3a7640000846119b49190613c66565b90506000826006015483600101546119cc91906138be565b905060008183106119dd57816119df565b825b9050808460060160008282546119f59190613c97565b92505081905550670de0b6b3a764000081611a109190613ccb565b600260003373ffffffffffffffffffffffffffffffffffffffff1673ffffffffffffffffffffffffffffffffffffffff1681526020019081526020016000206000828254611a5e91906138be565b92505081905550600060405180606001604052803373ffffffffffffffffffffffffffffffffffffffff168152602001838152602001878152509050600188604051611aaa91906138a7565b908152602001604051809103902081908060018154018082558091505060019003906000526020600020906003020160009091909190915060008201518160000160006101000a81548173ffffffffffffffffffffffffffffffffffffffff021916908373ffffffffffffffffffffffffffffffffffffffff160217905550602082015181600101556040820151816002019081611b4891906132e6565b5050508460010154856006015403611b6457611b63886103d9565b5b80604051611b729190613d52565b60405180910390207fdec360b0577bfef00e9bd6fc701e8eddf85e1ba47cafba43e8bd3346d6e5f25f89604051611ba99190613d69565b60405180910390a25050505050505050565b34600260003373ffffffffffffffffffffffffffffffffffffffff1673ffffffffffffffffffffffffffffffffffffffff1681526020019081526020016000206000828254611c0a9190613c97565b92505081905550565b80600260003373ffffffffffffffffffffffffffffffffffffffff1673ffffffffffffffffffffffffffffffffffffffff168152602001908152602001600020541015611c95576040517f08c379a0000000000000000000000000000000000000000000000000000000008152600401611c8c90613c17565b60405180910390fd5b80600260003373ffffffffffffffffffffffffffffffffffffffff1673ffffffffffffffffffffffffffffffffffffffff1681526020019081526020016000206000828254611ce491906138be565b925050819055503373ffffffffffffffffffffffffffffffffffffffff166108fc829081150290604051600060405180830381858888f19350505050158015611d31573d6000803e3d6000fd5b503373ffffffffffffffffffffffffffffffffffffffff167f736fe5656fcd35d9d20cbd1c42f7f6256ee31aea93b61054d47141c4927e220a82604051611d7891906127c5565b60405180910390a250565b6000600260008373ffffffffffffffffffffffffffffffffffffffff1673ffffffffffffffffffffffffffffffffffffffff168152602001908152602001600020549050919050565b60606000805b600080549050811015611e7d576040518060400160405280600781526020017f44656c65746564000000000000000000000000000000000000000000000000008152508051906020012060008281548110611e3057611e2f61347a565b5b9060005260206000209060080201600501604051611e4e9190613541565b604051809103902014611e6a578180611e66906137b7565b9250505b8080611e75906137b7565b915050611dd2565b5060008167ffffffffffffffff811115611e9a57611e99612468565b5b604051908082528060200260200182016040528015611ed357816020015b611ec06123de565b815260200190600190039081611eb85790505b5090506000805b600080549050811015612315576040518060400160405280600781526020017f44656c65746564000000000000000000000000000000000000000000000000008152508051906020012060008281548110611f3857611f3761347a565b5b9060005260206000209060080201600501604051611f569190613541565b6040518091039020146123025760008181548110611f7757611f7661347a565b5b906000526020600020906008020160405180610100016040529081600082018054611fa190613109565b80601f0160208091040260200160405190810160405280929190818152602001828054611fcd90613109565b801561201a5780601f10611fef5761010080835404028352916020019161201a565b820191906000526020600020905b815481529060010190602001808311611ffd57829003601f168201915b505050505081526020016001820154815260200160028201805461203d90613109565b80601f016020809104026020016040519081016040528092919081815260200182805461206990613109565b80156120b65780601f1061208b576101008083540402835291602001916120b6565b820191906000526020600020905b81548152906001019060200180831161209957829003601f168201915b505050505081526020016003820180546120cf90613109565b80601f01602080910402602001604051908101604052809291908181526020018280546120fb90613109565b80156121485780601f1061211d57610100808354040283529160200191612148565b820191906000526020600020905b81548152906001019060200180831161212b57829003601f168201915b5050505050815260200160048201805461216190613109565b80601f016020809104026020016040519081016040528092919081815260200182805461218d90613109565b80156121da5780601f106121af576101008083540402835291602001916121da565b820191906000526020600020905b8154815290600101906020018083116121bd57829003601f168201915b505050505081526020016005820180546121f390613109565b80601f016020809104026020016040519081016040528092919081815260200182805461221f90613109565b801561226c5780601f106122415761010080835404028352916020019161226c565b820191906000526020600020905b81548152906001019060200180831161224f57829003601f168201915b50505050508152602001600682015481526020016007820160009054906101000a900473ffffffffffffffffffffffffffffffffffffffff1673ffffffffffffffffffffffffffffffffffffffff1673ffffffffffffffffffffffffffffffffffffffff16815250508383815181106122e8576122e761347a565b5b602002602001018190525081806122fe906137b7565b9250505b808061230d906137b7565b915050611eda565b5081935050505090565b600080600090505b60008054905081101561239d5760008082815481106123495761234861347a565b5b906000526020600020906008020190508380519060200120816000016040516123729190613541565b6040518091039020036123895780925050506123d9565b508080612395906137b7565b915050612327565b506040517f08c379a00000000000000000000000000000000000000000000000000000000081526004016123d090613a41565b60405180910390fd5b919050565b60405180610100016040528060608152602001600081526020016060815260200160608152602001606081526020016060815260200160008152602001600073ffffffffffffffffffffffffffffffffffffffff1681525090565b6000604051905090565b600080fd5b600080fd5b600080fd5b600080fd5b6000601f19601f8301169050919050565b7f4e487b7100000000000000000000000000000000000000000000000000000000600052604160045260246000fd5b6124a082612457565b810181811067ffffffffffffffff821117156124bf576124be612468565b5b80604052505050565b60006124d2612439565b90506124de8282612497565b919050565b600067ffffffffffffffff8211156124fe576124fd612468565b5b61250782612457565b9050602081019050919050565b82818337600083830152505050565b6000612536612531846124e3565b6124c8565b90508281526020810184848401111561255257612551612452565b5b61255d848285612514565b509392505050565b600082601f83011261257a5761257961244d565b5b813561258a848260208601612523565b91505092915050565b6000602082840312156125a9576125a8612443565b5b600082013567ffffffffffffffff8111156125c7576125c6612448565b5b6125d384828501612565565b91505092915050565b6000819050919050565b6125ef816125dc565b81146125fa57600080fd5b50565b60008135905061260c816125e6565b92915050565b60008060008060008060c0878903121561262f5761262e612443565b5b600087013567ffffffffffffffff81111561264d5761264c612448565b5b61265989828a01612565565b965050602087013567ffffffffffffffff81111561267a57612679612448565b5b61268689828a01612565565b955050604061269789828a016125fd565b945050606087013567ffffffffffffffff8111156126b8576126b7612448565b5b6126c489828a01612565565b935050608087013567ffffffffffffffff8111156126e5576126e4612448565b5b6126f189828a01612565565b92505060a087013567ffffffffffffffff81111561271257612711612448565b5b61271e89828a01612565565b9150509295509295509295565b600073ffffffffffffffffffffffffffffffffffffffff82169050919050565b60006127568261272b565b9050919050565b6127668161274b565b811461277157600080fd5b50565b6000813590506127838161275d565b92915050565b60006020828403121561279f5761279e612443565b5b60006127ad84828501612774565b91505092915050565b6127bf816125dc565b82525050565b60006020820190506127da60008301846127b6565b92915050565b600081519050919050565b600082825260208201905092915050565b6000819050602082019050919050565b6128158161274b565b82525050565b612824816125dc565b82525050565b600081519050919050565b600082825260208201905092915050565b60005b83811015612864578082015181840152602081019050612849565b60008484015250505050565b600061287b8261282a565b6128858185612835565b9350612895818560208601612846565b61289e81612457565b840191505092915050565b60006060830160008301516128c1600086018261280c565b5060208301516128d4602086018261281b565b50604083015184820360408601526128ec8282612870565b9150508091505092915050565b600061290583836128a9565b905092915050565b6000602082019050919050565b6000612925826127e0565b61292f81856127eb565b935083602082028501612941856127fc565b8060005b8581101561297d578484038952815161295e85826128f9565b94506129698361290d565b925060208a01995050600181019050612945565b50829750879550505050505092915050565b600060208201905081810360008301526129a9818461291a565b905092915050565b600080604083850312156129c8576129c7612443565b5b600083013567ffffffffffffffff8111156129e6576129e5612448565b5b6129f285828601612565565b9250506020612a03858286016125fd565b9150509250929050565b612a168161274b565b82525050565b600082825260208201905092915050565b6000612a388261282a565b612a428185612a1c565b9350612a52818560208601612846565b612a5b81612457565b840191505092915050565b6000606082019050612a7b6000830186612a0d565b612a8860208301856127b6565b8181036040830152612a9a8184612a2d565b9050949350505050565b600080600080600060a08688031215612ac057612abf612443565b5b600086013567ffffffffffffffff811115612ade57612add612448565b5b612aea88828901612565565b9550506020612afb888289016125fd565b945050604086013567ffffffffffffffff811115612b1c57612b1b612448565b5b612b2888828901612565565b935050606086013567ffffffffffffffff811115612b4957612b48612448565b5b612b5588828901612565565b925050608086013567ffffffffffffffff811115612b7657612b75612448565b5b612b8288828901612565565b9150509295509295909350565b6000610100830160008301518482036000860152612bad8282612870565b9150506020830151612bc2602086018261281b565b5060408301518482036040860152612bda8282612870565b91505060608301518482036060860152612bf48282612870565b91505060808301518482036080860152612c0e8282612870565b91505060a083015184820360a0860152612c288282612870565b91505060c0830151612c3d60c086018261281b565b5060e0830151612c5060e086018261280c565b508091505092915050565b60006020820190508181036000830152612c758184612b8f565b905092915050565b600060208284031215612c9357612c92612443565b5b6000612ca1848285016125fd565b91505092915050565b6000610100820190508181036000830152612cc5818b612a2d565b9050612cd4602083018a6127b6565b8181036040830152612ce68189612a2d565b90508181036060830152612cfa8188612a2d565b90508181036080830152612d0e8187612a2d565b905081810360a0830152612d228186612a2d565b9050612d3160c08301856127b6565b612d3e60e0830184612a0d565b9998505050505050505050565b60008115159050919050565b612d6081612d4b565b82525050565b6000602082019050612d7b6000830184612d57565b92915050565b600080600060608486031215612d9a57612d99612443565b5b600084013567ffffffffffffffff811115612db857612db7612448565b5b612dc486828701612565565b9350506020612dd5868287016125fd565b925050604084013567ffffffffffffffff811115612df657612df5612448565b5b612e0286828701612565565b9150509250925092565b600081519050919050565b600082825260208201905092915050565b6000819050602082019050919050565b6000610100830160008301518482036000860152612e568282612870565b9150506020830151612e6b602086018261281b565b5060408301518482036040860152612e838282612870565b91505060608301518482036060860152612e9d8282612870565b91505060808301518482036080860152612eb78282612870565b91505060a083015184820360a0860152612ed18282612870565b91505060c0830151612ee660c086018261281b565b5060e0830151612ef960e086018261280c565b508091505092915050565b6000612f108383612e38565b905092915050565b6000602082019050919050565b6000612f3082612e0c565b612f3a8185612e17565b935083602082028501612f4c85612e28565b8060005b85811015612f885784840389528151612f698582612f04565b9450612f7483612f18565b925060208a01995050600181019050612f50565b50829750879550505050505092915050565b60006020820190508181036000830152612fb48184612f25565b905092915050565b7f43616d706169676e206e6f742066756c6c792066756e64656400000000000000600082015250565b6000612ff2601983612a1c565b9150612ffd82612fbc565b602082019050919050565b6000602082019050818103600083015261302181612fe5565b9050919050565b600081905092915050565b50565b6000613043600083613028565b915061304e82613033565b600082019050919050565b600061306482613036565b9150819050919050565b7f5472616e73666572206661696c65640000000000000000000000000000000000600082015250565b60006130a4600f83612a1c565b91506130af8261306e565b602082019050919050565b600060208201905081810360008301526130d381613097565b9050919050565b7f4e487b7100000000000000000000000000000000000000000000000000000000600052602260045260246000fd5b6000600282049050600182168061312157607f821691505b602082108103613134576131336130da565b5b50919050565b60008190508160005260206000209050919050565b60006020601f8301049050919050565b600082821b905092915050565b60006008830261319c7fffffffffffffffffffffffffffffffffffffffffffffffffffffffffffffffff8261315f565b6131a6868361315f565b95508019841693508086168417925050509392505050565b6000819050919050565b60006131e36131de6131d9846125dc565b6131be565b6125dc565b9050919050565b6000819050919050565b6131fd836131c8565b613211613209826131ea565b84845461316c565b825550505050565b600090565b613226613219565b6132318184846131f4565b505050565b5b818110156132555761324a60008261321e565b600181019050613237565b5050565b601f82111561329a5761326b8161313a565b6132748461314f565b81016020851015613283578190505b61329761328f8561314f565b830182613236565b50505b505050565b600082821c905092915050565b60006132bd6000198460080261329f565b1980831691505092915050565b60006132d683836132ac565b9150826002028217905092915050565b6132ef8261282a565b67ffffffffffffffff81111561330857613307612468565b5b6133128254613109565b61331d828285613259565b600060209050601f831160018114613350576000841561333e578287015190505b61334885826132ca565b8655506133b0565b601f19841661335e8661313a565b60005b8281101561338657848901518255600182019150602085019450602081019050613361565b868310156133a3578489015161339f601f8916826132ac565b8355505b6001600288020188555050505b505050505050565b60006040820190506133cd60008301856127b6565b81810360208301526133df8184612a2d565b90509392505050565b7f43616e6e6f742061646420612063616d70616761696e20776974682073616d6560008201527f206e616d65000000000000000000000000000000000000000000000000000000602082015250565b6000613444602583612a1c565b915061344f826133e8565b604082019050919050565b6000602082019050818103600083015261347381613437565b9050919050565b7f4e487b7100000000000000000000000000000000000000000000000000000000600052603260045260246000fd5b60008190508160005260206000209050919050565b600081546134cb81613109565b6134d58186613028565b945060018216600081146134f0576001811461350557613538565b60ff1983168652811515820286019350613538565b61350e856134a9565b60005b8381101561353057815481890152600182019150602081019050613511565b838801955050505b50505092915050565b600061354d82846134be565b915081905092915050565b600081905092915050565b6000815461357081613109565b61357a8186613558565b9450600182166000811461359557600181146135ab576135de565b60ff1983168652811515602002860193506135de565b6135b48561313a565b60005b838110156135d6578154818901526001820191506020810190506135b7565b808801955050505b50505092915050565b60006135f38383613563565b905092915050565b60008160001c9050919050565b6000819050919050565b6000613625613620836135fb565b613608565b9050919050565b613635816125dc565b82525050565b6000613647838361362c565b60208301905092915050565b600073ffffffffffffffffffffffffffffffffffffffff82169050919050565b6000613686613681836135fb565b613653565b9050919050565b6136968161274b565b82525050565b60006136a8838361368d565b60208301905092915050565b600080830160008084016136c886826135e7565b955050600184015490506136db81613612565b6136e5868261363b565b955050600284016136f686826135e7565b9550506003840161370786826135e7565b9550506004840161371886826135e7565b9550506005840161372986826135e7565b9550506006840154905061373c81613612565b613746868261363b565b9550506007840154905061375981613673565b613763868261369c565b955050849250505092915050565b600061377d82846136b4565b915081905092915050565b7f4e487b7100000000000000000000000000000000000000000000000000000000600052601160045260246000fd5b60006137c2826125dc565b91507fffffffffffffffffffffffffffffffffffffffffffffffffffffffffffffffff82036137f4576137f3613788565b5b600182019050919050565b7f4e6f2066756e6473207261697365640000000000000000000000000000000000600082015250565b6000613835600f83612a1c565b9150613840826137ff565b602082019050919050565b6000602082019050818103600083015261386481613828565b9050919050565b600081905092915050565b60006138818261282a565b61388b818561386b565b935061389b818560208601612846565b80840191505092915050565b60006138b38284613876565b915081905092915050565b60006138c9826125dc565b91506138d4836125dc565b92508282039050818111156138ec576138eb613788565b5b92915050565b60006138fd8261282a565b6139078185613558565b9350613917818560208601612846565b61392081612457565b840191505092915050565b600061393783836138f2565b905092915050565b60008083016000830151613953858261392b565b9450506020830151613965858261363b565b9450506040830151613977858261392b565b9450506060830151613989858261392b565b945050608083015161399b858261392b565b94505060a08301516139ad858261392b565b94505060c08301516139bf858261363b565b94505060e08301516139d1858261369c565b9450508391505092915050565b60006139ea828461393f565b915081905092915050565b7f43616d706169676e206e6f7420666f756e640000000000000000000000000000600082015250565b6000613a2b601283612a1c565b9150613a36826139f5565b602082019050919050565b60006020820190508181036000830152613a5a81613a1e565b9050919050565b7f496e76616c6964207469746c652070726f766964656400000000000000000000600082015250565b6000613a97601683612a1c565b9150613aa282613a61565b602082019050919050565b60006020820190508181036000830152613ac681613a8a565b9050919050565b7f43616d706169676e2066756c6c792066756e6465640000000000000000000000600082015250565b6000613b03601583612a1c565b9150613b0e82613acd565b602082019050919050565b60006020820190508181036000830152613b3281613af6565b9050919050565b7f4f776e65722063616e6e6f74206261636b20686973206f776e2063616d70616960008201527f676e000000000000000000000000000000000000000000000000000000000000602082015250565b6000613b95602283612a1c565b9150613ba082613b39565b604082019050919050565b60006020820190508181036000830152613bc481613b88565b9050919050565b7f496e73756666696369656e742062616c616e6365000000000000000000000000600082015250565b6000613c01601483612a1c565b9150613c0c82613bcb565b602082019050919050565b60006020820190508181036000830152613c3081613bf4565b9050919050565b7f4e487b7100000000000000000000000000000000000000000000000000000000600052601260045260246000fd5b6000613c71826125dc565b9150613c7c836125dc565b925082613c8c57613c8b613c37565b5b828204905092915050565b6000613ca2826125dc565b9150613cad836125dc565b9250828201905080821115613cc557613cc4613788565b5b92915050565b6000613cd6826125dc565b9150613ce1836125dc565b9250828202613cef816125dc565b91508282048414831517613d0657613d05613788565b5b5092915050565b60008083016000830151613d21858261369c565b9450506020830151613d33858261363b565b9450506040830151613d45858261392b565b9450508391505092915050565b6000613d5e8284613d0d565b915081905092915050565b60006020820190508181036000830152613d838184612a2d565b90509291505056fea264697066735822122027849e56f4520f350e7cf2bc03ee532fb95647041a3dc11423e7ac528f349e1a64736f6c63430008130033",
  "immutableReferences": {},
  "source": "// SPDX-License-Identifier: Ahmed FAST-NU\r\npragma solidity ^0.8.0;\r\n\r\ncontract Nobiety {\r\n    struct Backer{\r\n    address backer;\r\n    uint256 donation;\r\n    string time;\r\n    }\r\n\r\n    struct Campaign{\r\n        string title;\r\n        uint256 amount;\r\n        string date;\r\n        string url;\r\n        string description;\r\n        string status;\r\n        uint256 raisedAmount;\r\n        address owner;\r\n    }\r\n\r\n    Campaign[] public allCampaignList;\r\n    mapping(string=>Backer[]) public backers; //map backer list to title\r\n    mapping(address => uint256) public balances;\r\n\r\n\r\n\r\n        constructor() {\r\n    }\r\n    \r\n    event launchCampagin(Campaign indexed);\r\n    event updateCampagin(Campaign indexed);\r\n    event deleteCampagin(Campaign indexed);\r\n    event backerCampagin(Backer indexed,string);\r\n    event refund(address indexed,uint256,string);\r\n    event fundsSentToOwner(address indexed,uint256,string);\r\n    event withdrawAmount(address indexed,uint256);\r\n\r\n     function getCampaign(string memory _title) internal view returns (Campaign storage) {\r\n        for (uint256 i = 0; i < allCampaignList.length; i++) {\r\n            Campaign storage currentCampaign = allCampaignList[i];\r\n            if (keccak256(bytes(currentCampaign.title)) == keccak256(bytes(_title))) {\r\n                return currentCampaign;\r\n            }\r\n        }\r\n        revert(\"Campaign not found\");\r\n    }\r\n\r\n\r\n\r\n\r\n   function deposit() public payable {\r\n    balances[msg.sender] += msg.value;\r\n    }\r\n\r\n    function getDeposit(address ad) public view returns (uint256){\r\n        return balances[ad];\r\n    }\r\n\r\n    \r\n    function withdrawBalance(uint _amount) public payable {\r\n       require(balances[msg.sender] >= _amount, \"Insufficient balance\");\r\n        balances[msg.sender] -= _amount;\r\n        payable(msg.sender).transfer(_amount);\r\n        emit withdrawAmount(msg.sender, _amount);\r\n    }\r\n\r\n    function backCampaign(string memory _title, uint _donation, string memory _time) public {\r\n    require(isTitleExist(_title) == false, \"Invalid title provided\");\r\n    Campaign storage currentCampaign = getCampaign(_title);\r\n    require(currentCampaign.raisedAmount < currentCampaign.amount, \"Campaign fully funded\");\r\n    require(msg.sender != currentCampaign.owner, \"Owner cannot back his own campaign\");\r\n    require(balances[msg.sender] >= _donation, \"Insufficient balance\");\r\n    uint donationInEther = _donation / 1 ether;\r\n    uint remainingAmount = currentCampaign.amount - currentCampaign.raisedAmount;\r\n    uint donationToAdd = donationInEther < remainingAmount ? donationInEther : remainingAmount;\r\n    currentCampaign.raisedAmount += donationToAdd;\r\n    balances[msg.sender] -= donationToAdd * 1 ether;\r\n\r\n    Backer memory backer = Backer({\r\n        backer: msg.sender,\r\n        donation: donationToAdd,\r\n        time: _time\r\n    });\r\n\r\n    backers[_title].push(backer);\r\n\r\n    if (currentCampaign.raisedAmount == currentCampaign.amount) {\r\n        sendFundsToOwner(_title);\r\n    }\r\n\r\n    emit backerCampagin(backer, _title);\r\n}\r\n    \r\n\r\n    function sendFundsToOwner(string memory _title) public payable {\r\n        Campaign storage currentCampaign = getCampaign(_title);\r\n\r\n        require(currentCampaign.raisedAmount == currentCampaign.amount, \"Campaign not fully funded\");\r\n\r\n        uint256 amountToSend = currentCampaign.raisedAmount;\r\n        address payable owner = payable(currentCampaign.owner);\r\n\r\n        (bool success, ) = owner.call{value: amountToSend}(\"\");\r\n        require(success, \"Transfer failed\");\r\n        currentCampaign.status = \"Raised\";\r\n        emit fundsSentToOwner(owner, amountToSend, _title);\r\n    }\r\n\r\n    function isTitleExist(string memory title) public view  returns(bool) {\r\n     bool flag = true;\r\n     for (uint256 i = 0; i < allCampaignList.length; i++) {\r\n        Campaign storage currentCampaign = allCampaignList[i];\r\n        if (keccak256(bytes(currentCampaign.title)) == keccak256(bytes(title))) {\r\n            flag = false;\r\n            break;\r\n        }\r\n    }\r\n    return flag;\r\n}\r\n\r\n    function retreiveCampaignFromMemory(string memory _title) public view returns (Campaign memory) {\r\n        for (uint256 i = 0; i < allCampaignList.length; i++) {\r\n            Campaign storage currentCampaign = allCampaignList[i];\r\n            if (keccak256(bytes(currentCampaign.title)) == keccak256(bytes(_title))) {\r\n                return currentCampaign;\r\n            }\r\n        }\r\n        revert(\"Campaign not found\");\r\n    }\r\n\r\n\r\n\r\n   function addCampaign(string memory _title, uint256 _amount, string memory _date, string memory _url, string memory _description) public {\r\n        require(isTitleExist(_title),\"Cannot add a campagain with same name\");\r\n        Campaign memory newCampaign = Campaign({\r\n            title: _title,\r\n            amount: _amount,\r\n            date: _date,\r\n            url: _url,\r\n            description: _description,\r\n            status : \"Live\",\r\n            raisedAmount : 0.00,\r\n            owner : msg.sender\r\n        });\r\n       \r\n        allCampaignList.push(newCampaign);\r\n        emit launchCampagin(newCampaign);\r\n    }\r\n\r\n    function updateCampaign(string memory _oldTitle, string memory _title, uint256 _amount, string memory _date, string memory _url, string memory _description) public {\r\n    require(isTitleExist(_title),\"Cannot add a campagain with same name\");\r\n    for (uint256 i = 0; i < allCampaignList.length; i++) {\r\n        Campaign storage currentCampaign = allCampaignList[i];\r\n        if (keccak256(bytes(currentCampaign.title)) == keccak256(bytes(_oldTitle)) && currentCampaign.owner == msg.sender) {\r\n            currentCampaign.title = _title;\r\n            currentCampaign.amount = _amount;\r\n            currentCampaign.date = _date;\r\n            currentCampaign.url = _url;\r\n            currentCampaign.description = _description;\r\n            emit updateCampagin(currentCampaign);\r\n            break;\r\n        }\r\n    }\r\n    }\r\n\r\n    function deleteCampaign(string memory _title) public {\r\n        \r\n    for (uint256 i = 0; i < allCampaignList.length; i++) {\r\n        Campaign storage currentCampaign = allCampaignList[i];\r\n        if (keccak256(bytes(currentCampaign.title)) == keccak256(bytes(_title)) && currentCampaign.owner == msg.sender) {\r\n          currentCampaign.status = \"Deleted\";\r\n          if(currentCampaign.raisedAmount>0){\r\n                refundCampaign(currentCampaign.title);\r\n          }\r\n          emit deleteCampagin(currentCampaign);\r\n          break;\r\n        }\r\n    }\r\n    }\r\n\r\n    function refundCampaign(string memory _title) public payable {\r\n        Campaign storage currentCampaign = getCampaign(_title);\r\n\r\n        require(currentCampaign.raisedAmount > 0, \"No funds raised\");\r\n\r\n        for (uint256 i = 0; i < backers[_title].length; i++) {\r\n            Backer storage currentBacker = backers[_title][i];\r\n            uint256 donation = currentBacker.donation;\r\n            address payable backer = payable(currentBacker.backer);\r\n\r\n           // balances[backer] += donation;\r\n            currentCampaign.raisedAmount -= donation;\r\n\r\n            emit refund(backer, donation, _title);\r\n            \r\n            (bool success, ) = backer.call{value: donation}(\"\");\r\n            require(success, \"Transfer failed\");\r\n        }\r\n    }\r\n    \r\n    function getBackers(string memory _title) public view returns (Backer[] memory) {\r\n        return backers[_title];\r\n    }\r\n\r\n     function getAllCampaignList() public view returns (Campaign[] memory) {\r\n        uint256 count = 0;\r\n        for (uint256 i = 0; i < allCampaignList.length; i++) {\r\n            if (keccak256(bytes(allCampaignList[i].status)) != keccak256(bytes(\"Deleted\"))) {\r\n                count++;\r\n            }\r\n        }\r\n        Campaign[] memory temp = new Campaign[](count);\r\n         uint256 j = 0;\r\n        for (uint256 i = 0; i < allCampaignList.length; i++) {\r\n            if (keccak256(bytes(allCampaignList[i].status)) != keccak256(bytes(\"Deleted\"))) {\r\n                temp[j] = allCampaignList[i];\r\n                j++;\r\n            }\r\n        }\r\n        return temp;\r\n    }  \r\n\r\n}",
  "sourcePath": "I:\\University Data\\FAST semester work\\Semester 8 work\\Blockchain\\Practice\\crowd_fund\\contracts\\Nobiety.sol",
  "compiler": {
    "name": "solc",
    "version": "0.8.19+commit.7dd6d404.Emscripten.clang"
  },
  "schemaVersion": "3.4.13",
  "updatedAt": "2023-04-22T14:08:22.831Z",
  "networkType": "ethereum",
  "devdoc": {
    "kind": "dev",
    "methods": {},
    "version": 1
  },
  "userdoc": {
    "kind": "user",
    "methods": {},
    "version": 1
  }
}