{
  "contractName": "Nobiety",
  "abi": [
    {
      "inputs": [],
      "stateMutability": "nonpayable",
      "type": "constructor"
    },
    {
      "anonymous": false,
      "inputs": [
        {
          "components": [
            {
              "internalType": "address",
              "name": "backer",
              "type": "address"
            },
            {
              "internalType": "uint256",
              "name": "donation",
              "type": "uint256"
            },
            {
              "internalType": "string",
              "name": "time",
              "type": "string"
            }
          ],
          "indexed": true,
          "internalType": "struct Nobiety.Backer",
          "name": "",
          "type": "tuple"
        },
        {
          "indexed": false,
          "internalType": "string",
          "name": "",
          "type": "string"
        }
      ],
      "name": "backerCampagin",
      "type": "event"
    },
    {
      "anonymous": false,
      "inputs": [
        {
          "components": [
            {
              "internalType": "string",
              "name": "title",
              "type": "string"
            },
            {
              "internalType": "uint256",
              "name": "amount",
              "type": "uint256"
            },
            {
              "internalType": "string",
              "name": "date",
              "type": "string"
            },
            {
              "internalType": "string",
              "name": "url",
              "type": "string"
            },
            {
              "internalType": "string",
              "name": "description",
              "type": "string"
            },
            {
              "internalType": "string",
              "name": "status",
              "type": "string"
            },
            {
              "internalType": "uint256",
              "name": "raisedAmount",
              "type": "uint256"
            },
            {
              "internalType": "address",
              "name": "owner",
              "type": "address"
            }
          ],
          "indexed": true,
          "internalType": "struct Nobiety.Campaign",
          "name": "",
          "type": "tuple"
        }
      ],
      "name": "deleteCampagin",
      "type": "event"
    },
    {
      "anonymous": false,
      "inputs": [
        {
          "indexed": true,
          "internalType": "address",
          "name": "",
          "type": "address"
        },
        {
          "indexed": false,
          "internalType": "uint256",
          "name": "",
          "type": "uint256"
        },
        {
          "indexed": false,
          "internalType": "string",
          "name": "",
          "type": "string"
        }
      ],
      "name": "fundsSentToOwner",
      "type": "event"
    },
    {
      "anonymous": false,
      "inputs": [
        {
          "components": [
            {
              "internalType": "string",
              "name": "title",
              "type": "string"
            },
            {
              "internalType": "uint256",
              "name": "amount",
              "type": "uint256"
            },
            {
              "internalType": "string",
              "name": "date",
              "type": "string"
            },
            {
              "internalType": "string",
              "name": "url",
              "type": "string"
            },
            {
              "internalType": "string",
              "name": "description",
              "type": "string"
            },
            {
              "internalType": "string",
              "name": "status",
              "type": "string"
            },
            {
              "internalType": "uint256",
              "name": "raisedAmount",
              "type": "uint256"
            },
            {
              "internalType": "address",
              "name": "owner",
              "type": "address"
            }
          ],
          "indexed": true,
          "internalType": "struct Nobiety.Campaign",
          "name": "",
          "type": "tuple"
        }
      ],
      "name": "launchCampagin",
      "type": "event"
    },
    {
      "anonymous": false,
      "inputs": [
        {
          "indexed": true,
          "internalType": "address",
          "name": "",
          "type": "address"
        },
        {
          "indexed": false,
          "internalType": "uint256",
          "name": "",
          "type": "uint256"
        },
        {
          "indexed": false,
          "internalType": "string",
          "name": "",
          "type": "string"
        }
      ],
      "name": "refund",
      "type": "event"
    },
    {
      "anonymous": false,
      "inputs": [
        {
          "components": [
            {
              "internalType": "string",
              "name": "title",
              "type": "string"
            },
            {
              "internalType": "uint256",
              "name": "amount",
              "type": "uint256"
            },
            {
              "internalType": "string",
              "name": "date",
              "type": "string"
            },
            {
              "internalType": "string",
              "name": "url",
              "type": "string"
            },
            {
              "internalType": "string",
              "name": "description",
              "type": "string"
            },
            {
              "internalType": "string",
              "name": "status",
              "type": "string"
            },
            {
              "internalType": "uint256",
              "name": "raisedAmount",
              "type": "uint256"
            },
            {
              "internalType": "address",
              "name": "owner",
              "type": "address"
            }
          ],
          "indexed": true,
          "internalType": "struct Nobiety.Campaign",
          "name": "",
          "type": "tuple"
        }
      ],
      "name": "updateCampagin",
      "type": "event"
    },
    {
      "anonymous": false,
      "inputs": [
        {
          "indexed": true,
          "internalType": "address",
          "name": "",
          "type": "address"
        },
        {
          "indexed": false,
          "internalType": "uint256",
          "name": "",
          "type": "uint256"
        }
      ],
      "name": "withdrawAmount",
      "type": "event"
    },
    {
      "inputs": [
        {
          "internalType": "uint256",
          "name": "",
          "type": "uint256"
        }
      ],
      "name": "allCampaignList",
      "outputs": [
        {
          "internalType": "string",
          "name": "title",
          "type": "string"
        },
        {
          "internalType": "uint256",
          "name": "amount",
          "type": "uint256"
        },
        {
          "internalType": "string",
          "name": "date",
          "type": "string"
        },
        {
          "internalType": "string",
          "name": "url",
          "type": "string"
        },
        {
          "internalType": "string",
          "name": "description",
          "type": "string"
        },
        {
          "internalType": "string",
          "name": "status",
          "type": "string"
        },
        {
          "internalType": "uint256",
          "name": "raisedAmount",
          "type": "uint256"
        },
        {
          "internalType": "address",
          "name": "owner",
          "type": "address"
        }
      ],
      "stateMutability": "view",
      "type": "function",
      "constant": true
    },
    {
      "inputs": [
        {
          "internalType": "string",
          "name": "",
          "type": "string"
        },
        {
          "internalType": "uint256",
          "name": "",
          "type": "uint256"
        }
      ],
      "name": "backers",
      "outputs": [
        {
          "internalType": "address",
          "name": "backer",
          "type": "address"
        },
        {
          "internalType": "uint256",
          "name": "donation",
          "type": "uint256"
        },
        {
          "internalType": "string",
          "name": "time",
          "type": "string"
        }
      ],
      "stateMutability": "view",
      "type": "function",
      "constant": true
    },
    {
      "inputs": [
        {
          "internalType": "address",
          "name": "",
          "type": "address"
        }
      ],
      "name": "balances",
      "outputs": [
        {
          "internalType": "uint256",
          "name": "",
          "type": "uint256"
        }
      ],
      "stateMutability": "view",
      "type": "function",
      "constant": true
    },
    {
      "inputs": [],
      "name": "deposit",
      "outputs": [],
      "stateMutability": "payable",
      "type": "function",
      "payable": true
    },
    {
      "inputs": [
        {
          "internalType": "address",
          "name": "ad",
          "type": "address"
        }
      ],
      "name": "getDeposit",
      "outputs": [
        {
          "internalType": "uint256",
          "name": "",
          "type": "uint256"
        }
      ],
      "stateMutability": "view",
      "type": "function",
      "constant": true
    },
    {
      "inputs": [
        {
          "internalType": "uint256",
          "name": "_amount",
          "type": "uint256"
        }
      ],
      "name": "withdrawBalance",
      "outputs": [],
      "stateMutability": "payable",
      "type": "function",
      "payable": true
    },
    {
      "inputs": [
        {
          "internalType": "string",
          "name": "_title",
          "type": "string"
        },
        {
          "internalType": "uint256",
          "name": "_donation",
          "type": "uint256"
        },
        {
          "internalType": "string",
          "name": "_time",
          "type": "string"
        }
      ],
      "name": "backCampaign",
      "outputs": [],
      "stateMutability": "payable",
      "type": "function",
      "payable": true
    },
    {
      "inputs": [
        {
          "internalType": "string",
          "name": "_title",
          "type": "string"
        }
      ],
      "name": "sendFundsToOwner",
      "outputs": [],
      "stateMutability": "payable",
      "type": "function",
      "payable": true
    },
    {
      "inputs": [
        {
          "internalType": "string",
          "name": "title",
          "type": "string"
        }
      ],
      "name": "isTitleExist",
      "outputs": [
        {
          "internalType": "bool",
          "name": "",
          "type": "bool"
        }
      ],
      "stateMutability": "view",
      "type": "function",
      "constant": true
    },
    {
      "inputs": [
        {
          "internalType": "string",
          "name": "_title",
          "type": "string"
        },
        {
          "internalType": "uint256",
          "name": "_amount",
          "type": "uint256"
        },
        {
          "internalType": "string",
          "name": "_date",
          "type": "string"
        },
        {
          "internalType": "string",
          "name": "_url",
          "type": "string"
        },
        {
          "internalType": "string",
          "name": "_description",
          "type": "string"
        }
      ],
      "name": "addCampaign",
      "outputs": [],
      "stateMutability": "nonpayable",
      "type": "function"
    },
    {
      "inputs": [
        {
          "internalType": "string",
          "name": "_oldTitle",
          "type": "string"
        },
        {
          "internalType": "string",
          "name": "_title",
          "type": "string"
        },
        {
          "internalType": "uint256",
          "name": "_amount",
          "type": "uint256"
        },
        {
          "internalType": "string",
          "name": "_date",
          "type": "string"
        },
        {
          "internalType": "string",
          "name": "_url",
          "type": "string"
        },
        {
          "internalType": "string",
          "name": "_description",
          "type": "string"
        }
      ],
      "name": "updateCampaign",
      "outputs": [],
      "stateMutability": "nonpayable",
      "type": "function"
    },
    {
      "inputs": [
        {
          "internalType": "string",
          "name": "_title",
          "type": "string"
        }
      ],
      "name": "deleteCampaign",
      "outputs": [],
      "stateMutability": "nonpayable",
      "type": "function"
    },
    {
      "inputs": [
        {
          "internalType": "string",
          "name": "_title",
          "type": "string"
        }
      ],
      "name": "refundCampaign",
      "outputs": [],
      "stateMutability": "payable",
      "type": "function",
      "payable": true
    },
    {
      "inputs": [
        {
          "internalType": "string",
          "name": "_title",
          "type": "string"
        }
      ],
      "name": "getBackers",
      "outputs": [
        {
          "components": [
            {
              "internalType": "address",
              "name": "backer",
              "type": "address"
            },
            {
              "internalType": "uint256",
              "name": "donation",
              "type": "uint256"
            },
            {
              "internalType": "string",
              "name": "time",
              "type": "string"
            }
          ],
          "internalType": "struct Nobiety.Backer[]",
          "name": "",
          "type": "tuple[]"
        }
      ],
      "stateMutability": "view",
      "type": "function",
      "constant": true
    },
    {
      "inputs": [],
      "name": "getAllCampaignList",
      "outputs": [
        {
          "components": [
            {
              "internalType": "string",
              "name": "title",
              "type": "string"
            },
            {
              "internalType": "uint256",
              "name": "amount",
              "type": "uint256"
            },
            {
              "internalType": "string",
              "name": "date",
              "type": "string"
            },
            {
              "internalType": "string",
              "name": "url",
              "type": "string"
            },
            {
              "internalType": "string",
              "name": "description",
              "type": "string"
            },
            {
              "internalType": "string",
              "name": "status",
              "type": "string"
            },
            {
              "internalType": "uint256",
              "name": "raisedAmount",
              "type": "uint256"
            },
            {
              "internalType": "address",
              "name": "owner",
              "type": "address"
            }
          ],
          "internalType": "struct Nobiety.Campaign[]",
          "name": "",
          "type": "tuple[]"
        }
      ],
      "stateMutability": "view",
      "type": "function",
      "constant": true
    }
  ],
  "bytecode": "0x608060405234801561001057600080fd5b50613699806100206000396000f3fe6080604052600436106100e85760003560e01c80639eb1903b1161008a578063d0e30db011610059578063d0e30db0146102f6578063da76d5cd14610300578063e1254fba1461031c578063e1b3727d14610359576100e8565b80639eb1903b14610230578063ae87732d14610259578063c178d0c31461029d578063d0602e69146102da576100e8565b80632c8182a9116100c65780632c8182a91461016f5780636b03e1b01461018b5780636d25a5f3146101c857806377adfc6414610207576100e8565b806306d6f9ac146100ed57806308497b631461010957806327e235e314610132575b600080fd5b61010760048036038101906101029190612067565b610384565b005b34801561011557600080fd5b50610130600480360381019061012b91906120e6565b610557565b005b34801561013e57600080fd5b506101596004803603810190610154919061225d565b6106c4565b6040516101669190612299565b60405180910390f35b61018960048036038101906101849190612067565b6106dc565b005b34801561019757600080fd5b506101b260048036038101906101ad9190612067565b610903565b6040516101bf9190612463565b60405180910390f35b3480156101d457600080fd5b506101ef60048036038101906101ea9190612485565b610a72565b6040516101fe9392919061253a565b60405180910390f35b34801561021357600080fd5b5061022e60048036038101906102299190612067565b610b77565b005b34801561023c57600080fd5b5061025760048036038101906102529190612578565b610d78565b005b34801561026557600080fd5b50610280600480360381019061027b9190612663565b610f8b565b604051610294989796959493929190612690565b60405180910390f35b3480156102a957600080fd5b506102c460048036038101906102bf9190612067565b6112ab565b6040516102d1919061274c565b60405180910390f35b6102f460048036038101906102ef9190612767565b611335565b005b6102fe61168f565b005b61031a60048036038101906103159190612663565b6116e7565b005b34801561032857600080fd5b50610343600480360381019061033e919061225d565b611857565b6040516103509190612299565b60405180910390f35b34801561036557600080fd5b5061036e6118a0565b60405161037b9190612980565b60405180910390f35b600061038f82611df3565b905080600101548160060154106103db576040517f08c379a00000000000000000000000000000000000000000000000000000000081526004016103d2906129ee565b60405180910390fd5b60008160060154905060008260070160009054906101000a900473ffffffffffffffffffffffffffffffffffffffff16905060008173ffffffffffffffffffffffffffffffffffffffff168360405161043390612a3f565b60006040518083038185875af1925050503d8060008114610470576040519150601f19603f3d011682016040523d82523d6000602084013e610475565b606091505b50509050806104b9576040517f08c379a00000000000000000000000000000000000000000000000000000000081526004016104b090612aa0565b60405180910390fd5b6040518060400160405280600681526020017f52616973656400000000000000000000000000000000000000000000000000008152508460050190816104ff9190612ccc565b508173ffffffffffffffffffffffffffffffffffffffff167f2465133b67ce24a12ccac4285f1e7a10e405b3bebed013126f6aec55a068c9078487604051610548929190612d9e565b60405180910390a25050505050565b60005b6000805490508110156106bb57600080828154811061057c5761057b612dce565b5b906000526020600020906008020190508780519060200120816000016040516105a59190612e95565b604051809103902014801561060957503373ffffffffffffffffffffffffffffffffffffffff168160070160009054906101000a900473ffffffffffffffffffffffffffffffffffffffff1673ffffffffffffffffffffffffffffffffffffffff16145b156106a7578681600001908161061f9190612ccc565b508581600101819055508481600201908161063a9190612ccc565b508381600301908161064c9190612ccc565b508281600401908161065e9190612ccc565b508060405161066d91906130c5565b60405180910390207f210f6ddd741fd33dcd0135e4d6c9f95a217ad64afb0ec8bd2dd4ed09e775325960405160405180910390a2506106bb565b5080806106b39061310b565b91505061055a565b50505050505050565b60026020528060005260406000206000915090505481565b60006106e782611df3565b90506000816006015411610730576040517f08c379a00000000000000000000000000000000000000000000000000000000081526004016107279061319f565b60405180910390fd5b60005b60018360405161074391906131fb565b9081526020016040518091039020805490508110156108fe57600060018460405161076e91906131fb565b9081526020016040518091039020828154811061078e5761078d612dce565b5b9060005260206000209060030201905060008160010154905060008260000160009054906101000a900473ffffffffffffffffffffffffffffffffffffffff169050818560060160008282546107e49190613212565b925050819055508073ffffffffffffffffffffffffffffffffffffffff167fb00a96fea3a33bb737e8809e78b80b2cd91f1e938e2e0a33975a8563cbfde5158388604051610833929190612d9e565b60405180910390a260008173ffffffffffffffffffffffffffffffffffffffff168360405161086190612a3f565b60006040518083038185875af1925050503d806000811461089e576040519150601f19603f3d011682016040523d82523d6000602084013e6108a3565b606091505b50509050806108e7576040517f08c379a00000000000000000000000000000000000000000000000000000000081526004016108de90612aa0565b60405180910390fd5b5050505080806108f69061310b565b915050610733565b505050565b606060018260405161091591906131fb565b9081526020016040518091039020805480602002602001604051908101604052809291908181526020016000905b82821015610a6757838290600052602060002090600302016040518060600160405290816000820160009054906101000a900473ffffffffffffffffffffffffffffffffffffffff1673ffffffffffffffffffffffffffffffffffffffff1673ffffffffffffffffffffffffffffffffffffffff168152602001600182015481526020016002820180546109d690612aef565b80601f0160208091040260200160405190810160405280929190818152602001828054610a0290612aef565b8015610a4f5780601f10610a2457610100808354040283529160200191610a4f565b820191906000526020600020905b815481529060010190602001808311610a3257829003601f168201915b50505050508152505081526020019060010190610943565b505050509050919050565b6001828051602081018201805184825260208301602085012081835280955050505050508181548110610aa457600080fd5b9060005260206000209060030201600091509150508060000160009054906101000a900473ffffffffffffffffffffffffffffffffffffffff1690806001015490806002018054610af490612aef565b80601f0160208091040260200160405190810160405280929190818152602001828054610b2090612aef565b8015610b6d5780601f10610b4257610100808354040283529160200191610b6d565b820191906000526020600020905b815481529060010190602001808311610b5057829003601f168201915b5050505050905083565b60005b600080549050811015610d74576000808281548110610b9c57610b9b612dce565b5b90600052602060002090600802019050828051906020012081600001604051610bc59190612e95565b6040518091039020148015610c2957503373ffffffffffffffffffffffffffffffffffffffff168160070160009054906101000a900473ffffffffffffffffffffffffffffffffffffffff1673ffffffffffffffffffffffffffffffffffffffff16145b15610d60576040518060400160405280600781526020017f44656c6574656400000000000000000000000000000000000000000000000000815250816005019081610c749190612ccc565b50600081600601541115610d1857610d17816000018054610c9490612aef565b80601f0160208091040260200160405190810160405280929190818152602001828054610cc090612aef565b8015610d0d5780601f10610ce257610100808354040283529160200191610d0d565b820191906000526020600020905b815481529060010190602001808311610cf057829003601f168201915b50505050506106dc565b5b80604051610d2691906130c5565b60405180910390207f146e77c6f7415b94c0c46c068539ac3e7ef701234955975a6c4b77ae26d66c5160405160405180910390a250610d74565b508080610d6c9061310b565b915050610b7a565b5050565b610d81856112ab565b610dc0576040517f08c379a0000000000000000000000000000000000000000000000000000000008152600401610db7906132b8565b60405180910390fd5b60006040518061010001604052808781526020018681526020018581526020018481526020018381526020016040518060400160405280600481526020017f4c697665000000000000000000000000000000000000000000000000000000008152508152602001600081526020013373ffffffffffffffffffffffffffffffffffffffff16815250905060008190806001815401808255809150506001900390600052602060002090600802016000909190919091506000820151816000019081610e8b9190612ccc565b50602082015181600101556040820151816002019081610eab9190612ccc565b506060820151816003019081610ec19190612ccc565b506080820151816004019081610ed79190612ccc565b5060a0820151816005019081610eed9190612ccc565b5060c0820151816006015560e08201518160070160006101000a81548173ffffffffffffffffffffffffffffffffffffffff021916908373ffffffffffffffffffffffffffffffffffffffff160217905550505080604051610f4f91906133c4565b60405180910390207f9c2cefb345976953895dc12b445ec5580695c265d6f063c974e1552f310eb2a760405160405180910390a2505050505050565b60008181548110610f9b57600080fd5b9060005260206000209060080201600091509050806000018054610fbe90612aef565b80601f0160208091040260200160405190810160405280929190818152602001828054610fea90612aef565b80156110375780601f1061100c57610100808354040283529160200191611037565b820191906000526020600020905b81548152906001019060200180831161101a57829003601f168201915b50505050509080600101549080600201805461105290612aef565b80601f016020809104026020016040519081016040528092919081815260200182805461107e90612aef565b80156110cb5780601f106110a0576101008083540402835291602001916110cb565b820191906000526020600020905b8154815290600101906020018083116110ae57829003601f168201915b5050505050908060030180546110e090612aef565b80601f016020809104026020016040519081016040528092919081815260200182805461110c90612aef565b80156111595780601f1061112e57610100808354040283529160200191611159565b820191906000526020600020905b81548152906001019060200180831161113c57829003601f168201915b50505050509080600401805461116e90612aef565b80601f016020809104026020016040519081016040528092919081815260200182805461119a90612aef565b80156111e75780601f106111bc576101008083540402835291602001916111e7565b820191906000526020600020905b8154815290600101906020018083116111ca57829003601f168201915b5050505050908060050180546111fc90612aef565b80601f016020809104026020016040519081016040528092919081815260200182805461122890612aef565b80156112755780601f1061124a57610100808354040283529160200191611275565b820191906000526020600020905b81548152906001019060200180831161125857829003601f168201915b5050505050908060060154908060070160009054906101000a900473ffffffffffffffffffffffffffffffffffffffff16905088565b6000806001905060005b60008054905081101561132b5760008082815481106112d7576112d6612dce565b5b906000526020600020906008020190508480519060200120816000016040516113009190612e95565b60405180910390200361131757600092505061132b565b5080806113239061310b565b9150506112b5565b5080915050919050565b61133e836112ab565b61137d576040517f08c379a000000000000000000000000000000000000000000000000000000000815260040161137490613427565b60405180910390fd5b600061138884611df3565b90508060070160009054906101000a900473ffffffffffffffffffffffffffffffffffffffff1673ffffffffffffffffffffffffffffffffffffffff163373ffffffffffffffffffffffffffffffffffffffff160361141c576040517f08c379a0000000000000000000000000000000000000000000000000000000008152600401611413906134b9565b60405180910390fd5b82600260003373ffffffffffffffffffffffffffffffffffffffff1673ffffffffffffffffffffffffffffffffffffffff16815260200190815260200160002054101561149e576040517f08c379a000000000000000000000000000000000000000000000000000000000815260040161149590613525565b60405180910390fd5b82600260003373ffffffffffffffffffffffffffffffffffffffff1673ffffffffffffffffffffffffffffffffffffffff16815260200190815260200160002060008282546114ed9190613212565b9250508190555080600101548382600601546115099190613545565b10611520578060010154816006018190555061153c565b828160060160008282546115349190613545565b925050819055505b600060405180606001604052803373ffffffffffffffffffffffffffffffffffffffff16815260200185815260200184815250905060018560405161158191906131fb565b908152602001604051809103902081908060018154018082558091505060019003906000526020600020906003020160009091909190915060008201518160000160006101000a81548173ffffffffffffffffffffffffffffffffffffffff021916908373ffffffffffffffffffffffffffffffffffffffff16021790555060208201518160010155604082015181600201908161161f9190612ccc565b505050816001015482600601540361163b5761163a85610384565b5b8060405161164991906135be565b60405180910390207fdec360b0577bfef00e9bd6fc701e8eddf85e1ba47cafba43e8bd3346d6e5f25f8660405161168091906135d5565b60405180910390a25050505050565b34600260003373ffffffffffffffffffffffffffffffffffffffff1673ffffffffffffffffffffffffffffffffffffffff16815260200190815260200160002060008282546116de9190613545565b92505081905550565b80600260003373ffffffffffffffffffffffffffffffffffffffff1673ffffffffffffffffffffffffffffffffffffffff168152602001908152602001600020541015611769576040517f08c379a000000000000000000000000000000000000000000000000000000000815260040161176090613525565b60405180910390fd5b80600260003373ffffffffffffffffffffffffffffffffffffffff1673ffffffffffffffffffffffffffffffffffffffff16815260200190815260200160002060008282546117b89190613212565b925050819055503373ffffffffffffffffffffffffffffffffffffffff166108fc829081150290604051600060405180830381858888f19350505050158015611805573d6000803e3d6000fd5b503373ffffffffffffffffffffffffffffffffffffffff167f736fe5656fcd35d9d20cbd1c42f7f6256ee31aea93b61054d47141c4927e220a8260405161184c9190612299565b60405180910390a250565b6000600260008373ffffffffffffffffffffffffffffffffffffffff1673ffffffffffffffffffffffffffffffffffffffff168152602001908152602001600020549050919050565b60606000805b600080549050811015611951576040518060400160405280600781526020017f44656c6574656400000000000000000000000000000000000000000000000000815250805190602001206000828154811061190457611903612dce565b5b90600052602060002090600802016005016040516119229190612e95565b60405180910390201461193e57818061193a9061310b565b9250505b80806119499061310b565b9150506118a6565b5060008167ffffffffffffffff81111561196e5761196d611f3c565b5b6040519080825280602002602001820160405280156119a757816020015b611994611eb2565b81526020019060019003908161198c5790505b5090506000805b600080549050811015611de9576040518060400160405280600781526020017f44656c65746564000000000000000000000000000000000000000000000000008152508051906020012060008281548110611a0c57611a0b612dce565b5b9060005260206000209060080201600501604051611a2a9190612e95565b604051809103902014611dd65760008181548110611a4b57611a4a612dce565b5b906000526020600020906008020160405180610100016040529081600082018054611a7590612aef565b80601f0160208091040260200160405190810160405280929190818152602001828054611aa190612aef565b8015611aee5780601f10611ac357610100808354040283529160200191611aee565b820191906000526020600020905b815481529060010190602001808311611ad157829003601f168201915b5050505050815260200160018201548152602001600282018054611b1190612aef565b80601f0160208091040260200160405190810160405280929190818152602001828054611b3d90612aef565b8015611b8a5780601f10611b5f57610100808354040283529160200191611b8a565b820191906000526020600020905b815481529060010190602001808311611b6d57829003601f168201915b50505050508152602001600382018054611ba390612aef565b80601f0160208091040260200160405190810160405280929190818152602001828054611bcf90612aef565b8015611c1c5780601f10611bf157610100808354040283529160200191611c1c565b820191906000526020600020905b815481529060010190602001808311611bff57829003601f168201915b50505050508152602001600482018054611c3590612aef565b80601f0160208091040260200160405190810160405280929190818152602001828054611c6190612aef565b8015611cae5780601f10611c8357610100808354040283529160200191611cae565b820191906000526020600020905b815481529060010190602001808311611c9157829003601f168201915b50505050508152602001600582018054611cc790612aef565b80601f0160208091040260200160405190810160405280929190818152602001828054611cf390612aef565b8015611d405780601f10611d1557610100808354040283529160200191611d40565b820191906000526020600020905b815481529060010190602001808311611d2357829003601f168201915b50505050508152602001600682015481526020016007820160009054906101000a900473ffffffffffffffffffffffffffffffffffffffff1673ffffffffffffffffffffffffffffffffffffffff1673ffffffffffffffffffffffffffffffffffffffff1681525050838381518110611dbc57611dbb612dce565b5b60200260200101819052508180611dd29061310b565b9250505b8080611de19061310b565b9150506119ae565b5081935050505090565b600080600090505b600080549050811015611e71576000808281548110611e1d57611e1c612dce565b5b90600052602060002090600802019050838051906020012081600001604051611e469190612e95565b604051809103902003611e5d578092505050611ead565b508080611e699061310b565b915050611dfb565b506040517f08c379a0000000000000000000000000000000000000000000000000000000008152600401611ea490613643565b60405180910390fd5b919050565b60405180610100016040528060608152602001600081526020016060815260200160608152602001606081526020016060815260200160008152602001600073ffffffffffffffffffffffffffffffffffffffff1681525090565b6000604051905090565b600080fd5b600080fd5b600080fd5b600080fd5b6000601f19601f8301169050919050565b7f4e487b7100000000000000000000000000000000000000000000000000000000600052604160045260246000fd5b611f7482611f2b565b810181811067ffffffffffffffff82111715611f9357611f92611f3c565b5b80604052505050565b6000611fa6611f0d565b9050611fb28282611f6b565b919050565b600067ffffffffffffffff821115611fd257611fd1611f3c565b5b611fdb82611f2b565b9050602081019050919050565b82818337600083830152505050565b600061200a61200584611fb7565b611f9c565b90508281526020810184848401111561202657612025611f26565b5b612031848285611fe8565b509392505050565b600082601f83011261204e5761204d611f21565b5b813561205e848260208601611ff7565b91505092915050565b60006020828403121561207d5761207c611f17565b5b600082013567ffffffffffffffff81111561209b5761209a611f1c565b5b6120a784828501612039565b91505092915050565b6000819050919050565b6120c3816120b0565b81146120ce57600080fd5b50565b6000813590506120e0816120ba565b92915050565b60008060008060008060c0878903121561210357612102611f17565b5b600087013567ffffffffffffffff81111561212157612120611f1c565b5b61212d89828a01612039565b965050602087013567ffffffffffffffff81111561214e5761214d611f1c565b5b61215a89828a01612039565b955050604061216b89828a016120d1565b945050606087013567ffffffffffffffff81111561218c5761218b611f1c565b5b61219889828a01612039565b935050608087013567ffffffffffffffff8111156121b9576121b8611f1c565b5b6121c589828a01612039565b92505060a087013567ffffffffffffffff8111156121e6576121e5611f1c565b5b6121f289828a01612039565b9150509295509295509295565b600073ffffffffffffffffffffffffffffffffffffffff82169050919050565b600061222a826121ff565b9050919050565b61223a8161221f565b811461224557600080fd5b50565b60008135905061225781612231565b92915050565b60006020828403121561227357612272611f17565b5b600061228184828501612248565b91505092915050565b612293816120b0565b82525050565b60006020820190506122ae600083018461228a565b92915050565b600081519050919050565b600082825260208201905092915050565b6000819050602082019050919050565b6122e98161221f565b82525050565b6122f8816120b0565b82525050565b600081519050919050565b600082825260208201905092915050565b60005b8381101561233857808201518184015260208101905061231d565b60008484015250505050565b600061234f826122fe565b6123598185612309565b935061236981856020860161231a565b61237281611f2b565b840191505092915050565b600060608301600083015161239560008601826122e0565b5060208301516123a860208601826122ef565b50604083015184820360408601526123c08282612344565b9150508091505092915050565b60006123d9838361237d565b905092915050565b6000602082019050919050565b60006123f9826122b4565b61240381856122bf565b935083602082028501612415856122d0565b8060005b85811015612451578484038952815161243285826123cd565b945061243d836123e1565b925060208a01995050600181019050612419565b50829750879550505050505092915050565b6000602082019050818103600083015261247d81846123ee565b905092915050565b6000806040838503121561249c5761249b611f17565b5b600083013567ffffffffffffffff8111156124ba576124b9611f1c565b5b6124c685828601612039565b92505060206124d7858286016120d1565b9150509250929050565b6124ea8161221f565b82525050565b600082825260208201905092915050565b600061250c826122fe565b61251681856124f0565b935061252681856020860161231a565b61252f81611f2b565b840191505092915050565b600060608201905061254f60008301866124e1565b61255c602083018561228a565b818103604083015261256e8184612501565b9050949350505050565b600080600080600060a0868803121561259457612593611f17565b5b600086013567ffffffffffffffff8111156125b2576125b1611f1c565b5b6125be88828901612039565b95505060206125cf888289016120d1565b945050604086013567ffffffffffffffff8111156125f0576125ef611f1c565b5b6125fc88828901612039565b935050606086013567ffffffffffffffff81111561261d5761261c611f1c565b5b61262988828901612039565b925050608086013567ffffffffffffffff81111561264a57612649611f1c565b5b61265688828901612039565b9150509295509295909350565b60006020828403121561267957612678611f17565b5b6000612687848285016120d1565b91505092915050565b60006101008201905081810360008301526126ab818b612501565b90506126ba602083018a61228a565b81810360408301526126cc8189612501565b905081810360608301526126e08188612501565b905081810360808301526126f48187612501565b905081810360a08301526127088186612501565b905061271760c083018561228a565b61272460e08301846124e1565b9998505050505050505050565b60008115159050919050565b61274681612731565b82525050565b6000602082019050612761600083018461273d565b92915050565b6000806000606084860312156127805761277f611f17565b5b600084013567ffffffffffffffff81111561279e5761279d611f1c565b5b6127aa86828701612039565b93505060206127bb868287016120d1565b925050604084013567ffffffffffffffff8111156127dc576127db611f1c565b5b6127e886828701612039565b9150509250925092565b600081519050919050565b600082825260208201905092915050565b6000819050602082019050919050565b600061010083016000830151848203600086015261283c8282612344565b915050602083015161285160208601826122ef565b50604083015184820360408601526128698282612344565b915050606083015184820360608601526128838282612344565b9150506080830151848203608086015261289d8282612344565b91505060a083015184820360a08601526128b78282612344565b91505060c08301516128cc60c08601826122ef565b5060e08301516128df60e08601826122e0565b508091505092915050565b60006128f6838361281e565b905092915050565b6000602082019050919050565b6000612916826127f2565b61292081856127fd565b9350836020820285016129328561280e565b8060005b8581101561296e578484038952815161294f85826128ea565b945061295a836128fe565b925060208a01995050600181019050612936565b50829750879550505050505092915050565b6000602082019050818103600083015261299a818461290b565b905092915050565b7f43616d706169676e206e6f742066756c6c792066756e64656400000000000000600082015250565b60006129d86019836124f0565b91506129e3826129a2565b602082019050919050565b60006020820190508181036000830152612a07816129cb565b9050919050565b600081905092915050565b50565b6000612a29600083612a0e565b9150612a3482612a19565b600082019050919050565b6000612a4a82612a1c565b9150819050919050565b7f5472616e73666572206661696c65640000000000000000000000000000000000600082015250565b6000612a8a600f836124f0565b9150612a9582612a54565b602082019050919050565b60006020820190508181036000830152612ab981612a7d565b9050919050565b7f4e487b7100000000000000000000000000000000000000000000000000000000600052602260045260246000fd5b60006002820490506001821680612b0757607f821691505b602082108103612b1a57612b19612ac0565b5b50919050565b60008190508160005260206000209050919050565b60006020601f8301049050919050565b600082821b905092915050565b600060088302612b827fffffffffffffffffffffffffffffffffffffffffffffffffffffffffffffffff82612b45565b612b8c8683612b45565b95508019841693508086168417925050509392505050565b6000819050919050565b6000612bc9612bc4612bbf846120b0565b612ba4565b6120b0565b9050919050565b6000819050919050565b612be383612bae565b612bf7612bef82612bd0565b848454612b52565b825550505050565b600090565b612c0c612bff565b612c17818484612bda565b505050565b5b81811015612c3b57612c30600082612c04565b600181019050612c1d565b5050565b601f821115612c8057612c5181612b20565b612c5a84612b35565b81016020851015612c69578190505b612c7d612c7585612b35565b830182612c1c565b50505b505050565b600082821c905092915050565b6000612ca360001984600802612c85565b1980831691505092915050565b6000612cbc8383612c92565b9150826002028217905092915050565b612cd5826122fe565b67ffffffffffffffff811115612cee57612ced611f3c565b5b612cf88254612aef565b612d03828285612c3f565b600060209050601f831160018114612d365760008415612d24578287015190505b612d2e8582612cb0565b865550612d96565b601f198416612d4486612b20565b60005b82811015612d6c57848901518255600182019150602085019450602081019050612d47565b86831015612d895784890151612d85601f891682612c92565b8355505b6001600288020188555050505b505050505050565b6000604082019050612db3600083018561228a565b8181036020830152612dc58184612501565b90509392505050565b7f4e487b7100000000000000000000000000000000000000000000000000000000600052603260045260246000fd5b60008190508160005260206000209050919050565b60008154612e1f81612aef565b612e298186612a0e565b94506001821660008114612e445760018114612e5957612e8c565b60ff1983168652811515820286019350612e8c565b612e6285612dfd565b60005b83811015612e8457815481890152600182019150602081019050612e65565b838801955050505b50505092915050565b6000612ea18284612e12565b915081905092915050565b600081905092915050565b60008154612ec481612aef565b612ece8186612eac565b94506001821660008114612ee95760018114612eff57612f32565b60ff198316865281151560200286019350612f32565b612f0885612b20565b60005b83811015612f2a57815481890152600182019150602081019050612f0b565b808801955050505b50505092915050565b6000612f478383612eb7565b905092915050565b60008160001c9050919050565b6000819050919050565b6000612f79612f7483612f4f565b612f5c565b9050919050565b612f89816120b0565b82525050565b6000612f9b8383612f80565b60208301905092915050565b600073ffffffffffffffffffffffffffffffffffffffff82169050919050565b6000612fda612fd583612f4f565b612fa7565b9050919050565b612fea8161221f565b82525050565b6000612ffc8383612fe1565b60208301905092915050565b6000808301600080840161301c8682612f3b565b9550506001840154905061302f81612f66565b6130398682612f8f565b9550506002840161304a8682612f3b565b9550506003840161305b8682612f3b565b9550506004840161306c8682612f3b565b9550506005840161307d8682612f3b565b9550506006840154905061309081612f66565b61309a8682612f8f565b955050600784015490506130ad81612fc7565b6130b78682612ff0565b955050849250505092915050565b60006130d18284613008565b915081905092915050565b7f4e487b7100000000000000000000000000000000000000000000000000000000600052601160045260246000fd5b6000613116826120b0565b91507fffffffffffffffffffffffffffffffffffffffffffffffffffffffffffffffff8203613148576131476130dc565b5b600182019050919050565b7f4e6f2066756e6473207261697365640000000000000000000000000000000000600082015250565b6000613189600f836124f0565b915061319482613153565b602082019050919050565b600060208201905081810360008301526131b88161317c565b9050919050565b600081905092915050565b60006131d5826122fe565b6131df81856131bf565b93506131ef81856020860161231a565b80840191505092915050565b600061320782846131ca565b915081905092915050565b600061321d826120b0565b9150613228836120b0565b92508282039050818111156132405761323f6130dc565b5b92915050565b7f43616e6e6f742061646420612063616d70616761696e20776974682073616d6560008201527f206e616d65000000000000000000000000000000000000000000000000000000602082015250565b60006132a26025836124f0565b91506132ad82613246565b604082019050919050565b600060208201905081810360008301526132d181613295565b9050919050565b60006132e3826122fe565b6132ed8185612eac565b93506132fd81856020860161231a565b61330681611f2b565b840191505092915050565b600061331d83836132d8565b905092915050565b600080830160008301516133398582613311565b945050602083015161334b8582612f8f565b945050604083015161335d8582613311565b945050606083015161336f8582613311565b94505060808301516133818582613311565b94505060a08301516133938582613311565b94505060c08301516133a58582612f8f565b94505060e08301516133b78582612ff0565b9450508391505092915050565b60006133d08284613325565b915081905092915050565b7f496e76616c6964207469746c652070726f766964656400000000000000000000600082015250565b60006134116016836124f0565b915061341c826133db565b602082019050919050565b6000602082019050818103600083015261344081613404565b9050919050565b7f4f776e65722063616e6e6f74206261636b20686973206f776e2063616d70616960008201527f676e000000000000000000000000000000000000000000000000000000000000602082015250565b60006134a36022836124f0565b91506134ae82613447565b604082019050919050565b600060208201905081810360008301526134d281613496565b9050919050565b7f496e73756666696369656e742062616c616e6365000000000000000000000000600082015250565b600061350f6014836124f0565b915061351a826134d9565b602082019050919050565b6000602082019050818103600083015261353e81613502565b9050919050565b6000613550826120b0565b915061355b836120b0565b9250828201905080821115613573576135726130dc565b5b92915050565b6000808301600083015161358d8582612ff0565b945050602083015161359f8582612f8f565b94505060408301516135b18582613311565b9450508391505092915050565b60006135ca8284613579565b915081905092915050565b600060208201905081810360008301526135ef8184612501565b905092915050565b7f43616d706169676e206e6f7420666f756e640000000000000000000000000000600082015250565b600061362d6012836124f0565b9150613638826135f7565b602082019050919050565b6000602082019050818103600083015261365c81613620565b905091905056fea2646970667358221220ddde484c7709cb301af69a1ac1ee3f07e3bdaf08aba5d351a8b743574f84fc3564736f6c63430008130033",
  "immutableReferences": {},
  "source": "// SPDX-License-Identifier: Ahmed FAST-NU\r\npragma solidity ^0.8.0;\r\n\r\ncontract Nobiety {\r\n    struct Backer{\r\n    address backer;\r\n    uint256 donation;\r\n    string time;\r\n    }\r\n\r\n    struct Campaign{\r\n        string title;\r\n        uint256 amount;\r\n        string date;\r\n        string url;\r\n        string description;\r\n        string status;\r\n        uint256 raisedAmount;\r\n        address owner;\r\n    }\r\n\r\n    Campaign[] public allCampaignList;\r\n    mapping(string=>Backer[]) public backers; //map backer list to title\r\n    mapping(address => uint256) public balances;\r\n\r\n\r\n\r\n        constructor() {\r\n    }\r\n    \r\n    event launchCampagin(Campaign indexed);\r\n    event updateCampagin(Campaign indexed);\r\n    event deleteCampagin(Campaign indexed);\r\n    event backerCampagin(Backer indexed,string);\r\n    event refund(address indexed,uint256,string);\r\n    event fundsSentToOwner(address indexed,uint256,string);\r\n    event withdrawAmount(address indexed,uint256);\r\n\r\n     function getCampaign(string memory _title) internal view returns (Campaign storage) {\r\n        for (uint256 i = 0; i < allCampaignList.length; i++) {\r\n            Campaign storage currentCampaign = allCampaignList[i];\r\n            if (keccak256(bytes(currentCampaign.title)) == keccak256(bytes(_title))) {\r\n                return currentCampaign;\r\n            }\r\n        }\r\n        revert(\"Campaign not found\");\r\n    }\r\n\r\n\r\n\r\n   function deposit() public payable {\r\n    balances[msg.sender] += msg.value;\r\n    }\r\n\r\n    function getDeposit(address ad) public view returns (uint256){\r\n        return balances[ad];\r\n    }\r\n\r\n    \r\n    function withdrawBalance(uint _amount) public payable {\r\n       require(balances[msg.sender] >= _amount, \"Insufficient balance\");\r\n        balances[msg.sender] -= _amount;\r\n        payable(msg.sender).transfer(_amount);\r\n        emit withdrawAmount(msg.sender, _amount);\r\n    }\r\n\r\n    function backCampaign(string memory _title,uint _donation,string memory _time) public payable {\r\n        require(isTitleExist(_title),\"Invalid title provided\");\r\n        Campaign storage currentCampaign = getCampaign(_title);\r\n        require(msg.sender != currentCampaign.owner, \"Owner cannot back his own campaign\");\r\n        require(balances[msg.sender] >= _donation, \"Insufficient balance\");\r\n        balances[msg.sender] -= _donation;\r\n        if (currentCampaign.raisedAmount+_donation >= currentCampaign.amount) {\r\n            currentCampaign.raisedAmount = currentCampaign.amount;\r\n        }\r\n        else \r\n            currentCampaign.raisedAmount += _donation;\r\n        Backer memory backer = Backer({\r\n                backer : msg.sender,\r\n                donation : _donation,\r\n                time : _time\r\n        });\r\n            backers[_title].push(backer);\r\n            if (currentCampaign.raisedAmount == currentCampaign.amount) {\r\n                sendFundsToOwner(_title);\r\n            }\r\n            emit backerCampagin(backer,_title);\r\n    }\r\n\r\n    function sendFundsToOwner(string memory _title) public payable {\r\n        Campaign storage currentCampaign = getCampaign(_title);\r\n\r\n        require(currentCampaign.raisedAmount < currentCampaign.amount, \"Campaign not fully funded\");\r\n\r\n        uint256 amountToSend = currentCampaign.raisedAmount;\r\n        address payable owner = payable(currentCampaign.owner);\r\n\r\n        (bool success, ) = owner.call{value: amountToSend}(\"\");\r\n        require(success, \"Transfer failed\");\r\n        currentCampaign.status = \"Raised\";\r\n        emit fundsSentToOwner(owner, amountToSend, _title);\r\n    }\r\n\r\n    function isTitleExist(string memory title) public view  returns(bool) {\r\n     bool flag = true;\r\n     for (uint256 i = 0; i < allCampaignList.length; i++) {\r\n        Campaign storage currentCampaign = allCampaignList[i];\r\n        if (keccak256(bytes(currentCampaign.title)) == keccak256(bytes(title))) {\r\n            flag = false;\r\n            break;\r\n        }\r\n    }\r\n    return flag;\r\n}\r\n\r\n   function addCampaign(string memory _title, uint256 _amount, string memory _date, string memory _url, string memory _description) public {\r\n        require(isTitleExist(_title),\"Cannot add a campagain with same name\");\r\n        Campaign memory newCampaign = Campaign({\r\n            title: _title,\r\n            amount: _amount,\r\n            date: _date,\r\n            url: _url,\r\n            description: _description,\r\n            status : \"Live\",\r\n            raisedAmount : 0.00,\r\n            owner : msg.sender\r\n        });\r\n       \r\n        allCampaignList.push(newCampaign);\r\n        emit launchCampagin(newCampaign);\r\n        \r\n    }\r\n\r\n    function updateCampaign(string memory _oldTitle, string memory _title, uint256 _amount, string memory _date, string memory _url, string memory _description) public {\r\n    for (uint256 i = 0; i < allCampaignList.length; i++) {\r\n        Campaign storage currentCampaign = allCampaignList[i];\r\n        if (keccak256(bytes(currentCampaign.title)) == keccak256(bytes(_oldTitle)) && currentCampaign.owner == msg.sender) {\r\n            currentCampaign.title = _title;\r\n            currentCampaign.amount = _amount;\r\n            currentCampaign.date = _date;\r\n            currentCampaign.url = _url;\r\n            currentCampaign.description = _description;\r\n            emit updateCampagin(currentCampaign);\r\n            break;\r\n        }\r\n    }\r\n    }\r\n\r\n    function deleteCampaign(string memory _title) public {\r\n        \r\n    for (uint256 i = 0; i < allCampaignList.length; i++) {\r\n        Campaign storage currentCampaign = allCampaignList[i];\r\n        if (keccak256(bytes(currentCampaign.title)) == keccak256(bytes(_title)) && currentCampaign.owner == msg.sender) {\r\n          currentCampaign.status = \"Deleted\";\r\n          if(currentCampaign.raisedAmount>0){\r\n                refundCampaign(currentCampaign.title);\r\n          }\r\n          emit deleteCampagin(currentCampaign);\r\n          break;\r\n        }\r\n    }\r\n    }\r\n\r\n    function refundCampaign(string memory _title) public payable {\r\n        Campaign storage currentCampaign = getCampaign(_title);\r\n\r\n        require(currentCampaign.raisedAmount > 0, \"No funds raised\");\r\n\r\n        for (uint256 i = 0; i < backers[_title].length; i++) {\r\n            Backer storage currentBacker = backers[_title][i];\r\n            uint256 donation = currentBacker.donation;\r\n            address payable backer = payable(currentBacker.backer);\r\n\r\n           // balances[backer] += donation;\r\n            currentCampaign.raisedAmount -= donation;\r\n\r\n            emit refund(backer, donation, _title);\r\n            \r\n            (bool success, ) = backer.call{value: donation}(\"\");\r\n            require(success, \"Transfer failed\");\r\n        }\r\n    }\r\n    \r\n    function getBackers(string memory _title) public view returns (Backer[] memory) {\r\n        return backers[_title];\r\n    }\r\n\r\n     function getAllCampaignList() public view returns (Campaign[] memory) {\r\n        uint256 count = 0;\r\n        for (uint256 i = 0; i < allCampaignList.length; i++) {\r\n            if (keccak256(bytes(allCampaignList[i].status)) != keccak256(bytes(\"Deleted\"))) {\r\n                count++;\r\n            }\r\n        }\r\n        Campaign[] memory temp = new Campaign[](count);\r\n         uint256 j = 0;\r\n        for (uint256 i = 0; i < allCampaignList.length; i++) {\r\n            if (keccak256(bytes(allCampaignList[i].status)) != keccak256(bytes(\"Deleted\"))) {\r\n                temp[j] = allCampaignList[i];\r\n                j++;\r\n            }\r\n        }\r\n        return temp;\r\n    }  \r\n\r\n}",
  "sourcePath": "I:\\University Data\\FAST semester work\\Semester 8 work\\Blockchain\\Practice\\crowd_fund\\contracts\\Nobiety.sol",
  "compiler": {
    "name": "solc",
    "version": "0.8.19+commit.7dd6d404.Emscripten.clang"
  },
  "schemaVersion": "3.4.13",
  "updatedAt": "2023-04-21T23:43:28.900Z",
  "networkType": "ethereum",
  "devdoc": {
    "kind": "dev",
    "methods": {},
    "version": 1
  },
  "userdoc": {
    "kind": "user",
    "methods": {},
    "version": 1
  }
}