{
  "contractName": "Nobiety",
  "abi": [
    {
      "inputs": [],
      "stateMutability": "nonpayable",
      "type": "constructor"
    },
    {
      "anonymous": false,
      "inputs": [
        {
          "components": [
            {
              "internalType": "address",
              "name": "backer",
              "type": "address"
            },
            {
              "internalType": "uint256",
              "name": "donation",
              "type": "uint256"
            },
            {
              "internalType": "string",
              "name": "time",
              "type": "string"
            }
          ],
          "indexed": true,
          "internalType": "struct Nobiety.Backer",
          "name": "",
          "type": "tuple"
        },
        {
          "indexed": false,
          "internalType": "string",
          "name": "",
          "type": "string"
        }
      ],
      "name": "backerCampagin",
      "type": "event"
    },
    {
      "anonymous": false,
      "inputs": [
        {
          "components": [
            {
              "internalType": "string",
              "name": "title",
              "type": "string"
            },
            {
              "internalType": "uint256",
              "name": "amount",
              "type": "uint256"
            },
            {
              "internalType": "string",
              "name": "url",
              "type": "string"
            },
            {
              "internalType": "string",
              "name": "description",
              "type": "string"
            },
            {
              "internalType": "string",
              "name": "status",
              "type": "string"
            },
            {
              "internalType": "uint256",
              "name": "raisedAmount",
              "type": "uint256"
            },
            {
              "internalType": "address",
              "name": "owner",
              "type": "address"
            }
          ],
          "indexed": true,
          "internalType": "struct Nobiety.Campaign",
          "name": "",
          "type": "tuple"
        }
      ],
      "name": "deleteCampagin",
      "type": "event"
    },
    {
      "anonymous": false,
      "inputs": [
        {
          "indexed": true,
          "internalType": "address",
          "name": "",
          "type": "address"
        },
        {
          "indexed": false,
          "internalType": "uint256",
          "name": "",
          "type": "uint256"
        },
        {
          "indexed": false,
          "internalType": "string",
          "name": "",
          "type": "string"
        }
      ],
      "name": "fundsSentToOwner",
      "type": "event"
    },
    {
      "anonymous": false,
      "inputs": [
        {
          "components": [
            {
              "internalType": "string",
              "name": "title",
              "type": "string"
            },
            {
              "internalType": "uint256",
              "name": "amount",
              "type": "uint256"
            },
            {
              "internalType": "string",
              "name": "url",
              "type": "string"
            },
            {
              "internalType": "string",
              "name": "description",
              "type": "string"
            },
            {
              "internalType": "string",
              "name": "status",
              "type": "string"
            },
            {
              "internalType": "uint256",
              "name": "raisedAmount",
              "type": "uint256"
            },
            {
              "internalType": "address",
              "name": "owner",
              "type": "address"
            }
          ],
          "indexed": true,
          "internalType": "struct Nobiety.Campaign",
          "name": "",
          "type": "tuple"
        }
      ],
      "name": "launchCampagin",
      "type": "event"
    },
    {
      "anonymous": false,
      "inputs": [
        {
          "indexed": true,
          "internalType": "address",
          "name": "",
          "type": "address"
        },
        {
          "indexed": false,
          "internalType": "uint256",
          "name": "",
          "type": "uint256"
        },
        {
          "indexed": false,
          "internalType": "string",
          "name": "",
          "type": "string"
        }
      ],
      "name": "refund",
      "type": "event"
    },
    {
      "anonymous": false,
      "inputs": [
        {
          "components": [
            {
              "internalType": "string",
              "name": "title",
              "type": "string"
            },
            {
              "internalType": "uint256",
              "name": "amount",
              "type": "uint256"
            },
            {
              "internalType": "string",
              "name": "url",
              "type": "string"
            },
            {
              "internalType": "string",
              "name": "description",
              "type": "string"
            },
            {
              "internalType": "string",
              "name": "status",
              "type": "string"
            },
            {
              "internalType": "uint256",
              "name": "raisedAmount",
              "type": "uint256"
            },
            {
              "internalType": "address",
              "name": "owner",
              "type": "address"
            }
          ],
          "indexed": true,
          "internalType": "struct Nobiety.Campaign",
          "name": "",
          "type": "tuple"
        }
      ],
      "name": "updateCampagin",
      "type": "event"
    },
    {
      "anonymous": false,
      "inputs": [
        {
          "indexed": true,
          "internalType": "address",
          "name": "",
          "type": "address"
        },
        {
          "indexed": false,
          "internalType": "uint256",
          "name": "",
          "type": "uint256"
        }
      ],
      "name": "withdrawAmount",
      "type": "event"
    },
    {
      "inputs": [
        {
          "internalType": "uint256",
          "name": "",
          "type": "uint256"
        }
      ],
      "name": "allCampaignList",
      "outputs": [
        {
          "internalType": "string",
          "name": "title",
          "type": "string"
        },
        {
          "internalType": "uint256",
          "name": "amount",
          "type": "uint256"
        },
        {
          "internalType": "string",
          "name": "url",
          "type": "string"
        },
        {
          "internalType": "string",
          "name": "description",
          "type": "string"
        },
        {
          "internalType": "string",
          "name": "status",
          "type": "string"
        },
        {
          "internalType": "uint256",
          "name": "raisedAmount",
          "type": "uint256"
        },
        {
          "internalType": "address",
          "name": "owner",
          "type": "address"
        }
      ],
      "stateMutability": "view",
      "type": "function",
      "constant": true
    },
    {
      "inputs": [
        {
          "internalType": "string",
          "name": "",
          "type": "string"
        },
        {
          "internalType": "uint256",
          "name": "",
          "type": "uint256"
        }
      ],
      "name": "backers",
      "outputs": [
        {
          "internalType": "address",
          "name": "backer",
          "type": "address"
        },
        {
          "internalType": "uint256",
          "name": "donation",
          "type": "uint256"
        },
        {
          "internalType": "string",
          "name": "time",
          "type": "string"
        }
      ],
      "stateMutability": "view",
      "type": "function",
      "constant": true
    },
    {
      "inputs": [
        {
          "internalType": "address",
          "name": "",
          "type": "address"
        }
      ],
      "name": "balances",
      "outputs": [
        {
          "internalType": "uint256",
          "name": "",
          "type": "uint256"
        }
      ],
      "stateMutability": "view",
      "type": "function",
      "constant": true
    },
    {
      "inputs": [],
      "name": "deposit",
      "outputs": [],
      "stateMutability": "payable",
      "type": "function",
      "payable": true
    },
    {
      "inputs": [
        {
          "internalType": "address",
          "name": "ad",
          "type": "address"
        }
      ],
      "name": "getDeposit",
      "outputs": [
        {
          "internalType": "uint256",
          "name": "",
          "type": "uint256"
        }
      ],
      "stateMutability": "view",
      "type": "function",
      "constant": true
    },
    {
      "inputs": [
        {
          "internalType": "uint256",
          "name": "_amount",
          "type": "uint256"
        }
      ],
      "name": "withdrawBalance",
      "outputs": [],
      "stateMutability": "payable",
      "type": "function",
      "payable": true
    },
    {
      "inputs": [
        {
          "internalType": "string",
          "name": "_title",
          "type": "string"
        },
        {
          "internalType": "uint256",
          "name": "_donation",
          "type": "uint256"
        },
        {
          "internalType": "string",
          "name": "_time",
          "type": "string"
        }
      ],
      "name": "backCampaign",
      "outputs": [],
      "stateMutability": "nonpayable",
      "type": "function"
    },
    {
      "inputs": [
        {
          "internalType": "string",
          "name": "_title",
          "type": "string"
        }
      ],
      "name": "sendFundsToOwner",
      "outputs": [],
      "stateMutability": "nonpayable",
      "type": "function"
    },
    {
      "inputs": [
        {
          "internalType": "string",
          "name": "title",
          "type": "string"
        }
      ],
      "name": "isTitleExist",
      "outputs": [
        {
          "internalType": "bool",
          "name": "",
          "type": "bool"
        }
      ],
      "stateMutability": "view",
      "type": "function",
      "constant": true
    },
    {
      "inputs": [
        {
          "internalType": "string",
          "name": "_title",
          "type": "string"
        }
      ],
      "name": "retreiveCampaignFromMemory",
      "outputs": [
        {
          "components": [
            {
              "internalType": "string",
              "name": "title",
              "type": "string"
            },
            {
              "internalType": "uint256",
              "name": "amount",
              "type": "uint256"
            },
            {
              "internalType": "string",
              "name": "url",
              "type": "string"
            },
            {
              "internalType": "string",
              "name": "description",
              "type": "string"
            },
            {
              "internalType": "string",
              "name": "status",
              "type": "string"
            },
            {
              "internalType": "uint256",
              "name": "raisedAmount",
              "type": "uint256"
            },
            {
              "internalType": "address",
              "name": "owner",
              "type": "address"
            }
          ],
          "internalType": "struct Nobiety.Campaign",
          "name": "",
          "type": "tuple"
        }
      ],
      "stateMutability": "view",
      "type": "function",
      "constant": true
    },
    {
      "inputs": [
        {
          "internalType": "string",
          "name": "_title",
          "type": "string"
        },
        {
          "internalType": "uint256",
          "name": "_amount",
          "type": "uint256"
        },
        {
          "internalType": "string",
          "name": "_url",
          "type": "string"
        },
        {
          "internalType": "string",
          "name": "_description",
          "type": "string"
        }
      ],
      "name": "addCampaign",
      "outputs": [],
      "stateMutability": "nonpayable",
      "type": "function"
    },
    {
      "inputs": [
        {
          "internalType": "string",
          "name": "_oldTitle",
          "type": "string"
        },
        {
          "internalType": "string",
          "name": "_title",
          "type": "string"
        },
        {
          "internalType": "uint256",
          "name": "_amount",
          "type": "uint256"
        },
        {
          "internalType": "string",
          "name": "_url",
          "type": "string"
        },
        {
          "internalType": "string",
          "name": "_description",
          "type": "string"
        }
      ],
      "name": "updateCampaign",
      "outputs": [],
      "stateMutability": "nonpayable",
      "type": "function"
    },
    {
      "inputs": [],
      "name": "getInsights",
      "outputs": [
        {
          "internalType": "uint256",
          "name": "",
          "type": "uint256"
        },
        {
          "internalType": "uint256",
          "name": "",
          "type": "uint256"
        }
      ],
      "stateMutability": "view",
      "type": "function",
      "constant": true
    },
    {
      "inputs": [
        {
          "internalType": "string",
          "name": "_title",
          "type": "string"
        }
      ],
      "name": "deleteCampaign",
      "outputs": [],
      "stateMutability": "payable",
      "type": "function",
      "payable": true
    },
    {
      "inputs": [
        {
          "internalType": "string",
          "name": "_title",
          "type": "string"
        }
      ],
      "name": "getBackers",
      "outputs": [
        {
          "components": [
            {
              "internalType": "address",
              "name": "backer",
              "type": "address"
            },
            {
              "internalType": "uint256",
              "name": "donation",
              "type": "uint256"
            },
            {
              "internalType": "string",
              "name": "time",
              "type": "string"
            }
          ],
          "internalType": "struct Nobiety.Backer[]",
          "name": "",
          "type": "tuple[]"
        }
      ],
      "stateMutability": "view",
      "type": "function",
      "constant": true
    },
    {
      "inputs": [],
      "name": "getAllCampaignList",
      "outputs": [
        {
          "components": [
            {
              "internalType": "string",
              "name": "title",
              "type": "string"
            },
            {
              "internalType": "uint256",
              "name": "amount",
              "type": "uint256"
            },
            {
              "internalType": "string",
              "name": "url",
              "type": "string"
            },
            {
              "internalType": "string",
              "name": "description",
              "type": "string"
            },
            {
              "internalType": "string",
              "name": "status",
              "type": "string"
            },
            {
              "internalType": "uint256",
              "name": "raisedAmount",
              "type": "uint256"
            },
            {
              "internalType": "address",
              "name": "owner",
              "type": "address"
            }
          ],
          "internalType": "struct Nobiety.Campaign[]",
          "name": "",
          "type": "tuple[]"
        }
      ],
      "stateMutability": "view",
      "type": "function",
      "constant": true
    }
  ],
  "bytecode": "0x608060405234801561001057600080fd5b50613d87806100206000396000f3fe6080604052600436106100f35760003560e01c8063c178d0c31161008a578063e1254fba11610059578063e1254fba1461032e578063e1b3727d1461036b578063ef59bef514610396578063f9b713d9146103bf576100f3565b8063c178d0c3146102a2578063d0602e69146102df578063d0e30db014610308578063da76d5cd14610312576100f3565b806377adfc64116100c657806377adfc64146101da5780638c1cab5b146101f6578063a739dbd714610222578063ae87732d1461025f576100f3565b806306d6f9ac146100f857806327e235e3146101215780636b03e1b01461015e5780636d25a5f31461019b575b600080fd5b34801561010457600080fd5b5061011f600480360381019061011a9190612713565b6103e8565b005b34801561012d57600080fd5b50610148600480360381019061014391906127ba565b61054c565b6040516101559190612800565b60405180910390f35b34801561016a57600080fd5b5061018560048036038101906101809190612713565b610564565b60405161019291906129d3565b60405180910390f35b3480156101a757600080fd5b506101c260048036038101906101bd9190612a21565b6106d3565b6040516101d193929190612ad6565b60405180910390f35b6101f460048036038101906101ef9190612713565b6107d8565b005b34801561020257600080fd5b5061020b610d3c565b604051610219929190612b14565b60405180910390f35b34801561022e57600080fd5b5061024960048036038101906102449190612713565b610dba565b6040516102569190612bee565b60405180910390f35b34801561026b57600080fd5b5061028660048036038101906102819190612c10565b611139565b6040516102999796959493929190612c3d565b60405180910390f35b3480156102ae57600080fd5b506102c960048036038101906102c49190612713565b6113cb565b6040516102d69190612ce3565b60405180910390f35b3480156102eb57600080fd5b5061030660048036038101906103019190612cfe565b611455565b005b610310611889565b005b61032c60048036038101906103279190612c10565b6118e1565b005b34801561033a57600080fd5b50610355600480360381019061035091906127ba565b611a51565b6040516103629190612800565b60405180910390f35b34801561037757600080fd5b50610380611a9a565b60405161038d9190612efc565b60405180910390f35b3480156103a257600080fd5b506103bd60048036038101906103b89190612f1e565b611f5a565b005b3480156103cb57600080fd5b506103e660048036038101906103e19190613009565b612126565b005b60006103f382612337565b9050806001015481600501541461043f576040517f08c379a000000000000000000000000000000000000000000000000000000000815260040161043690613110565b60405180910390fd5b670de0b6b3a76400008160050154610457919061315f565b600260008360060160009054906101000a900473ffffffffffffffffffffffffffffffffffffffff1673ffffffffffffffffffffffffffffffffffffffff1673ffffffffffffffffffffffffffffffffffffffff16815260200190815260200160002060008282546104c991906131b9565b925050819055508060060160009054906101000a900473ffffffffffffffffffffffffffffffffffffffff1673ffffffffffffffffffffffffffffffffffffffff167f2465133b67ce24a12ccac4285f1e7a10e405b3bebed013126f6aec55a068c90782600501548460405161054092919061320f565b60405180910390a25050565b60026020528060005260406000206000915090505481565b6060600182604051610576919061327b565b9081526020016040518091039020805480602002602001604051908101604052809291908181526020016000905b828210156106c857838290600052602060002090600302016040518060600160405290816000820160009054906101000a900473ffffffffffffffffffffffffffffffffffffffff1673ffffffffffffffffffffffffffffffffffffffff1673ffffffffffffffffffffffffffffffffffffffff16815260200160018201548152602001600282018054610637906132c1565b80601f0160208091040260200160405190810160405280929190818152602001828054610663906132c1565b80156106b05780601f10610685576101008083540402835291602001916106b0565b820191906000526020600020905b81548152906001019060200180831161069357829003601f168201915b505050505081525050815260200190600101906105a4565b505050509050919050565b600182805160208101820180518482526020830160208501208183528095505050505050818154811061070557600080fd5b9060005260206000209060030201600091509150508060000160009054906101000a900473ffffffffffffffffffffffffffffffffffffffff1690806001015490806002018054610755906132c1565b80601f0160208091040260200160405190810160405280929190818152602001828054610781906132c1565b80156107ce5780601f106107a3576101008083540402835291602001916107ce565b820191906000526020600020905b8154815290600101906020018083116107b157829003601f168201915b5050505050905083565b60006107e382612337565b90503373ffffffffffffffffffffffffffffffffffffffff168160060160009054906101000a900473ffffffffffffffffffffffffffffffffffffffff1673ffffffffffffffffffffffffffffffffffffffff1614610877576040517f08c379a000000000000000000000000000000000000000000000000000000000815260040161086e9061333e565b60405180910390fd5b6040518060400160405280600681526020017f526169736564000000000000000000000000000000000000000000000000000081525080519060200120816004016040516108c591906133fd565b60405180910390200361090d576040517f08c379a000000000000000000000000000000000000000000000000000000000815260040161090490613486565b60405180910390fd5b600060018360405161091f919061327b565b9081526020016040518091039020905060005b8180549050811015610a80576000828281548110610953576109526134a6565b5b90600052602060002090600302019050670de0b6b3a7640000816001015461097b919061315f565b600260008360000160009054906101000a900473ffffffffffffffffffffffffffffffffffffffff1673ffffffffffffffffffffffffffffffffffffffff1673ffffffffffffffffffffffffffffffffffffffff16815260200190815260200160002060008282546109ed91906131b9565b925050819055508060000160009054906101000a900473ffffffffffffffffffffffffffffffffffffffff1673ffffffffffffffffffffffffffffffffffffffff167fb00a96fea3a33bb737e8809e78b80b2cd91f1e938e2e0a33975a8563cbfde515826001015487604051610a6492919061320f565b60405180910390a2508080610a78906134d5565b915050610932565b50600080600090505b600080549050811015610afe576000808281548110610aab57610aaa6134a6565b5b90600052602060002090600702019050858051906020012081600001604051610ad491906133fd565b604051809103902003610aea5781925050610afe565b508080610af6906134d5565b915050610a89565b5060006001600080549050610b13919061351d565b81548110610b2457610b236134a6565b5b906000526020600020906007020160008281548110610b4657610b456134a6565b5b90600052602060002090600702016000820181600001908054610b68906132c1565b610b739291906123f6565b50600182015481600101556002820181600201908054610b92906132c1565b610b9d9291906123f6565b506003820181600301908054610bb2906132c1565b610bbd9291906123f6565b506004820181600401908054610bd2906132c1565b610bdd9291906123f6565b50600582015481600501556006820160009054906101000a900473ffffffffffffffffffffffffffffffffffffffff168160060160006101000a81548173ffffffffffffffffffffffffffffffffffffffff021916908373ffffffffffffffffffffffffffffffffffffffff1602179055509050506000805480610c6457610c63613551565b5b600190038181906000526020600020906007020160008082016000610c899190612483565b6001820160009055600282016000610ca19190612483565b600382016000610cb19190612483565b600482016000610cc19190612483565b60058201600090556006820160006101000a81549073ffffffffffffffffffffffffffffffffffffffff02191690555050905582604051610d029190613799565b60405180910390207fa93106194c51f40f30461d8a0aadf3f3aad1c3d2bc6d9361223f9ae30aa51e7d60405160405180910390a250505050565b6000806000808080549050905060005b81811015610dad576000808281548110610d6957610d686134a6565b5b90600052602060002090600702019050600081600501541115610d9957806005015484610d9691906131b9565b93505b508080610da5906134d5565b915050610d4c565b5080829350935050509091565b610dc26124c3565b60005b6000805490508110156110f8576000808281548110610de757610de66134a6565b5b90600052602060002090600702019050838051906020012081600001604051610e1091906133fd565b6040518091039020036110e457806040518060e0016040529081600082018054610e39906132c1565b80601f0160208091040260200160405190810160405280929190818152602001828054610e65906132c1565b8015610eb25780601f10610e8757610100808354040283529160200191610eb2565b820191906000526020600020905b815481529060010190602001808311610e9557829003601f168201915b5050505050815260200160018201548152602001600282018054610ed5906132c1565b80601f0160208091040260200160405190810160405280929190818152602001828054610f01906132c1565b8015610f4e5780601f10610f2357610100808354040283529160200191610f4e565b820191906000526020600020905b815481529060010190602001808311610f3157829003601f168201915b50505050508152602001600382018054610f67906132c1565b80601f0160208091040260200160405190810160405280929190818152602001828054610f93906132c1565b8015610fe05780601f10610fb557610100808354040283529160200191610fe0565b820191906000526020600020905b815481529060010190602001808311610fc357829003601f168201915b50505050508152602001600482018054610ff9906132c1565b80601f0160208091040260200160405190810160405280929190818152602001828054611025906132c1565b80156110725780601f1061104757610100808354040283529160200191611072565b820191906000526020600020905b81548152906001019060200180831161105557829003601f168201915b50505050508152602001600582015481526020016006820160009054906101000a900473ffffffffffffffffffffffffffffffffffffffff1673ffffffffffffffffffffffffffffffffffffffff1673ffffffffffffffffffffffffffffffffffffffff168152505092505050611134565b5080806110f0906134d5565b915050610dc5565b506040517f08c379a000000000000000000000000000000000000000000000000000000000815260040161112b906137fc565b60405180910390fd5b919050565b6000818154811061114957600080fd5b906000526020600020906007020160009150905080600001805461116c906132c1565b80601f0160208091040260200160405190810160405280929190818152602001828054611198906132c1565b80156111e55780601f106111ba576101008083540402835291602001916111e5565b820191906000526020600020905b8154815290600101906020018083116111c857829003601f168201915b505050505090806001015490806002018054611200906132c1565b80601f016020809104026020016040519081016040528092919081815260200182805461122c906132c1565b80156112795780601f1061124e57610100808354040283529160200191611279565b820191906000526020600020905b81548152906001019060200180831161125c57829003601f168201915b50505050509080600301805461128e906132c1565b80601f01602080910402602001604051908101604052809291908181526020018280546112ba906132c1565b80156113075780601f106112dc57610100808354040283529160200191611307565b820191906000526020600020905b8154815290600101906020018083116112ea57829003601f168201915b50505050509080600401805461131c906132c1565b80601f0160208091040260200160405190810160405280929190818152602001828054611348906132c1565b80156113955780601f1061136a57610100808354040283529160200191611395565b820191906000526020600020905b81548152906001019060200180831161137857829003601f168201915b5050505050908060050154908060060160009054906101000a900473ffffffffffffffffffffffffffffffffffffffff16905087565b6000806001905060005b60008054905081101561144b5760008082815481106113f7576113f66134a6565b5b9060005260206000209060070201905084805190602001208160000160405161142091906133fd565b60405180910390200361143757600092505061144b565b508080611443906134d5565b9150506113d5565b5080915050919050565b60001515611462846113cb565b1515146114a4576040517f08c379a000000000000000000000000000000000000000000000000000000000815260040161149b90613868565b60405180910390fd5b60006114af84612337565b905080600101548160050154106114fb576040517f08c379a00000000000000000000000000000000000000000000000000000000081526004016114f2906138d4565b60405180910390fd5b8060060160009054906101000a900473ffffffffffffffffffffffffffffffffffffffff1673ffffffffffffffffffffffffffffffffffffffff163373ffffffffffffffffffffffffffffffffffffffff160361158d576040517f08c379a000000000000000000000000000000000000000000000000000000000815260040161158490613966565b60405180910390fd5b82600260003373ffffffffffffffffffffffffffffffffffffffff1673ffffffffffffffffffffffffffffffffffffffff16815260200190815260200160002054101561160f576040517f08c379a0000000000000000000000000000000000000000000000000000000008152600401611606906139d2565b60405180910390fd5b6000670de0b6b3a7640000846116259190613a21565b905060008260050154836001015461163d919061351d565b9050600081831061164e5781611650565b825b90508084600501600082825461166691906131b9565b925050819055508181036116c3576040518060400160405280600681526020017f52616973656400000000000000000000000000000000000000000000000000008152508460040190805190602001906116c1929190612516565b505b670de0b6b3a7640000816116d7919061315f565b600260003373ffffffffffffffffffffffffffffffffffffffff1673ffffffffffffffffffffffffffffffffffffffff1681526020019081526020016000206000828254611725919061351d565b92505081905550600060405180606001604052803373ffffffffffffffffffffffffffffffffffffffff168152602001838152602001878152509050600188604051611771919061327b565b908152602001604051809103902081908060018154018082558091505060019003906000526020600020906003020160009091909190915060008201518160000160006101000a81548173ffffffffffffffffffffffffffffffffffffffff021916908373ffffffffffffffffffffffffffffffffffffffff160217905550602082015181600101556040820151816002019080519060200190611816929190612516565b505050846001015485600501540361183257611831886103e8565b5b806040516118409190613ae4565b60405180910390207fdec360b0577bfef00e9bd6fc701e8eddf85e1ba47cafba43e8bd3346d6e5f25f896040516118779190613afb565b60405180910390a25050505050505050565b34600260003373ffffffffffffffffffffffffffffffffffffffff1673ffffffffffffffffffffffffffffffffffffffff16815260200190815260200160002060008282546118d891906131b9565b92505081905550565b80600260003373ffffffffffffffffffffffffffffffffffffffff1673ffffffffffffffffffffffffffffffffffffffff168152602001908152602001600020541015611963576040517f08c379a000000000000000000000000000000000000000000000000000000000815260040161195a906139d2565b60405180910390fd5b80600260003373ffffffffffffffffffffffffffffffffffffffff1673ffffffffffffffffffffffffffffffffffffffff16815260200190815260200160002060008282546119b2919061351d565b925050819055503373ffffffffffffffffffffffffffffffffffffffff166108fc829081150290604051600060405180830381858888f193505050501580156119ff573d6000803e3d6000fd5b503373ffffffffffffffffffffffffffffffffffffffff167f736fe5656fcd35d9d20cbd1c42f7f6256ee31aea93b61054d47141c4927e220a82604051611a469190612800565b60405180910390a250565b6000600260008373ffffffffffffffffffffffffffffffffffffffff1673ffffffffffffffffffffffffffffffffffffffff168152602001908152602001600020549050919050565b60606000805b600080549050811015611b4b576040518060400160405280600781526020017f44656c65746564000000000000000000000000000000000000000000000000008152508051906020012060008281548110611afe57611afd6134a6565b5b9060005260206000209060070201600401604051611b1c91906133fd565b604051809103902014611b38578180611b34906134d5565b9250505b8080611b43906134d5565b915050611aa0565b5060008167ffffffffffffffff811115611b6857611b676125e8565b5b604051908082528060200260200182016040528015611ba157816020015b611b8e6124c3565b815260200190600190039081611b865790505b5090506000805b600080549050811015611f50576040518060400160405280600781526020017f44656c65746564000000000000000000000000000000000000000000000000008152508051906020012060008281548110611c0657611c056134a6565b5b9060005260206000209060070201600401604051611c2491906133fd565b604051809103902014611f3d5760008181548110611c4557611c446134a6565b5b90600052602060002090600702016040518060e0016040529081600082018054611c6e906132c1565b80601f0160208091040260200160405190810160405280929190818152602001828054611c9a906132c1565b8015611ce75780601f10611cbc57610100808354040283529160200191611ce7565b820191906000526020600020905b815481529060010190602001808311611cca57829003601f168201915b5050505050815260200160018201548152602001600282018054611d0a906132c1565b80601f0160208091040260200160405190810160405280929190818152602001828054611d36906132c1565b8015611d835780601f10611d5857610100808354040283529160200191611d83565b820191906000526020600020905b815481529060010190602001808311611d6657829003601f168201915b50505050508152602001600382018054611d9c906132c1565b80601f0160208091040260200160405190810160405280929190818152602001828054611dc8906132c1565b8015611e155780601f10611dea57610100808354040283529160200191611e15565b820191906000526020600020905b815481529060010190602001808311611df857829003601f168201915b50505050508152602001600482018054611e2e906132c1565b80601f0160208091040260200160405190810160405280929190818152602001828054611e5a906132c1565b8015611ea75780601f10611e7c57610100808354040283529160200191611ea7565b820191906000526020600020905b815481529060010190602001808311611e8a57829003601f168201915b50505050508152602001600582015481526020016006820160009054906101000a900473ffffffffffffffffffffffffffffffffffffffff1673ffffffffffffffffffffffffffffffffffffffff1673ffffffffffffffffffffffffffffffffffffffff1681525050838381518110611f2357611f226134a6565b5b60200260200101819052508180611f39906134d5565b9250505b8080611f48906134d5565b915050611ba8565b5081935050505090565b611f63846113cb565b611fa2576040517f08c379a0000000000000000000000000000000000000000000000000000000008152600401611f9990613b8f565b60405180910390fd5b6000611fad86612337565b90503373ffffffffffffffffffffffffffffffffffffffff168160060160009054906101000a900473ffffffffffffffffffffffffffffffffffffffff1673ffffffffffffffffffffffffffffffffffffffff1614612041576040517f08c379a000000000000000000000000000000000000000000000000000000000815260040161203890613bfb565b60405180910390fd5b6000816005015414612088576040517f08c379a000000000000000000000000000000000000000000000000000000000815260040161207f90613c8d565b60405180910390fd5b848160000190805190602001906120a0929190612516565b50838160010181905550828160020190805190602001906120c2929190612516565b50818160030190805190602001906120db929190612516565b50806040516120ea9190613799565b60405180910390207f5a159166ad47ef1d9952738151b5bd290aa5cc20227d3b5a51099ac0fdfd1aea60405160405180910390a2505050505050565b61212f846113cb565b61216e576040517f08c379a000000000000000000000000000000000000000000000000000000000815260040161216590613b8f565b60405180910390fd5b60006040518060e001604052808681526020018581526020018481526020018381526020016040518060400160405280600481526020017f4c697665000000000000000000000000000000000000000000000000000000008152508152602001600081526020013373ffffffffffffffffffffffffffffffffffffffff16815250905060008190806001815401808255809150506001900390600052602060002090600702016000909190919091506000820151816000019080519060200190612239929190612516565b50602082015181600101556040820151816002019080519060200190612260929190612516565b50606082015181600301908051906020019061227d929190612516565b50608082015181600401908051906020019061229a929190612516565b5060a0820151816005015560c08201518160060160006101000a81548173ffffffffffffffffffffffffffffffffffffffff021916908373ffffffffffffffffffffffffffffffffffffffff1602179055505050806040516122fc9190613d3a565b60405180910390207fdf114626eab6c68e42e0b0a68f878706b10ed0e78ed3060e501cd028cb7356e960405160405180910390a25050505050565b600080600090505b6000805490508110156123b5576000808281548110612361576123606134a6565b5b9060005260206000209060070201905083805190602001208160000160405161238a91906133fd565b6040518091039020036123a15780925050506123f1565b5080806123ad906134d5565b91505061233f565b506040517f08c379a00000000000000000000000000000000000000000000000000000000081526004016123e8906137fc565b60405180910390fd5b919050565b828054612402906132c1565b90600052602060002090601f0160209004810192826124245760008555612472565b82601f106124355780548555612472565b8280016001018555821561247257600052602060002091601f016020900482015b82811115612471578254825591600101919060010190612456565b5b50905061247f919061259c565b5090565b50805461248f906132c1565b6000825580601f106124a157506124c0565b601f0160209004906000526020600020908101906124bf919061259c565b5b50565b6040518060e00160405280606081526020016000815260200160608152602001606081526020016060815260200160008152602001600073ffffffffffffffffffffffffffffffffffffffff1681525090565b828054612522906132c1565b90600052602060002090601f016020900481019282612544576000855561258b565b82601f1061255d57805160ff191683800117855561258b565b8280016001018555821561258b579182015b8281111561258a57825182559160200191906001019061256f565b5b509050612598919061259c565b5090565b5b808211156125b557600081600090555060010161259d565b5090565b6000604051905090565b600080fd5b600080fd5b600080fd5b600080fd5b6000601f19601f8301169050919050565b7f4e487b7100000000000000000000000000000000000000000000000000000000600052604160045260246000fd5b612620826125d7565b810181811067ffffffffffffffff8211171561263f5761263e6125e8565b5b80604052505050565b60006126526125b9565b905061265e8282612617565b919050565b600067ffffffffffffffff82111561267e5761267d6125e8565b5b612687826125d7565b9050602081019050919050565b82818337600083830152505050565b60006126b66126b184612663565b612648565b9050828152602081018484840111156126d2576126d16125d2565b5b6126dd848285612694565b509392505050565b600082601f8301126126fa576126f96125cd565b5b813561270a8482602086016126a3565b91505092915050565b600060208284031215612729576127286125c3565b5b600082013567ffffffffffffffff811115612747576127466125c8565b5b612753848285016126e5565b91505092915050565b600073ffffffffffffffffffffffffffffffffffffffff82169050919050565b60006127878261275c565b9050919050565b6127978161277c565b81146127a257600080fd5b50565b6000813590506127b48161278e565b92915050565b6000602082840312156127d0576127cf6125c3565b5b60006127de848285016127a5565b91505092915050565b6000819050919050565b6127fa816127e7565b82525050565b600060208201905061281560008301846127f1565b92915050565b600081519050919050565b600082825260208201905092915050565b6000819050602082019050919050565b6128508161277c565b82525050565b61285f816127e7565b82525050565b600081519050919050565b600082825260208201905092915050565b60005b8381101561289f578082015181840152602081019050612884565b838111156128ae576000848401525b50505050565b60006128bf82612865565b6128c98185612870565b93506128d9818560208601612881565b6128e2816125d7565b840191505092915050565b60006060830160008301516129056000860182612847565b5060208301516129186020860182612856565b506040830151848203604086015261293082826128b4565b9150508091505092915050565b600061294983836128ed565b905092915050565b6000602082019050919050565b60006129698261281b565b6129738185612826565b93508360208202850161298585612837565b8060005b858110156129c157848403895281516129a2858261293d565b94506129ad83612951565b925060208a01995050600181019050612989565b50829750879550505050505092915050565b600060208201905081810360008301526129ed818461295e565b905092915050565b6129fe816127e7565b8114612a0957600080fd5b50565b600081359050612a1b816129f5565b92915050565b60008060408385031215612a3857612a376125c3565b5b600083013567ffffffffffffffff811115612a5657612a556125c8565b5b612a62858286016126e5565b9250506020612a7385828601612a0c565b9150509250929050565b612a868161277c565b82525050565b600082825260208201905092915050565b6000612aa882612865565b612ab28185612a8c565b9350612ac2818560208601612881565b612acb816125d7565b840191505092915050565b6000606082019050612aeb6000830186612a7d565b612af860208301856127f1565b8181036040830152612b0a8184612a9d565b9050949350505050565b6000604082019050612b2960008301856127f1565b612b3660208301846127f1565b9392505050565b600060e0830160008301518482036000860152612b5a82826128b4565b9150506020830151612b6f6020860182612856565b5060408301518482036040860152612b8782826128b4565b91505060608301518482036060860152612ba182826128b4565b91505060808301518482036080860152612bbb82826128b4565b91505060a0830151612bd060a0860182612856565b5060c0830151612be360c0860182612847565b508091505092915050565b60006020820190508181036000830152612c088184612b3d565b905092915050565b600060208284031215612c2657612c256125c3565b5b6000612c3484828501612a0c565b91505092915050565b600060e0820190508181036000830152612c57818a612a9d565b9050612c6660208301896127f1565b8181036040830152612c788188612a9d565b90508181036060830152612c8c8187612a9d565b90508181036080830152612ca08186612a9d565b9050612caf60a08301856127f1565b612cbc60c0830184612a7d565b98975050505050505050565b60008115159050919050565b612cdd81612cc8565b82525050565b6000602082019050612cf86000830184612cd4565b92915050565b600080600060608486031215612d1757612d166125c3565b5b600084013567ffffffffffffffff811115612d3557612d346125c8565b5b612d41868287016126e5565b9350506020612d5286828701612a0c565b925050604084013567ffffffffffffffff811115612d7357612d726125c8565b5b612d7f868287016126e5565b9150509250925092565b600081519050919050565b600082825260208201905092915050565b6000819050602082019050919050565b600060e0830160008301518482036000860152612dd282826128b4565b9150506020830151612de76020860182612856565b5060408301518482036040860152612dff82826128b4565b91505060608301518482036060860152612e1982826128b4565b91505060808301518482036080860152612e3382826128b4565b91505060a0830151612e4860a0860182612856565b5060c0830151612e5b60c0860182612847565b508091505092915050565b6000612e728383612db5565b905092915050565b6000602082019050919050565b6000612e9282612d89565b612e9c8185612d94565b935083602082028501612eae85612da5565b8060005b85811015612eea5784840389528151612ecb8582612e66565b9450612ed683612e7a565b925060208a01995050600181019050612eb2565b50829750879550505050505092915050565b60006020820190508181036000830152612f168184612e87565b905092915050565b600080600080600060a08688031215612f3a57612f396125c3565b5b600086013567ffffffffffffffff811115612f5857612f576125c8565b5b612f64888289016126e5565b955050602086013567ffffffffffffffff811115612f8557612f846125c8565b5b612f91888289016126e5565b9450506040612fa288828901612a0c565b935050606086013567ffffffffffffffff811115612fc357612fc26125c8565b5b612fcf888289016126e5565b925050608086013567ffffffffffffffff811115612ff057612fef6125c8565b5b612ffc888289016126e5565b9150509295509295909350565b60008060008060808587031215613023576130226125c3565b5b600085013567ffffffffffffffff811115613041576130406125c8565b5b61304d878288016126e5565b945050602061305e87828801612a0c565b935050604085013567ffffffffffffffff81111561307f5761307e6125c8565b5b61308b878288016126e5565b925050606085013567ffffffffffffffff8111156130ac576130ab6125c8565b5b6130b8878288016126e5565b91505092959194509250565b7f43616d706169676e206e6f742066756c6c792066756e64656400000000000000600082015250565b60006130fa601983612a8c565b9150613105826130c4565b602082019050919050565b60006020820190508181036000830152613129816130ed565b9050919050565b7f4e487b7100000000000000000000000000000000000000000000000000000000600052601160045260246000fd5b600061316a826127e7565b9150613175836127e7565b9250817fffffffffffffffffffffffffffffffffffffffffffffffffffffffffffffffff04831182151516156131ae576131ad613130565b5b828202905092915050565b60006131c4826127e7565b91506131cf836127e7565b9250827fffffffffffffffffffffffffffffffffffffffffffffffffffffffffffffffff0382111561320457613203613130565b5b828201905092915050565b600060408201905061322460008301856127f1565b81810360208301526132368184612a9d565b90509392505050565b600081905092915050565b600061325582612865565b61325f818561323f565b935061326f818560208601612881565b80840191505092915050565b6000613287828461324a565b915081905092915050565b7f4e487b7100000000000000000000000000000000000000000000000000000000600052602260045260246000fd5b600060028204905060018216806132d957607f821691505b6020821081036132ec576132eb613292565b5b50919050565b7f4f6e6c79206f776e65722063616e2064656c6574652063616d706169676e0000600082015250565b6000613328601e83612a8c565b9150613333826132f2565b602082019050919050565b600060208201905081810360008301526133578161331b565b9050919050565b600081905092915050565b60008190508160005260206000209050919050565b6000815461338b816132c1565b613395818661335e565b945060018216600081146133b057600181146133c1576133f4565b60ff198316865281860193506133f4565b6133ca85613369565b60005b838110156133ec578154818901526001820191506020810190506133cd565b838801955050505b50505092915050565b6000613409828461337e565b915081905092915050565b7f43616e6e6f742064656c6574652063616d706169676e2074686174206861732060008201527f7261697365642066756e64730000000000000000000000000000000000000000602082015250565b6000613470602c83612a8c565b915061347b82613414565b604082019050919050565b6000602082019050818103600083015261349f81613463565b9050919050565b7f4e487b7100000000000000000000000000000000000000000000000000000000600052603260045260246000fd5b60006134e0826127e7565b91507fffffffffffffffffffffffffffffffffffffffffffffffffffffffffffffffff820361351257613511613130565b5b600182019050919050565b6000613528826127e7565b9150613533836127e7565b92508282101561354657613545613130565b5b828203905092915050565b7f4e487b7100000000000000000000000000000000000000000000000000000000600052603160045260246000fd5b600081905092915050565b60008190508160005260206000209050919050565b600081546135ad816132c1565b6135b78186613580565b945060018216600081146135d257600181146135e457613617565b60ff1983168652602086019350613617565b6135ed8561358b565b60005b8381101561360f578154818901526001820191506020810190506135f0565b808801955050505b50505092915050565b600061362c83836135a0565b905092915050565b60008160001c9050919050565b6000819050919050565b600061365e61365983613634565b613641565b9050919050565b61366e816127e7565b82525050565b60006136808383613665565b60208301905092915050565b600073ffffffffffffffffffffffffffffffffffffffff82169050919050565b60006136bf6136ba83613634565b61368c565b9050919050565b6136cf8161277c565b82525050565b60006136e183836136c6565b60208301905092915050565b600080830160008084016137018682613620565b955050600184015490506137148161364b565b61371e8682613674565b9550506002840161372f8682613620565b955050600384016137408682613620565b955050600484016137518682613620565b955050600584015490506137648161364b565b61376e8682613674565b95505060068401549050613781816136ac565b61378b86826136d5565b955050849250505092915050565b60006137a582846136ed565b915081905092915050565b7f43616d706169676e206e6f7420666f756e640000000000000000000000000000600082015250565b60006137e6601283612a8c565b91506137f1826137b0565b602082019050919050565b60006020820190508181036000830152613815816137d9565b9050919050565b7f496e76616c6964207469746c652070726f766964656400000000000000000000600082015250565b6000613852601683612a8c565b915061385d8261381c565b602082019050919050565b6000602082019050818103600083015261388181613845565b9050919050565b7f43616d706169676e2066756c6c792066756e6465640000000000000000000000600082015250565b60006138be601583612a8c565b91506138c982613888565b602082019050919050565b600060208201905081810360008301526138ed816138b1565b9050919050565b7f4f776e65722063616e6e6f74206261636b20686973206f776e2063616d70616960008201527f676e000000000000000000000000000000000000000000000000000000000000602082015250565b6000613950602283612a8c565b915061395b826138f4565b604082019050919050565b6000602082019050818103600083015261397f81613943565b9050919050565b7f496e73756666696369656e742062616c616e6365000000000000000000000000600082015250565b60006139bc601483612a8c565b91506139c782613986565b602082019050919050565b600060208201905081810360008301526139eb816139af565b9050919050565b7f4e487b7100000000000000000000000000000000000000000000000000000000600052601260045260246000fd5b6000613a2c826127e7565b9150613a37836127e7565b925082613a4757613a466139f2565b5b828204905092915050565b6000613a5d82612865565b613a678185613580565b9350613a77818560208601612881565b613a80816125d7565b840191505092915050565b6000613a978383613a52565b905092915050565b60008083016000830151613ab385826136d5565b9450506020830151613ac58582613674565b9450506040830151613ad78582613a8b565b9450508391505092915050565b6000613af08284613a9f565b915081905092915050565b60006020820190508181036000830152613b158184612a9d565b905092915050565b7f43616e6e6f742061646420612063616d70616761696e20776974682073616d6560008201527f206e616d65000000000000000000000000000000000000000000000000000000602082015250565b6000613b79602583612a8c565b9150613b8482613b1d565b604082019050919050565b60006020820190508181036000830152613ba881613b6c565b9050919050565b7f4f6e6c79206f776e65722063616e207570646174652063616d706169676e0000600082015250565b6000613be5601e83612a8c565b9150613bf082613baf565b602082019050919050565b60006020820190508181036000830152613c1481613bd8565b9050919050565b7f43616e6e6f742075706461746520616c7265616479207374617274656420636160008201527f6d706169676e0000000000000000000000000000000000000000000000000000602082015250565b6000613c77602683612a8c565b9150613c8282613c1b565b604082019050919050565b60006020820190508181036000830152613ca681613c6a565b9050919050565b60008083016000830151613cc18582613a8b565b9450506020830151613cd38582613674565b9450506040830151613ce58582613a8b565b9450506060830151613cf78582613a8b565b9450506080830151613d098582613a8b565b94505060a0830151613d1b8582613674565b94505060c0830151613d2d85826136d5565b9450508391505092915050565b6000613d468284613cad565b91508190509291505056fea2646970667358221220f26227e480fb0629110fe2cab483ef8124db468d51d60477ac82ebf6b839905a64736f6c634300080d0033",
  "immutableReferences": {},
  "source": "// SPDX-License-Identifier: Ahmed FAST-NU\r\npragma solidity 0.8.13;\r\n\r\ncontract Nobiety {\r\n    struct Backer{\r\n    address backer;\r\n    uint256 donation;\r\n    string time;\r\n    }\r\n\r\n    struct Campaign{\r\n        string title;\r\n        uint256 amount;\r\n        string url;\r\n        string description;\r\n        string status;\r\n        uint256 raisedAmount;\r\n        address owner;\r\n    }\r\n\r\n    Campaign[] public allCampaignList;\r\n    mapping(string=>Backer[]) public backers; //map backer list to title\r\n    mapping(address => uint256) public balances;\r\n\r\n\r\n\r\n        constructor() {\r\n    }\r\n    \r\n    event launchCampagin(Campaign indexed);\r\n    event updateCampagin(Campaign indexed);\r\n    event deleteCampagin(Campaign indexed);\r\n    event backerCampagin(Backer indexed,string);\r\n    event refund(address indexed,uint256,string);\r\n    event fundsSentToOwner(address indexed,uint256,string);\r\n    event withdrawAmount(address indexed,uint256);\r\n\r\n     function getCampaign(string memory _title) internal view returns (Campaign storage) {\r\n        for (uint256 i = 0; i < allCampaignList.length; i++) {\r\n            Campaign storage currentCampaign = allCampaignList[i];\r\n            if (keccak256(bytes(currentCampaign.title)) == keccak256(bytes(_title))) {\r\n                return currentCampaign;\r\n            }\r\n        }\r\n        revert(\"Campaign not found\");\r\n    }\r\n\r\n\r\n\r\n\r\n   function deposit() public payable {\r\n    balances[msg.sender] += msg.value;\r\n    }\r\n\r\n    function getDeposit(address ad) public view returns (uint256){\r\n        return balances[ad];\r\n    }\r\n\r\n    \r\n    function withdrawBalance(uint _amount) public payable {\r\n       require(balances[msg.sender] >= _amount, \"Insufficient balance\");\r\n        balances[msg.sender] -= _amount;\r\n        payable(msg.sender).transfer(_amount);\r\n        emit withdrawAmount(msg.sender, _amount);\r\n    }\r\n\r\n    function backCampaign(string memory _title, uint _donation, string memory _time) public {\r\n    require(isTitleExist(_title) == false, \"Invalid title provided\");\r\n    Campaign storage currentCampaign = getCampaign(_title);\r\n    require(currentCampaign.raisedAmount < currentCampaign.amount, \"Campaign fully funded\");\r\n    require(msg.sender != currentCampaign.owner, \"Owner cannot back his own campaign\");\r\n    require(balances[msg.sender] >= _donation, \"Insufficient balance\");\r\n    uint donationInEther = _donation / 1 ether;\r\n    uint remainingAmount = currentCampaign.amount - currentCampaign.raisedAmount;\r\n    uint donationToAdd = donationInEther < remainingAmount ? donationInEther : remainingAmount;\r\n    currentCampaign.raisedAmount += donationToAdd;\r\n    if(donationToAdd==remainingAmount){\r\n        currentCampaign.status = \"Raised\";\r\n    }\r\n    balances[msg.sender] -= donationToAdd * 1 ether;\r\n\r\n    Backer memory backer = Backer({\r\n        backer: msg.sender,\r\n        donation: donationToAdd,\r\n        time: _time\r\n    });\r\n\r\n    backers[_title].push(backer);\r\n\r\n    if (currentCampaign.raisedAmount == currentCampaign.amount) {\r\n        sendFundsToOwner(_title);\r\n    }\r\n\r\n    emit backerCampagin(backer, _title);\r\n}\r\n    \r\n\r\n    function sendFundsToOwner(string memory _title) public {\r\n        Campaign storage currentCampaign = getCampaign(_title);\r\n\r\n        require(currentCampaign.raisedAmount == currentCampaign.amount, \"Campaign not fully funded\");\r\n\r\n        balances[currentCampaign.owner]+=currentCampaign.raisedAmount * 1 ether;\r\n        emit fundsSentToOwner(currentCampaign.owner, currentCampaign.raisedAmount, _title);\r\n    }\r\n\r\n    function isTitleExist(string memory title) public view  returns(bool) {\r\n     bool flag = true;\r\n     for (uint256 i = 0; i < allCampaignList.length; i++) {\r\n        Campaign storage currentCampaign = allCampaignList[i];\r\n        if (keccak256(bytes(currentCampaign.title)) == keccak256(bytes(title))) {\r\n            flag = false;\r\n            break;\r\n        }\r\n    }\r\n    return flag;\r\n}\r\n\r\n    function retreiveCampaignFromMemory(string memory _title) public view returns (Campaign memory) {\r\n        for (uint256 i = 0; i < allCampaignList.length; i++) {\r\n            Campaign storage currentCampaign = allCampaignList[i];\r\n            if (keccak256(bytes(currentCampaign.title)) == keccak256(bytes(_title))) {\r\n                return currentCampaign;\r\n            }\r\n        }\r\n        revert(\"Campaign not found\");\r\n    }\r\n\r\n\r\n\r\n   function addCampaign(string memory _title, uint256 _amount, string memory _url, string memory _description) public {\r\n        require(isTitleExist(_title),\"Cannot add a campagain with same name\");\r\n        Campaign memory newCampaign = Campaign({\r\n            title: _title,\r\n            amount: _amount,\r\n            url: _url,\r\n            description: _description,\r\n            status : \"Live\",\r\n            raisedAmount : 0.00,\r\n            owner : msg.sender\r\n        });\r\n       \r\n        allCampaignList.push(newCampaign);\r\n        emit launchCampagin(newCampaign);\r\n    }\r\n\r\n    function updateCampaign(string memory _oldTitle, string memory _title, uint256 _amount, string memory _url, string memory _description) public {\r\n    require(isTitleExist(_title),\"Cannot add a campagain with same name\");\r\n    Campaign storage campaignToUpdate = getCampaign(_oldTitle);\r\n    require(campaignToUpdate.owner == msg.sender, \"Only owner can update campaign\");\r\n    require(campaignToUpdate.raisedAmount== 0 ether, \"Cannot update already started campaign\");\r\n        campaignToUpdate.title = _title;\r\n        campaignToUpdate.amount = _amount;\r\n        campaignToUpdate.url = _url;\r\n        campaignToUpdate.description = _description;\r\n        emit updateCampagin(campaignToUpdate);\r\n        \r\n    }\r\n\r\n\r\n    function getInsights() public view returns (uint,uint) {\r\n        uint totalEthCollected = 0;\r\n        uint totalCampaigns = allCampaignList.length;\r\n        for (uint i=0;i<totalCampaigns;i++){\r\n        Campaign storage camp = allCampaignList[i];\r\n        if(camp.raisedAmount>0)\r\n            totalEthCollected+= camp.raisedAmount;\r\n        }\r\n        return (totalCampaigns,totalEthCollected);\r\n    }\r\n\r\n    function deleteCampaign(string memory _title) public payable {\r\n        \r\n        Campaign storage campaignToDelete = getCampaign(_title);\r\n\r\n        require(campaignToDelete.owner == msg.sender, \"Only owner can delete campaign\");\r\n        require(keccak256(bytes(campaignToDelete.status)) != keccak256(bytes(\"Raised\")), \"Cannot delete campaign that has raised funds\");\r\n        Backer[] storage backersToRefund = backers[_title];\r\n        for (uint256 i = 0; i < backersToRefund.length; i++) {\r\n            Backer storage currentBacker = backersToRefund[i];\r\n            balances[currentBacker.backer] += currentBacker.donation * 1 ether;\r\n            emit refund(currentBacker.backer, currentBacker.donation, _title);\r\n        }\r\n        uint256 indexToDelete;\r\n        for (uint256 i = 0; i < allCampaignList.length; i++) {\r\n            Campaign storage currentCampaign = allCampaignList[i];\r\n            if (keccak256(bytes(currentCampaign.title)) == keccak256(bytes(_title))) {\r\n                indexToDelete = i;\r\n                break;\r\n            }\r\n        }\r\n        allCampaignList[indexToDelete] = allCampaignList[allCampaignList.length - 1];\r\n        allCampaignList.pop();\r\n\r\n        emit deleteCampagin(campaignToDelete);\r\n    \r\n    }\r\n\r\n    \r\n    function getBackers(string memory _title) public view returns (Backer[] memory) {\r\n        return backers[_title];\r\n    }\r\n\r\n     function getAllCampaignList() public view returns (Campaign[] memory) {\r\n        uint256 count = 0;\r\n        for (uint256 i = 0; i < allCampaignList.length; i++) {\r\n            if (keccak256(bytes(allCampaignList[i].status)) != keccak256(bytes(\"Deleted\"))) {\r\n                count++;\r\n            }\r\n        }\r\n        Campaign[] memory temp = new Campaign[](count);\r\n         uint256 j = 0;\r\n        for (uint256 i = 0; i < allCampaignList.length; i++) {\r\n            if (keccak256(bytes(allCampaignList[i].status)) != keccak256(bytes(\"Deleted\"))) {\r\n                temp[j] = allCampaignList[i];\r\n                j++;\r\n            }\r\n        }\r\n        return temp;\r\n    }  \r\n\r\n}\r\n",
  "sourcePath": "I:\\University Data\\FAST semester work\\Semester 8 work\\Blockchain\\Project\\Final Submission\\Nobiety\\contracts\\Nobiety.sol",
  "compiler": {
    "name": "solc",
    "version": "0.8.13+commit.abaa5c0e.Emscripten.clang"
  },
  "schemaVersion": "3.4.13",
  "updatedAt": "2023-05-14T13:50:02.719Z",
  "networkType": "ethereum",
  "devdoc": {
    "kind": "dev",
    "methods": {},
    "version": 1
  },
  "userdoc": {
    "kind": "user",
    "methods": {},
    "version": 1
  }
}