{
  "contractName": "Nobiety",
  "abi": [
    {
      "inputs": [],
      "stateMutability": "nonpayable",
      "type": "constructor"
    },
    {
      "anonymous": false,
      "inputs": [
        {
          "components": [
            {
              "internalType": "address",
              "name": "backer",
              "type": "address"
            },
            {
              "internalType": "uint256",
              "name": "donation",
              "type": "uint256"
            },
            {
              "internalType": "string",
              "name": "time",
              "type": "string"
            }
          ],
          "indexed": true,
          "internalType": "struct Nobiety.Backer",
          "name": "",
          "type": "tuple"
        },
        {
          "indexed": false,
          "internalType": "string",
          "name": "",
          "type": "string"
        }
      ],
      "name": "backerCampagin",
      "type": "event"
    },
    {
      "anonymous": false,
      "inputs": [
        {
          "components": [
            {
              "internalType": "string",
              "name": "title",
              "type": "string"
            },
            {
              "internalType": "uint256",
              "name": "amount",
              "type": "uint256"
            },
            {
              "internalType": "string",
              "name": "date",
              "type": "string"
            },
            {
              "internalType": "string",
              "name": "url",
              "type": "string"
            },
            {
              "internalType": "string",
              "name": "description",
              "type": "string"
            },
            {
              "internalType": "string",
              "name": "status",
              "type": "string"
            },
            {
              "internalType": "uint256",
              "name": "raisedAmount",
              "type": "uint256"
            },
            {
              "internalType": "address",
              "name": "owner",
              "type": "address"
            }
          ],
          "indexed": true,
          "internalType": "struct Nobiety.Campaign",
          "name": "",
          "type": "tuple"
        }
      ],
      "name": "deleteCampagin",
      "type": "event"
    },
    {
      "anonymous": false,
      "inputs": [
        {
          "indexed": true,
          "internalType": "address",
          "name": "",
          "type": "address"
        },
        {
          "indexed": false,
          "internalType": "uint256",
          "name": "",
          "type": "uint256"
        },
        {
          "indexed": false,
          "internalType": "string",
          "name": "",
          "type": "string"
        }
      ],
      "name": "fundsSentToOwner",
      "type": "event"
    },
    {
      "anonymous": false,
      "inputs": [
        {
          "components": [
            {
              "internalType": "string",
              "name": "title",
              "type": "string"
            },
            {
              "internalType": "uint256",
              "name": "amount",
              "type": "uint256"
            },
            {
              "internalType": "string",
              "name": "date",
              "type": "string"
            },
            {
              "internalType": "string",
              "name": "url",
              "type": "string"
            },
            {
              "internalType": "string",
              "name": "description",
              "type": "string"
            },
            {
              "internalType": "string",
              "name": "status",
              "type": "string"
            },
            {
              "internalType": "uint256",
              "name": "raisedAmount",
              "type": "uint256"
            },
            {
              "internalType": "address",
              "name": "owner",
              "type": "address"
            }
          ],
          "indexed": true,
          "internalType": "struct Nobiety.Campaign",
          "name": "",
          "type": "tuple"
        }
      ],
      "name": "launchCampagin",
      "type": "event"
    },
    {
      "anonymous": false,
      "inputs": [
        {
          "indexed": true,
          "internalType": "address",
          "name": "",
          "type": "address"
        },
        {
          "indexed": false,
          "internalType": "uint256",
          "name": "",
          "type": "uint256"
        },
        {
          "indexed": false,
          "internalType": "string",
          "name": "",
          "type": "string"
        }
      ],
      "name": "refund",
      "type": "event"
    },
    {
      "anonymous": false,
      "inputs": [
        {
          "components": [
            {
              "internalType": "string",
              "name": "title",
              "type": "string"
            },
            {
              "internalType": "uint256",
              "name": "amount",
              "type": "uint256"
            },
            {
              "internalType": "string",
              "name": "date",
              "type": "string"
            },
            {
              "internalType": "string",
              "name": "url",
              "type": "string"
            },
            {
              "internalType": "string",
              "name": "description",
              "type": "string"
            },
            {
              "internalType": "string",
              "name": "status",
              "type": "string"
            },
            {
              "internalType": "uint256",
              "name": "raisedAmount",
              "type": "uint256"
            },
            {
              "internalType": "address",
              "name": "owner",
              "type": "address"
            }
          ],
          "indexed": true,
          "internalType": "struct Nobiety.Campaign",
          "name": "",
          "type": "tuple"
        }
      ],
      "name": "updateCampagin",
      "type": "event"
    },
    {
      "anonymous": false,
      "inputs": [
        {
          "indexed": true,
          "internalType": "address",
          "name": "",
          "type": "address"
        },
        {
          "indexed": false,
          "internalType": "uint256",
          "name": "",
          "type": "uint256"
        }
      ],
      "name": "withdrawAmount",
      "type": "event"
    },
    {
      "inputs": [
        {
          "internalType": "uint256",
          "name": "",
          "type": "uint256"
        }
      ],
      "name": "allCampaignList",
      "outputs": [
        {
          "internalType": "string",
          "name": "title",
          "type": "string"
        },
        {
          "internalType": "uint256",
          "name": "amount",
          "type": "uint256"
        },
        {
          "internalType": "string",
          "name": "date",
          "type": "string"
        },
        {
          "internalType": "string",
          "name": "url",
          "type": "string"
        },
        {
          "internalType": "string",
          "name": "description",
          "type": "string"
        },
        {
          "internalType": "string",
          "name": "status",
          "type": "string"
        },
        {
          "internalType": "uint256",
          "name": "raisedAmount",
          "type": "uint256"
        },
        {
          "internalType": "address",
          "name": "owner",
          "type": "address"
        }
      ],
      "stateMutability": "view",
      "type": "function",
      "constant": true
    },
    {
      "inputs": [
        {
          "internalType": "string",
          "name": "",
          "type": "string"
        },
        {
          "internalType": "uint256",
          "name": "",
          "type": "uint256"
        }
      ],
      "name": "backers",
      "outputs": [
        {
          "internalType": "address",
          "name": "backer",
          "type": "address"
        },
        {
          "internalType": "uint256",
          "name": "donation",
          "type": "uint256"
        },
        {
          "internalType": "string",
          "name": "time",
          "type": "string"
        }
      ],
      "stateMutability": "view",
      "type": "function",
      "constant": true
    },
    {
      "inputs": [
        {
          "internalType": "address",
          "name": "",
          "type": "address"
        }
      ],
      "name": "balances",
      "outputs": [
        {
          "internalType": "uint256",
          "name": "",
          "type": "uint256"
        }
      ],
      "stateMutability": "view",
      "type": "function",
      "constant": true
    },
    {
      "inputs": [],
      "name": "deposit",
      "outputs": [],
      "stateMutability": "payable",
      "type": "function",
      "payable": true
    },
    {
      "inputs": [
        {
          "internalType": "address",
          "name": "ad",
          "type": "address"
        }
      ],
      "name": "getDeposit",
      "outputs": [
        {
          "internalType": "uint256",
          "name": "",
          "type": "uint256"
        }
      ],
      "stateMutability": "view",
      "type": "function",
      "constant": true
    },
    {
      "inputs": [
        {
          "internalType": "uint256",
          "name": "_amount",
          "type": "uint256"
        }
      ],
      "name": "withdrawBalance",
      "outputs": [],
      "stateMutability": "payable",
      "type": "function",
      "payable": true
    },
    {
      "inputs": [
        {
          "internalType": "string",
          "name": "_title",
          "type": "string"
        },
        {
          "internalType": "uint256",
          "name": "_donation",
          "type": "uint256"
        },
        {
          "internalType": "string",
          "name": "_time",
          "type": "string"
        }
      ],
      "name": "backCampaign",
      "outputs": [],
      "stateMutability": "nonpayable",
      "type": "function"
    },
    {
      "inputs": [
        {
          "internalType": "string",
          "name": "_title",
          "type": "string"
        }
      ],
      "name": "sendFundsToOwner",
      "outputs": [],
      "stateMutability": "payable",
      "type": "function",
      "payable": true
    },
    {
      "inputs": [
        {
          "internalType": "string",
          "name": "title",
          "type": "string"
        }
      ],
      "name": "isTitleExist",
      "outputs": [
        {
          "internalType": "bool",
          "name": "",
          "type": "bool"
        }
      ],
      "stateMutability": "view",
      "type": "function",
      "constant": true
    },
    {
      "inputs": [
        {
          "internalType": "string",
          "name": "_title",
          "type": "string"
        },
        {
          "internalType": "uint256",
          "name": "_amount",
          "type": "uint256"
        },
        {
          "internalType": "string",
          "name": "_date",
          "type": "string"
        },
        {
          "internalType": "string",
          "name": "_url",
          "type": "string"
        },
        {
          "internalType": "string",
          "name": "_description",
          "type": "string"
        }
      ],
      "name": "addCampaign",
      "outputs": [],
      "stateMutability": "nonpayable",
      "type": "function"
    },
    {
      "inputs": [
        {
          "internalType": "string",
          "name": "_oldTitle",
          "type": "string"
        },
        {
          "internalType": "string",
          "name": "_title",
          "type": "string"
        },
        {
          "internalType": "uint256",
          "name": "_amount",
          "type": "uint256"
        },
        {
          "internalType": "string",
          "name": "_date",
          "type": "string"
        },
        {
          "internalType": "string",
          "name": "_url",
          "type": "string"
        },
        {
          "internalType": "string",
          "name": "_description",
          "type": "string"
        }
      ],
      "name": "updateCampaign",
      "outputs": [],
      "stateMutability": "nonpayable",
      "type": "function"
    },
    {
      "inputs": [
        {
          "internalType": "string",
          "name": "_title",
          "type": "string"
        }
      ],
      "name": "deleteCampaign",
      "outputs": [],
      "stateMutability": "nonpayable",
      "type": "function"
    },
    {
      "inputs": [
        {
          "internalType": "string",
          "name": "_title",
          "type": "string"
        }
      ],
      "name": "refundCampaign",
      "outputs": [],
      "stateMutability": "payable",
      "type": "function",
      "payable": true
    },
    {
      "inputs": [
        {
          "internalType": "string",
          "name": "_title",
          "type": "string"
        }
      ],
      "name": "getBackers",
      "outputs": [
        {
          "components": [
            {
              "internalType": "address",
              "name": "backer",
              "type": "address"
            },
            {
              "internalType": "uint256",
              "name": "donation",
              "type": "uint256"
            },
            {
              "internalType": "string",
              "name": "time",
              "type": "string"
            }
          ],
          "internalType": "struct Nobiety.Backer[]",
          "name": "",
          "type": "tuple[]"
        }
      ],
      "stateMutability": "view",
      "type": "function",
      "constant": true
    },
    {
      "inputs": [],
      "name": "getAllCampaignList",
      "outputs": [
        {
          "components": [
            {
              "internalType": "string",
              "name": "title",
              "type": "string"
            },
            {
              "internalType": "uint256",
              "name": "amount",
              "type": "uint256"
            },
            {
              "internalType": "string",
              "name": "date",
              "type": "string"
            },
            {
              "internalType": "string",
              "name": "url",
              "type": "string"
            },
            {
              "internalType": "string",
              "name": "description",
              "type": "string"
            },
            {
              "internalType": "string",
              "name": "status",
              "type": "string"
            },
            {
              "internalType": "uint256",
              "name": "raisedAmount",
              "type": "uint256"
            },
            {
              "internalType": "address",
              "name": "owner",
              "type": "address"
            }
          ],
          "internalType": "struct Nobiety.Campaign[]",
          "name": "",
          "type": "tuple[]"
        }
      ],
      "stateMutability": "view",
      "type": "function",
      "constant": true
    }
  ],
  "bytecode": "0x608060405234801561001057600080fd5b5061376b806100206000396000f3fe6080604052600436106100e85760003560e01c80639eb1903b1161008a578063d0e30db011610059578063d0e30db014610303578063da76d5cd1461030d578063e1254fba14610329578063e1b3727d14610366576100e8565b80639eb1903b14610230578063ae87732d14610259578063c178d0c31461029d578063d0602e69146102da576100e8565b80632c8182a9116100c65780632c8182a91461016f5780636b03e1b01461018b5780636d25a5f3146101c857806377adfc6414610207576100e8565b806306d6f9ac146100ed57806308497b631461010957806327e235e314610132575b600080fd5b610107600480360381019061010291906120d9565b610391565b005b34801561011557600080fd5b50610130600480360381019061012b9190612158565b610564565b005b34801561013e57600080fd5b50610159600480360381019061015491906122cf565b610719565b604051610166919061230b565b60405180910390f35b610189600480360381019061018491906120d9565b610731565b005b34801561019757600080fd5b506101b260048036038101906101ad91906120d9565b610958565b6040516101bf91906124d5565b60405180910390f35b3480156101d457600080fd5b506101ef60048036038101906101ea91906124f7565b610ac7565b6040516101fe939291906125ac565b60405180910390f35b34801561021357600080fd5b5061022e600480360381019061022991906120d9565b610bcc565b005b34801561023c57600080fd5b50610257600480360381019061025291906125ea565b610dcd565b005b34801561026557600080fd5b50610280600480360381019061027b91906126d5565b610fe0565b604051610294989796959493929190612702565b60405180910390f35b3480156102a957600080fd5b506102c460048036038101906102bf91906120d9565b611300565b6040516102d191906127be565b60405180910390f35b3480156102e657600080fd5b5061030160048036038101906102fc91906127d9565b61138a565b005b61030b611701565b005b610327600480360381019061032291906126d5565b611759565b005b34801561033557600080fd5b50610350600480360381019061034b91906122cf565b6118c9565b60405161035d919061230b565b60405180910390f35b34801561037257600080fd5b5061037b611912565b60405161038891906129f2565b60405180910390f35b600061039c82611e65565b905080600101548160060154106103e8576040517f08c379a00000000000000000000000000000000000000000000000000000000081526004016103df90612a60565b60405180910390fd5b60008160060154905060008260070160009054906101000a900473ffffffffffffffffffffffffffffffffffffffff16905060008173ffffffffffffffffffffffffffffffffffffffff168360405161044090612ab1565b60006040518083038185875af1925050503d806000811461047d576040519150601f19603f3d011682016040523d82523d6000602084013e610482565b606091505b50509050806104c6576040517f08c379a00000000000000000000000000000000000000000000000000000000081526004016104bd90612b12565b60405180910390fd5b6040518060400160405280600681526020017f526169736564000000000000000000000000000000000000000000000000000081525084600501908161050c9190612d3e565b508173ffffffffffffffffffffffffffffffffffffffff167f2465133b67ce24a12ccac4285f1e7a10e405b3bebed013126f6aec55a068c9078487604051610555929190612e10565b60405180910390a25050505050565b61056d85611300565b6105ac576040517f08c379a00000000000000000000000000000000000000000000000000000000081526004016105a390612eb2565b60405180910390fd5b60005b6000805490508110156107105760008082815481106105d1576105d0612ed2565b5b906000526020600020906008020190508780519060200120816000016040516105fa9190612f99565b604051809103902014801561065e57503373ffffffffffffffffffffffffffffffffffffffff168160070160009054906101000a900473ffffffffffffffffffffffffffffffffffffffff1673ffffffffffffffffffffffffffffffffffffffff16145b156106fc57868160000190816106749190612d3e565b508581600101819055508481600201908161068f9190612d3e565b50838160030190816106a19190612d3e565b50828160040190816106b39190612d3e565b50806040516106c291906131c9565b60405180910390207f210f6ddd741fd33dcd0135e4d6c9f95a217ad64afb0ec8bd2dd4ed09e775325960405160405180910390a250610710565b5080806107089061320f565b9150506105af565b50505050505050565b60026020528060005260406000206000915090505481565b600061073c82611e65565b90506000816006015411610785576040517f08c379a000000000000000000000000000000000000000000000000000000000815260040161077c906132a3565b60405180910390fd5b60005b60018360405161079891906132ff565b9081526020016040518091039020805490508110156109535760006001846040516107c391906132ff565b908152602001604051809103902082815481106107e3576107e2612ed2565b5b9060005260206000209060030201905060008160010154905060008260000160009054906101000a900473ffffffffffffffffffffffffffffffffffffffff169050818560060160008282546108399190613316565b925050819055508073ffffffffffffffffffffffffffffffffffffffff167fb00a96fea3a33bb737e8809e78b80b2cd91f1e938e2e0a33975a8563cbfde5158388604051610888929190612e10565b60405180910390a260008173ffffffffffffffffffffffffffffffffffffffff16836040516108b690612ab1565b60006040518083038185875af1925050503d80600081146108f3576040519150601f19603f3d011682016040523d82523d6000602084013e6108f8565b606091505b505090508061093c576040517f08c379a000000000000000000000000000000000000000000000000000000000815260040161093390612b12565b60405180910390fd5b50505050808061094b9061320f565b915050610788565b505050565b606060018260405161096a91906132ff565b9081526020016040518091039020805480602002602001604051908101604052809291908181526020016000905b82821015610abc57838290600052602060002090600302016040518060600160405290816000820160009054906101000a900473ffffffffffffffffffffffffffffffffffffffff1673ffffffffffffffffffffffffffffffffffffffff1673ffffffffffffffffffffffffffffffffffffffff16815260200160018201548152602001600282018054610a2b90612b61565b80601f0160208091040260200160405190810160405280929190818152602001828054610a5790612b61565b8015610aa45780601f10610a7957610100808354040283529160200191610aa4565b820191906000526020600020905b815481529060010190602001808311610a8757829003601f168201915b50505050508152505081526020019060010190610998565b505050509050919050565b6001828051602081018201805184825260208301602085012081835280955050505050508181548110610af957600080fd5b9060005260206000209060030201600091509150508060000160009054906101000a900473ffffffffffffffffffffffffffffffffffffffff1690806001015490806002018054610b4990612b61565b80601f0160208091040260200160405190810160405280929190818152602001828054610b7590612b61565b8015610bc25780601f10610b9757610100808354040283529160200191610bc2565b820191906000526020600020905b815481529060010190602001808311610ba557829003601f168201915b5050505050905083565b60005b600080549050811015610dc9576000808281548110610bf157610bf0612ed2565b5b90600052602060002090600802019050828051906020012081600001604051610c1a9190612f99565b6040518091039020148015610c7e57503373ffffffffffffffffffffffffffffffffffffffff168160070160009054906101000a900473ffffffffffffffffffffffffffffffffffffffff1673ffffffffffffffffffffffffffffffffffffffff16145b15610db5576040518060400160405280600781526020017f44656c6574656400000000000000000000000000000000000000000000000000815250816005019081610cc99190612d3e565b50600081600601541115610d6d57610d6c816000018054610ce990612b61565b80601f0160208091040260200160405190810160405280929190818152602001828054610d1590612b61565b8015610d625780601f10610d3757610100808354040283529160200191610d62565b820191906000526020600020905b815481529060010190602001808311610d4557829003601f168201915b5050505050610731565b5b80604051610d7b91906131c9565b60405180910390207f146e77c6f7415b94c0c46c068539ac3e7ef701234955975a6c4b77ae26d66c5160405160405180910390a250610dc9565b508080610dc19061320f565b915050610bcf565b5050565b610dd685611300565b610e15576040517f08c379a0000000000000000000000000000000000000000000000000000000008152600401610e0c90612eb2565b60405180910390fd5b60006040518061010001604052808781526020018681526020018581526020018481526020018381526020016040518060400160405280600481526020017f4c697665000000000000000000000000000000000000000000000000000000008152508152602001600081526020013373ffffffffffffffffffffffffffffffffffffffff16815250905060008190806001815401808255809150506001900390600052602060002090600802016000909190919091506000820151816000019081610ee09190612d3e565b50602082015181600101556040820151816002019081610f009190612d3e565b506060820151816003019081610f169190612d3e565b506080820151816004019081610f2c9190612d3e565b5060a0820151816005019081610f429190612d3e565b5060c0820151816006015560e08201518160070160006101000a81548173ffffffffffffffffffffffffffffffffffffffff021916908373ffffffffffffffffffffffffffffffffffffffff160217905550505080604051610fa49190613436565b60405180910390207f9c2cefb345976953895dc12b445ec5580695c265d6f063c974e1552f310eb2a760405160405180910390a2505050505050565b60008181548110610ff057600080fd5b906000526020600020906008020160009150905080600001805461101390612b61565b80601f016020809104026020016040519081016040528092919081815260200182805461103f90612b61565b801561108c5780601f106110615761010080835404028352916020019161108c565b820191906000526020600020905b81548152906001019060200180831161106f57829003601f168201915b5050505050908060010154908060020180546110a790612b61565b80601f01602080910402602001604051908101604052809291908181526020018280546110d390612b61565b80156111205780601f106110f557610100808354040283529160200191611120565b820191906000526020600020905b81548152906001019060200180831161110357829003601f168201915b50505050509080600301805461113590612b61565b80601f016020809104026020016040519081016040528092919081815260200182805461116190612b61565b80156111ae5780601f10611183576101008083540402835291602001916111ae565b820191906000526020600020905b81548152906001019060200180831161119157829003601f168201915b5050505050908060040180546111c390612b61565b80601f01602080910402602001604051908101604052809291908181526020018280546111ef90612b61565b801561123c5780601f106112115761010080835404028352916020019161123c565b820191906000526020600020905b81548152906001019060200180831161121f57829003601f168201915b50505050509080600501805461125190612b61565b80601f016020809104026020016040519081016040528092919081815260200182805461127d90612b61565b80156112ca5780601f1061129f576101008083540402835291602001916112ca565b820191906000526020600020905b8154815290600101906020018083116112ad57829003601f168201915b5050505050908060060154908060070160009054906101000a900473ffffffffffffffffffffffffffffffffffffffff16905088565b6000806001905060005b60008054905081101561138057600080828154811061132c5761132b612ed2565b5b906000526020600020906008020190508480519060200120816000016040516113559190612f99565b60405180910390200361136c576000925050611380565b5080806113789061320f565b91505061130a565b5080915050919050565b6000151561139784611300565b1515146113d9576040517f08c379a00000000000000000000000000000000000000000000000000000000081526004016113d090613499565b60405180910390fd5b60006113e484611e65565b90508060070160009054906101000a900473ffffffffffffffffffffffffffffffffffffffff1673ffffffffffffffffffffffffffffffffffffffff163373ffffffffffffffffffffffffffffffffffffffff1603611478576040517f08c379a000000000000000000000000000000000000000000000000000000000815260040161146f9061352b565b60405180910390fd5b82600260003373ffffffffffffffffffffffffffffffffffffffff1673ffffffffffffffffffffffffffffffffffffffff1681526020019081526020016000205410156114fa576040517f08c379a00000000000000000000000000000000000000000000000000000000081526004016114f190613597565b60405180910390fd5b82600260003373ffffffffffffffffffffffffffffffffffffffff1673ffffffffffffffffffffffffffffffffffffffff16815260200190815260200160002060008282546115499190613316565b92505081905550670de0b6b3a76400008361156491906135e6565b9250806001015483826006015461157b9190613617565b1061159257806001015481600601819055506115ae565b828160060160008282546115a69190613617565b925050819055505b600060405180606001604052803373ffffffffffffffffffffffffffffffffffffffff1681526020018581526020018481525090506001856040516115f391906132ff565b908152602001604051809103902081908060018154018082558091505060019003906000526020600020906003020160009091909190915060008201518160000160006101000a81548173ffffffffffffffffffffffffffffffffffffffff021916908373ffffffffffffffffffffffffffffffffffffffff1602179055506020820151816001015560408201518160020190816116919190612d3e565b50505081600101548260060154036116ad576116ac85610391565b5b806040516116bb9190613690565b60405180910390207fdec360b0577bfef00e9bd6fc701e8eddf85e1ba47cafba43e8bd3346d6e5f25f866040516116f291906136a7565b60405180910390a25050505050565b34600260003373ffffffffffffffffffffffffffffffffffffffff1673ffffffffffffffffffffffffffffffffffffffff16815260200190815260200160002060008282546117509190613617565b92505081905550565b80600260003373ffffffffffffffffffffffffffffffffffffffff1673ffffffffffffffffffffffffffffffffffffffff1681526020019081526020016000205410156117db576040517f08c379a00000000000000000000000000000000000000000000000000000000081526004016117d290613597565b60405180910390fd5b80600260003373ffffffffffffffffffffffffffffffffffffffff1673ffffffffffffffffffffffffffffffffffffffff168152602001908152602001600020600082825461182a9190613316565b925050819055503373ffffffffffffffffffffffffffffffffffffffff166108fc829081150290604051600060405180830381858888f19350505050158015611877573d6000803e3d6000fd5b503373ffffffffffffffffffffffffffffffffffffffff167f736fe5656fcd35d9d20cbd1c42f7f6256ee31aea93b61054d47141c4927e220a826040516118be919061230b565b60405180910390a250565b6000600260008373ffffffffffffffffffffffffffffffffffffffff1673ffffffffffffffffffffffffffffffffffffffff168152602001908152602001600020549050919050565b60606000805b6000805490508110156119c3576040518060400160405280600781526020017f44656c6574656400000000000000000000000000000000000000000000000000815250805190602001206000828154811061197657611975612ed2565b5b90600052602060002090600802016005016040516119949190612f99565b6040518091039020146119b05781806119ac9061320f565b9250505b80806119bb9061320f565b915050611918565b5060008167ffffffffffffffff8111156119e0576119df611fae565b5b604051908082528060200260200182016040528015611a1957816020015b611a06611f24565b8152602001906001900390816119fe5790505b5090506000805b600080549050811015611e5b576040518060400160405280600781526020017f44656c65746564000000000000000000000000000000000000000000000000008152508051906020012060008281548110611a7e57611a7d612ed2565b5b9060005260206000209060080201600501604051611a9c9190612f99565b604051809103902014611e485760008181548110611abd57611abc612ed2565b5b906000526020600020906008020160405180610100016040529081600082018054611ae790612b61565b80601f0160208091040260200160405190810160405280929190818152602001828054611b1390612b61565b8015611b605780601f10611b3557610100808354040283529160200191611b60565b820191906000526020600020905b815481529060010190602001808311611b4357829003601f168201915b5050505050815260200160018201548152602001600282018054611b8390612b61565b80601f0160208091040260200160405190810160405280929190818152602001828054611baf90612b61565b8015611bfc5780601f10611bd157610100808354040283529160200191611bfc565b820191906000526020600020905b815481529060010190602001808311611bdf57829003601f168201915b50505050508152602001600382018054611c1590612b61565b80601f0160208091040260200160405190810160405280929190818152602001828054611c4190612b61565b8015611c8e5780601f10611c6357610100808354040283529160200191611c8e565b820191906000526020600020905b815481529060010190602001808311611c7157829003601f168201915b50505050508152602001600482018054611ca790612b61565b80601f0160208091040260200160405190810160405280929190818152602001828054611cd390612b61565b8015611d205780601f10611cf557610100808354040283529160200191611d20565b820191906000526020600020905b815481529060010190602001808311611d0357829003601f168201915b50505050508152602001600582018054611d3990612b61565b80601f0160208091040260200160405190810160405280929190818152602001828054611d6590612b61565b8015611db25780601f10611d8757610100808354040283529160200191611db2565b820191906000526020600020905b815481529060010190602001808311611d9557829003601f168201915b50505050508152602001600682015481526020016007820160009054906101000a900473ffffffffffffffffffffffffffffffffffffffff1673ffffffffffffffffffffffffffffffffffffffff1673ffffffffffffffffffffffffffffffffffffffff1681525050838381518110611e2e57611e2d612ed2565b5b60200260200101819052508180611e449061320f565b9250505b8080611e539061320f565b915050611a20565b5081935050505090565b600080600090505b600080549050811015611ee3576000808281548110611e8f57611e8e612ed2565b5b90600052602060002090600802019050838051906020012081600001604051611eb89190612f99565b604051809103902003611ecf578092505050611f1f565b508080611edb9061320f565b915050611e6d565b506040517f08c379a0000000000000000000000000000000000000000000000000000000008152600401611f1690613715565b60405180910390fd5b919050565b60405180610100016040528060608152602001600081526020016060815260200160608152602001606081526020016060815260200160008152602001600073ffffffffffffffffffffffffffffffffffffffff1681525090565b6000604051905090565b600080fd5b600080fd5b600080fd5b600080fd5b6000601f19601f8301169050919050565b7f4e487b7100000000000000000000000000000000000000000000000000000000600052604160045260246000fd5b611fe682611f9d565b810181811067ffffffffffffffff8211171561200557612004611fae565b5b80604052505050565b6000612018611f7f565b90506120248282611fdd565b919050565b600067ffffffffffffffff82111561204457612043611fae565b5b61204d82611f9d565b9050602081019050919050565b82818337600083830152505050565b600061207c61207784612029565b61200e565b90508281526020810184848401111561209857612097611f98565b5b6120a384828561205a565b509392505050565b600082601f8301126120c0576120bf611f93565b5b81356120d0848260208601612069565b91505092915050565b6000602082840312156120ef576120ee611f89565b5b600082013567ffffffffffffffff81111561210d5761210c611f8e565b5b612119848285016120ab565b91505092915050565b6000819050919050565b61213581612122565b811461214057600080fd5b50565b6000813590506121528161212c565b92915050565b60008060008060008060c0878903121561217557612174611f89565b5b600087013567ffffffffffffffff81111561219357612192611f8e565b5b61219f89828a016120ab565b965050602087013567ffffffffffffffff8111156121c0576121bf611f8e565b5b6121cc89828a016120ab565b95505060406121dd89828a01612143565b945050606087013567ffffffffffffffff8111156121fe576121fd611f8e565b5b61220a89828a016120ab565b935050608087013567ffffffffffffffff81111561222b5761222a611f8e565b5b61223789828a016120ab565b92505060a087013567ffffffffffffffff81111561225857612257611f8e565b5b61226489828a016120ab565b9150509295509295509295565b600073ffffffffffffffffffffffffffffffffffffffff82169050919050565b600061229c82612271565b9050919050565b6122ac81612291565b81146122b757600080fd5b50565b6000813590506122c9816122a3565b92915050565b6000602082840312156122e5576122e4611f89565b5b60006122f3848285016122ba565b91505092915050565b61230581612122565b82525050565b600060208201905061232060008301846122fc565b92915050565b600081519050919050565b600082825260208201905092915050565b6000819050602082019050919050565b61235b81612291565b82525050565b61236a81612122565b82525050565b600081519050919050565b600082825260208201905092915050565b60005b838110156123aa57808201518184015260208101905061238f565b60008484015250505050565b60006123c182612370565b6123cb818561237b565b93506123db81856020860161238c565b6123e481611f9d565b840191505092915050565b60006060830160008301516124076000860182612352565b50602083015161241a6020860182612361565b506040830151848203604086015261243282826123b6565b9150508091505092915050565b600061244b83836123ef565b905092915050565b6000602082019050919050565b600061246b82612326565b6124758185612331565b93508360208202850161248785612342565b8060005b858110156124c357848403895281516124a4858261243f565b94506124af83612453565b925060208a0199505060018101905061248b565b50829750879550505050505092915050565b600060208201905081810360008301526124ef8184612460565b905092915050565b6000806040838503121561250e5761250d611f89565b5b600083013567ffffffffffffffff81111561252c5761252b611f8e565b5b612538858286016120ab565b925050602061254985828601612143565b9150509250929050565b61255c81612291565b82525050565b600082825260208201905092915050565b600061257e82612370565b6125888185612562565b935061259881856020860161238c565b6125a181611f9d565b840191505092915050565b60006060820190506125c16000830186612553565b6125ce60208301856122fc565b81810360408301526125e08184612573565b9050949350505050565b600080600080600060a0868803121561260657612605611f89565b5b600086013567ffffffffffffffff81111561262457612623611f8e565b5b612630888289016120ab565b955050602061264188828901612143565b945050604086013567ffffffffffffffff81111561266257612661611f8e565b5b61266e888289016120ab565b935050606086013567ffffffffffffffff81111561268f5761268e611f8e565b5b61269b888289016120ab565b925050608086013567ffffffffffffffff8111156126bc576126bb611f8e565b5b6126c8888289016120ab565b9150509295509295909350565b6000602082840312156126eb576126ea611f89565b5b60006126f984828501612143565b91505092915050565b600061010082019050818103600083015261271d818b612573565b905061272c602083018a6122fc565b818103604083015261273e8189612573565b905081810360608301526127528188612573565b905081810360808301526127668187612573565b905081810360a083015261277a8186612573565b905061278960c08301856122fc565b61279660e0830184612553565b9998505050505050505050565b60008115159050919050565b6127b8816127a3565b82525050565b60006020820190506127d360008301846127af565b92915050565b6000806000606084860312156127f2576127f1611f89565b5b600084013567ffffffffffffffff8111156128105761280f611f8e565b5b61281c868287016120ab565b935050602061282d86828701612143565b925050604084013567ffffffffffffffff81111561284e5761284d611f8e565b5b61285a868287016120ab565b9150509250925092565b600081519050919050565b600082825260208201905092915050565b6000819050602082019050919050565b60006101008301600083015184820360008601526128ae82826123b6565b91505060208301516128c36020860182612361565b50604083015184820360408601526128db82826123b6565b915050606083015184820360608601526128f582826123b6565b9150506080830151848203608086015261290f82826123b6565b91505060a083015184820360a086015261292982826123b6565b91505060c083015161293e60c0860182612361565b5060e083015161295160e0860182612352565b508091505092915050565b60006129688383612890565b905092915050565b6000602082019050919050565b600061298882612864565b612992818561286f565b9350836020820285016129a485612880565b8060005b858110156129e057848403895281516129c1858261295c565b94506129cc83612970565b925060208a019950506001810190506129a8565b50829750879550505050505092915050565b60006020820190508181036000830152612a0c818461297d565b905092915050565b7f43616d706169676e206e6f742066756c6c792066756e64656400000000000000600082015250565b6000612a4a601983612562565b9150612a5582612a14565b602082019050919050565b60006020820190508181036000830152612a7981612a3d565b9050919050565b600081905092915050565b50565b6000612a9b600083612a80565b9150612aa682612a8b565b600082019050919050565b6000612abc82612a8e565b9150819050919050565b7f5472616e73666572206661696c65640000000000000000000000000000000000600082015250565b6000612afc600f83612562565b9150612b0782612ac6565b602082019050919050565b60006020820190508181036000830152612b2b81612aef565b9050919050565b7f4e487b7100000000000000000000000000000000000000000000000000000000600052602260045260246000fd5b60006002820490506001821680612b7957607f821691505b602082108103612b8c57612b8b612b32565b5b50919050565b60008190508160005260206000209050919050565b60006020601f8301049050919050565b600082821b905092915050565b600060088302612bf47fffffffffffffffffffffffffffffffffffffffffffffffffffffffffffffffff82612bb7565b612bfe8683612bb7565b95508019841693508086168417925050509392505050565b6000819050919050565b6000612c3b612c36612c3184612122565b612c16565b612122565b9050919050565b6000819050919050565b612c5583612c20565b612c69612c6182612c42565b848454612bc4565b825550505050565b600090565b612c7e612c71565b612c89818484612c4c565b505050565b5b81811015612cad57612ca2600082612c76565b600181019050612c8f565b5050565b601f821115612cf257612cc381612b92565b612ccc84612ba7565b81016020851015612cdb578190505b612cef612ce785612ba7565b830182612c8e565b50505b505050565b600082821c905092915050565b6000612d1560001984600802612cf7565b1980831691505092915050565b6000612d2e8383612d04565b9150826002028217905092915050565b612d4782612370565b67ffffffffffffffff811115612d6057612d5f611fae565b5b612d6a8254612b61565b612d75828285612cb1565b600060209050601f831160018114612da85760008415612d96578287015190505b612da08582612d22565b865550612e08565b601f198416612db686612b92565b60005b82811015612dde57848901518255600182019150602085019450602081019050612db9565b86831015612dfb5784890151612df7601f891682612d04565b8355505b6001600288020188555050505b505050505050565b6000604082019050612e2560008301856122fc565b8181036020830152612e378184612573565b90509392505050565b7f43616e6e6f742061646420612063616d70616761696e20776974682073616d6560008201527f206e616d65000000000000000000000000000000000000000000000000000000602082015250565b6000612e9c602583612562565b9150612ea782612e40565b604082019050919050565b60006020820190508181036000830152612ecb81612e8f565b9050919050565b7f4e487b7100000000000000000000000000000000000000000000000000000000600052603260045260246000fd5b60008190508160005260206000209050919050565b60008154612f2381612b61565b612f2d8186612a80565b94506001821660008114612f485760018114612f5d57612f90565b60ff1983168652811515820286019350612f90565b612f6685612f01565b60005b83811015612f8857815481890152600182019150602081019050612f69565b838801955050505b50505092915050565b6000612fa58284612f16565b915081905092915050565b600081905092915050565b60008154612fc881612b61565b612fd28186612fb0565b94506001821660008114612fed576001811461300357613036565b60ff198316865281151560200286019350613036565b61300c85612b92565b60005b8381101561302e5781548189015260018201915060208101905061300f565b808801955050505b50505092915050565b600061304b8383612fbb565b905092915050565b60008160001c9050919050565b6000819050919050565b600061307d61307883613053565b613060565b9050919050565b61308d81612122565b82525050565b600061309f8383613084565b60208301905092915050565b600073ffffffffffffffffffffffffffffffffffffffff82169050919050565b60006130de6130d983613053565b6130ab565b9050919050565b6130ee81612291565b82525050565b600061310083836130e5565b60208301905092915050565b60008083016000808401613120868261303f565b955050600184015490506131338161306a565b61313d8682613093565b9550506002840161314e868261303f565b9550506003840161315f868261303f565b95505060048401613170868261303f565b95505060058401613181868261303f565b955050600684015490506131948161306a565b61319e8682613093565b955050600784015490506131b1816130cb565b6131bb86826130f4565b955050849250505092915050565b60006131d5828461310c565b915081905092915050565b7f4e487b7100000000000000000000000000000000000000000000000000000000600052601160045260246000fd5b600061321a82612122565b91507fffffffffffffffffffffffffffffffffffffffffffffffffffffffffffffffff820361324c5761324b6131e0565b5b600182019050919050565b7f4e6f2066756e6473207261697365640000000000000000000000000000000000600082015250565b600061328d600f83612562565b915061329882613257565b602082019050919050565b600060208201905081810360008301526132bc81613280565b9050919050565b600081905092915050565b60006132d982612370565b6132e381856132c3565b93506132f381856020860161238c565b80840191505092915050565b600061330b82846132ce565b915081905092915050565b600061332182612122565b915061332c83612122565b9250828203905081811115613344576133436131e0565b5b92915050565b600061335582612370565b61335f8185612fb0565b935061336f81856020860161238c565b61337881611f9d565b840191505092915050565b600061338f838361334a565b905092915050565b600080830160008301516133ab8582613383565b94505060208301516133bd8582613093565b94505060408301516133cf8582613383565b94505060608301516133e18582613383565b94505060808301516133f38582613383565b94505060a08301516134058582613383565b94505060c08301516134178582613093565b94505060e083015161342985826130f4565b9450508391505092915050565b60006134428284613397565b915081905092915050565b7f496e76616c6964207469746c652070726f766964656400000000000000000000600082015250565b6000613483601683612562565b915061348e8261344d565b602082019050919050565b600060208201905081810360008301526134b281613476565b9050919050565b7f4f776e65722063616e6e6f74206261636b20686973206f776e2063616d70616960008201527f676e000000000000000000000000000000000000000000000000000000000000602082015250565b6000613515602283612562565b9150613520826134b9565b604082019050919050565b6000602082019050818103600083015261354481613508565b9050919050565b7f496e73756666696369656e742062616c616e6365000000000000000000000000600082015250565b6000613581601483612562565b915061358c8261354b565b602082019050919050565b600060208201905081810360008301526135b081613574565b9050919050565b7f4e487b7100000000000000000000000000000000000000000000000000000000600052601260045260246000fd5b60006135f182612122565b91506135fc83612122565b92508261360c5761360b6135b7565b5b828204905092915050565b600061362282612122565b915061362d83612122565b9250828201905080821115613645576136446131e0565b5b92915050565b6000808301600083015161365f85826130f4565b94505060208301516136718582613093565b94505060408301516136838582613383565b9450508391505092915050565b600061369c828461364b565b915081905092915050565b600060208201905081810360008301526136c18184612573565b905092915050565b7f43616d706169676e206e6f7420666f756e640000000000000000000000000000600082015250565b60006136ff601283612562565b915061370a826136c9565b602082019050919050565b6000602082019050818103600083015261372e816136f2565b905091905056fea264697066735822122046f4646fcf51a04bd2bc55883f97ce442b2b0419fb59546300af9c29fc19689664736f6c63430008130033",
  "immutableReferences": {},
  "source": "// SPDX-License-Identifier: Ahmed FAST-NU\r\npragma solidity ^0.8.0;\r\n\r\ncontract Nobiety {\r\n    struct Backer{\r\n    address backer;\r\n    uint256 donation;\r\n    string time;\r\n    }\r\n\r\n    struct Campaign{\r\n        string title;\r\n        uint256 amount;\r\n        string date;\r\n        string url;\r\n        string description;\r\n        string status;\r\n        uint256 raisedAmount;\r\n        address owner;\r\n    }\r\n\r\n    Campaign[] public allCampaignList;\r\n    mapping(string=>Backer[]) public backers; //map backer list to title\r\n    mapping(address => uint256) public balances;\r\n\r\n\r\n\r\n        constructor() {\r\n    }\r\n    \r\n    event launchCampagin(Campaign indexed);\r\n    event updateCampagin(Campaign indexed);\r\n    event deleteCampagin(Campaign indexed);\r\n    event backerCampagin(Backer indexed,string);\r\n    event refund(address indexed,uint256,string);\r\n    event fundsSentToOwner(address indexed,uint256,string);\r\n    event withdrawAmount(address indexed,uint256);\r\n\r\n     function getCampaign(string memory _title) internal view returns (Campaign storage) {\r\n        for (uint256 i = 0; i < allCampaignList.length; i++) {\r\n            Campaign storage currentCampaign = allCampaignList[i];\r\n            if (keccak256(bytes(currentCampaign.title)) == keccak256(bytes(_title))) {\r\n                return currentCampaign;\r\n            }\r\n        }\r\n        revert(\"Campaign not found\");\r\n    }\r\n\r\n\r\n\r\n   function deposit() public payable {\r\n    balances[msg.sender] += msg.value;\r\n    }\r\n\r\n    function getDeposit(address ad) public view returns (uint256){\r\n        return balances[ad];\r\n    }\r\n\r\n    \r\n    function withdrawBalance(uint _amount) public payable {\r\n       require(balances[msg.sender] >= _amount, \"Insufficient balance\");\r\n        balances[msg.sender] -= _amount;\r\n        payable(msg.sender).transfer(_amount);\r\n        emit withdrawAmount(msg.sender, _amount);\r\n    }\r\n\r\n    function backCampaign(string memory _title,uint _donation,string memory _time) public {\r\n        require(isTitleExist(_title)==false,\"Invalid title provided\");\r\n        Campaign storage currentCampaign = getCampaign(_title);\r\n        require(msg.sender != currentCampaign.owner, \"Owner cannot back his own campaign\");\r\n        require(balances[msg.sender] >= _donation, \"Insufficient balance\");\r\n        balances[msg.sender] -= _donation;\r\n        _donation = _donation / 1000000000000000000;\r\n        if (currentCampaign.raisedAmount+_donation >= currentCampaign.amount) {\r\n            currentCampaign.raisedAmount = currentCampaign.amount;\r\n        }\r\n        else \r\n            currentCampaign.raisedAmount += _donation;\r\n        Backer memory backer = Backer({\r\n                backer : msg.sender,\r\n                donation : _donation,\r\n                time : _time\r\n        });\r\n            backers[_title].push(backer);\r\n            if (currentCampaign.raisedAmount == currentCampaign.amount) {\r\n                sendFundsToOwner(_title);\r\n            }\r\n            emit backerCampagin(backer,_title);\r\n    }\r\n    \r\n\r\n    function sendFundsToOwner(string memory _title) public payable {\r\n        Campaign storage currentCampaign = getCampaign(_title);\r\n\r\n        require(currentCampaign.raisedAmount < currentCampaign.amount, \"Campaign not fully funded\");\r\n\r\n        uint256 amountToSend = currentCampaign.raisedAmount;\r\n        address payable owner = payable(currentCampaign.owner);\r\n\r\n        (bool success, ) = owner.call{value: amountToSend}(\"\");\r\n        require(success, \"Transfer failed\");\r\n        currentCampaign.status = \"Raised\";\r\n        emit fundsSentToOwner(owner, amountToSend, _title);\r\n    }\r\n\r\n    function isTitleExist(string memory title) public view  returns(bool) {\r\n     bool flag = true;\r\n     for (uint256 i = 0; i < allCampaignList.length; i++) {\r\n        Campaign storage currentCampaign = allCampaignList[i];\r\n        if (keccak256(bytes(currentCampaign.title)) == keccak256(bytes(title))) {\r\n            flag = false;\r\n            break;\r\n        }\r\n    }\r\n    return flag;\r\n}\r\n\r\n   function addCampaign(string memory _title, uint256 _amount, string memory _date, string memory _url, string memory _description) public {\r\n        require(isTitleExist(_title),\"Cannot add a campagain with same name\");\r\n        Campaign memory newCampaign = Campaign({\r\n            title: _title,\r\n            amount: _amount,\r\n            date: _date,\r\n            url: _url,\r\n            description: _description,\r\n            status : \"Live\",\r\n            raisedAmount : 0.00,\r\n            owner : msg.sender\r\n        });\r\n       \r\n        allCampaignList.push(newCampaign);\r\n        emit launchCampagin(newCampaign);\r\n        \r\n    }\r\n\r\n    function updateCampaign(string memory _oldTitle, string memory _title, uint256 _amount, string memory _date, string memory _url, string memory _description) public {\r\n    require(isTitleExist(_title),\"Cannot add a campagain with same name\");\r\n    for (uint256 i = 0; i < allCampaignList.length; i++) {\r\n        Campaign storage currentCampaign = allCampaignList[i];\r\n        if (keccak256(bytes(currentCampaign.title)) == keccak256(bytes(_oldTitle)) && currentCampaign.owner == msg.sender) {\r\n            currentCampaign.title = _title;\r\n            currentCampaign.amount = _amount;\r\n            currentCampaign.date = _date;\r\n            currentCampaign.url = _url;\r\n            currentCampaign.description = _description;\r\n            emit updateCampagin(currentCampaign);\r\n            break;\r\n        }\r\n    }\r\n    }\r\n\r\n    function deleteCampaign(string memory _title) public {\r\n        \r\n    for (uint256 i = 0; i < allCampaignList.length; i++) {\r\n        Campaign storage currentCampaign = allCampaignList[i];\r\n        if (keccak256(bytes(currentCampaign.title)) == keccak256(bytes(_title)) && currentCampaign.owner == msg.sender) {\r\n          currentCampaign.status = \"Deleted\";\r\n          if(currentCampaign.raisedAmount>0){\r\n                refundCampaign(currentCampaign.title);\r\n          }\r\n          emit deleteCampagin(currentCampaign);\r\n          break;\r\n        }\r\n    }\r\n    }\r\n\r\n    function refundCampaign(string memory _title) public payable {\r\n        Campaign storage currentCampaign = getCampaign(_title);\r\n\r\n        require(currentCampaign.raisedAmount > 0, \"No funds raised\");\r\n\r\n        for (uint256 i = 0; i < backers[_title].length; i++) {\r\n            Backer storage currentBacker = backers[_title][i];\r\n            uint256 donation = currentBacker.donation;\r\n            address payable backer = payable(currentBacker.backer);\r\n\r\n           // balances[backer] += donation;\r\n            currentCampaign.raisedAmount -= donation;\r\n\r\n            emit refund(backer, donation, _title);\r\n            \r\n            (bool success, ) = backer.call{value: donation}(\"\");\r\n            require(success, \"Transfer failed\");\r\n        }\r\n    }\r\n    \r\n    function getBackers(string memory _title) public view returns (Backer[] memory) {\r\n        return backers[_title];\r\n    }\r\n\r\n     function getAllCampaignList() public view returns (Campaign[] memory) {\r\n        uint256 count = 0;\r\n        for (uint256 i = 0; i < allCampaignList.length; i++) {\r\n            if (keccak256(bytes(allCampaignList[i].status)) != keccak256(bytes(\"Deleted\"))) {\r\n                count++;\r\n            }\r\n        }\r\n        Campaign[] memory temp = new Campaign[](count);\r\n         uint256 j = 0;\r\n        for (uint256 i = 0; i < allCampaignList.length; i++) {\r\n            if (keccak256(bytes(allCampaignList[i].status)) != keccak256(bytes(\"Deleted\"))) {\r\n                temp[j] = allCampaignList[i];\r\n                j++;\r\n            }\r\n        }\r\n        return temp;\r\n    }  \r\n\r\n}",
  "sourcePath": "I:\\University Data\\FAST semester work\\Semester 8 work\\Blockchain\\Practice\\crowd_fund\\contracts\\Nobiety.sol",
  "compiler": {
    "name": "solc",
    "version": "0.8.19+commit.7dd6d404.Emscripten.clang"
  },
  "schemaVersion": "3.4.13",
  "updatedAt": "2023-04-22T00:37:10.886Z",
  "networkType": "ethereum",
  "devdoc": {
    "kind": "dev",
    "methods": {},
    "version": 1
  },
  "userdoc": {
    "kind": "user",
    "methods": {},
    "version": 1
  }
}