{
  "contractName": "Nobiety",
  "abi": [
    {
      "inputs": [],
      "stateMutability": "nonpayable",
      "type": "constructor"
    },
    {
      "anonymous": false,
      "inputs": [
        {
          "components": [
            {
              "internalType": "string",
              "name": "title",
              "type": "string"
            },
            {
              "internalType": "uint256",
              "name": "amount",
              "type": "uint256"
            },
            {
              "internalType": "string",
              "name": "url",
              "type": "string"
            },
            {
              "internalType": "string",
              "name": "description",
              "type": "string"
            },
            {
              "internalType": "string",
              "name": "status",
              "type": "string"
            },
            {
              "internalType": "uint256",
              "name": "raisedAmount",
              "type": "uint256"
            },
            {
              "internalType": "address",
              "name": "owner",
              "type": "address"
            }
          ],
          "indexed": true,
          "internalType": "struct Nobiety.Campaign",
          "name": "cam",
          "type": "tuple"
        }
      ],
      "name": "deleteCampagin",
      "type": "event"
    },
    {
      "anonymous": false,
      "inputs": [
        {
          "components": [
            {
              "internalType": "string",
              "name": "title",
              "type": "string"
            },
            {
              "internalType": "uint256",
              "name": "amount",
              "type": "uint256"
            },
            {
              "internalType": "string",
              "name": "url",
              "type": "string"
            },
            {
              "internalType": "string",
              "name": "description",
              "type": "string"
            },
            {
              "internalType": "string",
              "name": "status",
              "type": "string"
            },
            {
              "internalType": "uint256",
              "name": "raisedAmount",
              "type": "uint256"
            },
            {
              "internalType": "address",
              "name": "owner",
              "type": "address"
            }
          ],
          "indexed": true,
          "internalType": "struct Nobiety.Campaign",
          "name": "cam",
          "type": "tuple"
        }
      ],
      "name": "launchCampagin",
      "type": "event"
    },
    {
      "anonymous": false,
      "inputs": [
        {
          "components": [
            {
              "internalType": "string",
              "name": "title",
              "type": "string"
            },
            {
              "internalType": "uint256",
              "name": "amount",
              "type": "uint256"
            },
            {
              "internalType": "string",
              "name": "url",
              "type": "string"
            },
            {
              "internalType": "string",
              "name": "description",
              "type": "string"
            },
            {
              "internalType": "string",
              "name": "status",
              "type": "string"
            },
            {
              "internalType": "uint256",
              "name": "raisedAmount",
              "type": "uint256"
            },
            {
              "internalType": "address",
              "name": "owner",
              "type": "address"
            }
          ],
          "indexed": true,
          "internalType": "struct Nobiety.Campaign",
          "name": "cam",
          "type": "tuple"
        }
      ],
      "name": "updateCampagin",
      "type": "event"
    },
    {
      "inputs": [
        {
          "internalType": "uint256",
          "name": "",
          "type": "uint256"
        }
      ],
      "name": "allCampaignList",
      "outputs": [
        {
          "internalType": "string",
          "name": "title",
          "type": "string"
        },
        {
          "internalType": "uint256",
          "name": "amount",
          "type": "uint256"
        },
        {
          "internalType": "string",
          "name": "url",
          "type": "string"
        },
        {
          "internalType": "string",
          "name": "description",
          "type": "string"
        },
        {
          "internalType": "string",
          "name": "status",
          "type": "string"
        },
        {
          "internalType": "uint256",
          "name": "raisedAmount",
          "type": "uint256"
        },
        {
          "internalType": "address",
          "name": "owner",
          "type": "address"
        }
      ],
      "stateMutability": "view",
      "type": "function",
      "constant": true
    },
    {
      "inputs": [
        {
          "internalType": "string",
          "name": "",
          "type": "string"
        },
        {
          "internalType": "uint256",
          "name": "",
          "type": "uint256"
        }
      ],
      "name": "backers",
      "outputs": [
        {
          "internalType": "address",
          "name": "backer",
          "type": "address"
        },
        {
          "internalType": "uint256",
          "name": "donation",
          "type": "uint256"
        },
        {
          "internalType": "string",
          "name": "time",
          "type": "string"
        }
      ],
      "stateMutability": "view",
      "type": "function",
      "constant": true
    },
    {
      "inputs": [
        {
          "internalType": "string",
          "name": "title",
          "type": "string"
        }
      ],
      "name": "isNameExist",
      "outputs": [
        {
          "internalType": "bool",
          "name": "",
          "type": "bool"
        }
      ],
      "stateMutability": "view",
      "type": "function",
      "constant": true
    },
    {
      "inputs": [
        {
          "internalType": "string",
          "name": "_title",
          "type": "string"
        },
        {
          "internalType": "uint256",
          "name": "_amount",
          "type": "uint256"
        },
        {
          "internalType": "string",
          "name": "_url",
          "type": "string"
        },
        {
          "internalType": "string",
          "name": "_description",
          "type": "string"
        }
      ],
      "name": "addCampaign",
      "outputs": [],
      "stateMutability": "nonpayable",
      "type": "function"
    },
    {
      "inputs": [
        {
          "internalType": "string",
          "name": "_oldTitle",
          "type": "string"
        },
        {
          "internalType": "string",
          "name": "_title",
          "type": "string"
        },
        {
          "internalType": "uint256",
          "name": "_amount",
          "type": "uint256"
        },
        {
          "internalType": "string",
          "name": "_url",
          "type": "string"
        },
        {
          "internalType": "string",
          "name": "_description",
          "type": "string"
        }
      ],
      "name": "updateCampaign",
      "outputs": [],
      "stateMutability": "nonpayable",
      "type": "function"
    },
    {
      "inputs": [
        {
          "internalType": "string",
          "name": "_title",
          "type": "string"
        }
      ],
      "name": "deleteCampaign",
      "outputs": [],
      "stateMutability": "nonpayable",
      "type": "function"
    },
    {
      "inputs": [],
      "name": "getAllCampaignList",
      "outputs": [
        {
          "components": [
            {
              "internalType": "string",
              "name": "title",
              "type": "string"
            },
            {
              "internalType": "uint256",
              "name": "amount",
              "type": "uint256"
            },
            {
              "internalType": "string",
              "name": "url",
              "type": "string"
            },
            {
              "internalType": "string",
              "name": "description",
              "type": "string"
            },
            {
              "internalType": "string",
              "name": "status",
              "type": "string"
            },
            {
              "internalType": "uint256",
              "name": "raisedAmount",
              "type": "uint256"
            },
            {
              "internalType": "address",
              "name": "owner",
              "type": "address"
            }
          ],
          "internalType": "struct Nobiety.Campaign[]",
          "name": "",
          "type": "tuple[]"
        }
      ],
      "stateMutability": "view",
      "type": "function",
      "constant": true
    }
  ],
  "bytecode": "0x608060405234801561001057600080fd5b50611f56806100206000396000f3fe608060405234801561001057600080fd5b506004361061007d5760003560e01c8063c3fcf9d31161005b578063c3fcf9d314610106578063e1b3727d14610136578063ef59bef514610154578063f9b713d9146101705761007d565b80636d25a5f31461008257806377adfc64146100b4578063ae87732d146100d0575b600080fd5b61009c600480360381019061009791906110fd565b61018c565b6040516100ab93929190611228565b60405180910390f35b6100ce60048036038101906100c99190611266565b610291565b005b6100ea60048036038101906100e591906112af565b6103ef565b6040516100fd97969594939291906112dc565b60405180910390f35b610120600480360381019061011b9190611266565b610681565b60405161012d9190611382565b60405180910390f35b61013e61070b565b60405161014b9190611578565b60405180910390f35b61016e6004803603810190610169919061159a565b610bcb565b005b61018a60048036038101906101859190611685565b610d25565b005b60018280516020810182018051848252602083016020850120818352809550505050505081815481106101be57600080fd5b9060005260206000209060030201600091509150508060000160009054906101000a900473ffffffffffffffffffffffffffffffffffffffff169080600101549080600201805461020e9061176f565b80601f016020809104026020016040519081016040528092919081815260200182805461023a9061176f565b80156102875780601f1061025c57610100808354040283529160200191610287565b820191906000526020600020905b81548152906001019060200180831161026a57829003601f168201915b5050505050905083565b60005b6000805490508110156103eb5760008082815481106102b6576102b56117a0565b5b906000526020600020906007020190508280519060200120816000016040516102df9190611872565b604051809103902014801561034357503373ffffffffffffffffffffffffffffffffffffffff168160060160009054906101000a900473ffffffffffffffffffffffffffffffffffffffff1673ffffffffffffffffffffffffffffffffffffffff16145b156103d7576040518060400160405280600781526020017f44656c657465640000000000000000000000000000000000000000000000000081525081600401908161038e9190611a35565b508060405161039d9190611d0f565b60405180910390207fa93106194c51f40f30461d8a0aadf3f3aad1c3d2bc6d9361223f9ae30aa51e7d60405160405180910390a2506103eb565b5080806103e390611d55565b915050610294565b5050565b600081815481106103ff57600080fd5b90600052602060002090600702016000915090508060000180546104229061176f565b80601f016020809104026020016040519081016040528092919081815260200182805461044e9061176f565b801561049b5780601f106104705761010080835404028352916020019161049b565b820191906000526020600020905b81548152906001019060200180831161047e57829003601f168201915b5050505050908060010154908060020180546104b69061176f565b80601f01602080910402602001604051908101604052809291908181526020018280546104e29061176f565b801561052f5780601f106105045761010080835404028352916020019161052f565b820191906000526020600020905b81548152906001019060200180831161051257829003601f168201915b5050505050908060030180546105449061176f565b80601f01602080910402602001604051908101604052809291908181526020018280546105709061176f565b80156105bd5780601f10610592576101008083540402835291602001916105bd565b820191906000526020600020905b8154815290600101906020018083116105a057829003601f168201915b5050505050908060040180546105d29061176f565b80601f01602080910402602001604051908101604052809291908181526020018280546105fe9061176f565b801561064b5780601f106106205761010080835404028352916020019161064b565b820191906000526020600020905b81548152906001019060200180831161062e57829003601f168201915b5050505050908060050154908060060160009054906101000a900473ffffffffffffffffffffffffffffffffffffffff16905087565b6000806001905060005b6000805490508110156107015760008082815481106106ad576106ac6117a0565b5b906000526020600020906007020190508480519060200120816000016040516106d69190611872565b6040518091039020036106ed576000925050610701565b5080806106f990611d55565b91505061068b565b5080915050919050565b60606000805b6000805490508110156107bc576040518060400160405280600781526020017f44656c6574656400000000000000000000000000000000000000000000000000815250805190602001206000828154811061076f5761076e6117a0565b5b906000526020600020906007020160040160405161078d9190611872565b6040518091039020146107a95781806107a590611d55565b9250505b80806107b490611d55565b915050610711565b5060008167ffffffffffffffff8111156107d9576107d8610f9c565b5b60405190808252806020026020018201604052801561081257816020015b6107ff610f1a565b8152602001906001900390816107f75790505b5090506000805b600080549050811015610bc1576040518060400160405280600781526020017f44656c65746564000000000000000000000000000000000000000000000000008152508051906020012060008281548110610877576108766117a0565b5b90600052602060002090600702016004016040516108959190611872565b604051809103902014610bae57600081815481106108b6576108b56117a0565b5b90600052602060002090600702016040518060e00160405290816000820180546108df9061176f565b80601f016020809104026020016040519081016040528092919081815260200182805461090b9061176f565b80156109585780601f1061092d57610100808354040283529160200191610958565b820191906000526020600020905b81548152906001019060200180831161093b57829003601f168201915b505050505081526020016001820154815260200160028201805461097b9061176f565b80601f01602080910402602001604051908101604052809291908181526020018280546109a79061176f565b80156109f45780601f106109c9576101008083540402835291602001916109f4565b820191906000526020600020905b8154815290600101906020018083116109d757829003601f168201915b50505050508152602001600382018054610a0d9061176f565b80601f0160208091040260200160405190810160405280929190818152602001828054610a399061176f565b8015610a865780601f10610a5b57610100808354040283529160200191610a86565b820191906000526020600020905b815481529060010190602001808311610a6957829003601f168201915b50505050508152602001600482018054610a9f9061176f565b80601f0160208091040260200160405190810160405280929190818152602001828054610acb9061176f565b8015610b185780601f10610aed57610100808354040283529160200191610b18565b820191906000526020600020905b815481529060010190602001808311610afb57829003601f168201915b50505050508152602001600582015481526020016006820160009054906101000a900473ffffffffffffffffffffffffffffffffffffffff1673ffffffffffffffffffffffffffffffffffffffff1673ffffffffffffffffffffffffffffffffffffffff1681525050838381518110610b9457610b936117a0565b5b60200260200101819052508180610baa90611d55565b9250505b8080610bb990611d55565b915050610819565b5081935050505090565b60005b600080549050811015610d1d576000808281548110610bf057610bef6117a0565b5b90600052602060002090600702019050868051906020012081600001604051610c199190611872565b6040518091039020148015610c7d57503373ffffffffffffffffffffffffffffffffffffffff168160060160009054906101000a900473ffffffffffffffffffffffffffffffffffffffff1673ffffffffffffffffffffffffffffffffffffffff16145b15610d095785816000019081610c939190611a35565b5084816001018190555083816002019081610cae9190611a35565b5082816003019081610cc09190611a35565b5080604051610ccf9190611d0f565b60405180910390207f5a159166ad47ef1d9952738151b5bd290aa5cc20227d3b5a51099ac0fdfd1aea60405160405180910390a250610d1d565b508080610d1590611d55565b915050610bce565b505050505050565b610d2e84610681565b610d6d576040517f08c379a0000000000000000000000000000000000000000000000000000000008152600401610d6490611e0f565b60405180910390fd5b60006040518060e001604052808681526020018581526020018481526020018381526020016040518060400160405280600481526020017f4c697665000000000000000000000000000000000000000000000000000000008152508152602001600081526020013373ffffffffffffffffffffffffffffffffffffffff16815250905060008190806001815401808255809150506001900390600052602060002090600702016000909190919091506000820151816000019081610e319190611a35565b50602082015181600101556040820151816002019081610e519190611a35565b506060820151816003019081610e679190611a35565b506080820151816004019081610e7d9190611a35565b5060a0820151816005015560c08201518160060160006101000a81548173ffffffffffffffffffffffffffffffffffffffff021916908373ffffffffffffffffffffffffffffffffffffffff160217905550505080604051610edf9190611f09565b60405180910390207fdf114626eab6c68e42e0b0a68f878706b10ed0e78ed3060e501cd028cb7356e960405160405180910390a25050505050565b6040518060e00160405280606081526020016000815260200160608152602001606081526020016060815260200160008152602001600073ffffffffffffffffffffffffffffffffffffffff1681525090565b6000604051905090565b600080fd5b600080fd5b600080fd5b600080fd5b6000601f19601f8301169050919050565b7f4e487b7100000000000000000000000000000000000000000000000000000000600052604160045260246000fd5b610fd482610f8b565b810181811067ffffffffffffffff82111715610ff357610ff2610f9c565b5b80604052505050565b6000611006610f6d565b90506110128282610fcb565b919050565b600067ffffffffffffffff82111561103257611031610f9c565b5b61103b82610f8b565b9050602081019050919050565b82818337600083830152505050565b600061106a61106584611017565b610ffc565b90508281526020810184848401111561108657611085610f86565b5b611091848285611048565b509392505050565b600082601f8301126110ae576110ad610f81565b5b81356110be848260208601611057565b91505092915050565b6000819050919050565b6110da816110c7565b81146110e557600080fd5b50565b6000813590506110f7816110d1565b92915050565b6000806040838503121561111457611113610f77565b5b600083013567ffffffffffffffff81111561113257611131610f7c565b5b61113e85828601611099565b925050602061114f858286016110e8565b9150509250929050565b600073ffffffffffffffffffffffffffffffffffffffff82169050919050565b600061118482611159565b9050919050565b61119481611179565b82525050565b6111a3816110c7565b82525050565b600081519050919050565b600082825260208201905092915050565b60005b838110156111e35780820151818401526020810190506111c8565b60008484015250505050565b60006111fa826111a9565b61120481856111b4565b93506112148185602086016111c5565b61121d81610f8b565b840191505092915050565b600060608201905061123d600083018661118b565b61124a602083018561119a565b818103604083015261125c81846111ef565b9050949350505050565b60006020828403121561127c5761127b610f77565b5b600082013567ffffffffffffffff81111561129a57611299610f7c565b5b6112a684828501611099565b91505092915050565b6000602082840312156112c5576112c4610f77565b5b60006112d3848285016110e8565b91505092915050565b600060e08201905081810360008301526112f6818a6111ef565b9050611305602083018961119a565b818103604083015261131781886111ef565b9050818103606083015261132b81876111ef565b9050818103608083015261133f81866111ef565b905061134e60a083018561119a565b61135b60c083018461118b565b98975050505050505050565b60008115159050919050565b61137c81611367565b82525050565b60006020820190506113976000830184611373565b92915050565b600081519050919050565b600082825260208201905092915050565b6000819050602082019050919050565b600082825260208201905092915050565b60006113e5826111a9565b6113ef81856113c9565b93506113ff8185602086016111c5565b61140881610f8b565b840191505092915050565b61141c816110c7565b82525050565b61142b81611179565b82525050565b600060e083016000830151848203600086015261144e82826113da565b91505060208301516114636020860182611413565b506040830151848203604086015261147b82826113da565b9150506060830151848203606086015261149582826113da565b915050608083015184820360808601526114af82826113da565b91505060a08301516114c460a0860182611413565b5060c08301516114d760c0860182611422565b508091505092915050565b60006114ee8383611431565b905092915050565b6000602082019050919050565b600061150e8261139d565b61151881856113a8565b93508360208202850161152a856113b9565b8060005b85811015611566578484038952815161154785826114e2565b9450611552836114f6565b925060208a0199505060018101905061152e565b50829750879550505050505092915050565b600060208201905081810360008301526115928184611503565b905092915050565b600080600080600060a086880312156115b6576115b5610f77565b5b600086013567ffffffffffffffff8111156115d4576115d3610f7c565b5b6115e088828901611099565b955050602086013567ffffffffffffffff81111561160157611600610f7c565b5b61160d88828901611099565b945050604061161e888289016110e8565b935050606086013567ffffffffffffffff81111561163f5761163e610f7c565b5b61164b88828901611099565b925050608086013567ffffffffffffffff81111561166c5761166b610f7c565b5b61167888828901611099565b9150509295509295909350565b6000806000806080858703121561169f5761169e610f77565b5b600085013567ffffffffffffffff8111156116bd576116bc610f7c565b5b6116c987828801611099565b94505060206116da878288016110e8565b935050604085013567ffffffffffffffff8111156116fb576116fa610f7c565b5b61170787828801611099565b925050606085013567ffffffffffffffff81111561172857611727610f7c565b5b61173487828801611099565b91505092959194509250565b7f4e487b7100000000000000000000000000000000000000000000000000000000600052602260045260246000fd5b6000600282049050600182168061178757607f821691505b60208210810361179a57611799611740565b5b50919050565b7f4e487b7100000000000000000000000000000000000000000000000000000000600052603260045260246000fd5b600081905092915050565b60008190508160005260206000209050919050565b600081546117fc8161176f565b61180681866117cf565b94506001821660008114611821576001811461183657611869565b60ff1983168652811515820286019350611869565b61183f856117da565b60005b8381101561186157815481890152600182019150602081019050611842565b838801955050505b50505092915050565b600061187e82846117ef565b915081905092915050565b60008190508160005260206000209050919050565b60006020601f8301049050919050565b600082821b905092915050565b6000600883026118eb7fffffffffffffffffffffffffffffffffffffffffffffffffffffffffffffffff826118ae565b6118f586836118ae565b95508019841693508086168417925050509392505050565b6000819050919050565b600061193261192d611928846110c7565b61190d565b6110c7565b9050919050565b6000819050919050565b61194c83611917565b61196061195882611939565b8484546118bb565b825550505050565b600090565b611975611968565b611980818484611943565b505050565b5b818110156119a45761199960008261196d565b600181019050611986565b5050565b601f8211156119e9576119ba81611889565b6119c38461189e565b810160208510156119d2578190505b6119e66119de8561189e565b830182611985565b50505b505050565b600082821c905092915050565b6000611a0c600019846008026119ee565b1980831691505092915050565b6000611a2583836119fb565b9150826002028217905092915050565b611a3e826111a9565b67ffffffffffffffff811115611a5757611a56610f9c565b5b611a61825461176f565b611a6c8282856119a8565b600060209050601f831160018114611a9f5760008415611a8d578287015190505b611a978582611a19565b865550611aff565b601f198416611aad86611889565b60005b82811015611ad557848901518255600182019150602085019450602081019050611ab0565b86831015611af25784890151611aee601f8916826119fb565b8355505b6001600288020188555050505b505050505050565b600081905092915050565b60008154611b1f8161176f565b611b298186611b07565b94506001821660008114611b445760018114611b5a57611b8d565b60ff198316865281151560200286019350611b8d565b611b6385611889565b60005b83811015611b8557815481890152600182019150602081019050611b66565b808801955050505b50505092915050565b6000611ba28383611b12565b905092915050565b60008160001c9050919050565b6000819050919050565b6000611bd4611bcf83611baa565b611bb7565b9050919050565b611be4816110c7565b82525050565b6000611bf68383611bdb565b60208301905092915050565b600073ffffffffffffffffffffffffffffffffffffffff82169050919050565b6000611c35611c3083611baa565b611c02565b9050919050565b611c4581611179565b82525050565b6000611c578383611c3c565b60208301905092915050565b60008083016000808401611c778682611b96565b95505060018401549050611c8a81611bc1565b611c948682611bea565b95505060028401611ca58682611b96565b95505060038401611cb68682611b96565b95505060048401611cc78682611b96565b95505060058401549050611cda81611bc1565b611ce48682611bea565b95505060068401549050611cf781611c22565b611d018682611c4b565b955050849250505092915050565b6000611d1b8284611c63565b915081905092915050565b7f4e487b7100000000000000000000000000000000000000000000000000000000600052601160045260246000fd5b6000611d60826110c7565b91507fffffffffffffffffffffffffffffffffffffffffffffffffffffffffffffffff8203611d9257611d91611d26565b5b600182019050919050565b7f43616e6e6f742061646420612063616d70616761696e20776974682073616d6560008201527f206e616d65000000000000000000000000000000000000000000000000000000602082015250565b6000611df96025836111b4565b9150611e0482611d9d565b604082019050919050565b60006020820190508181036000830152611e2881611dec565b9050919050565b6000611e3a826111a9565b611e448185611b07565b9350611e548185602086016111c5565b611e5d81610f8b565b840191505092915050565b6000611e748383611e2f565b905092915050565b60008083016000830151611e908582611e68565b9450506020830151611ea28582611bea565b9450506040830151611eb48582611e68565b9450506060830151611ec68582611e68565b9450506080830151611ed88582611e68565b94505060a0830151611eea8582611bea565b94505060c0830151611efc8582611c4b565b9450508391505092915050565b6000611f158284611e7c565b91508190509291505056fea2646970667358221220f5e5b127971b3973c90beac7831cf0e38aabc16805f7fb8df2b36753db40d20d64736f6c63430008130033",
  "immutableReferences": {},
  "source": "// SPDX-License-Identifier: Ahmed FAST-NU\r\npragma solidity ^0.8.0;\r\n\r\ncontract Nobiety {\r\n    struct Backer{\r\n    address backer;\r\n    uint256 donation;\r\n    string time;\r\n    }\r\n    struct Campaign{\r\n        string title;\r\n        uint256 amount;\r\n        string url;\r\n        string description;\r\n        string status;\r\n        uint256 raisedAmount;\r\n        address owner;\r\n    }\r\n\r\n    Campaign[] public allCampaignList;\r\n    mapping(string=>Backer[]) public backers;\r\n        constructor() {\r\n    }\r\n    \r\n    event launchCampagin(Campaign indexed cam);\r\n    event updateCampagin(Campaign indexed cam);\r\n    event deleteCampagin(Campaign indexed cam);\r\n\r\n    function isNameExist(string memory title) public view returns(bool) {\r\n     bool flag = true;\r\n     for (uint256 i = 0; i < allCampaignList.length; i++) {\r\n        Campaign storage currentCampaign = allCampaignList[i]; //shallow copy - pointing to actual position of currentCampaign \r\n        if (keccak256(bytes(currentCampaign.title)) == keccak256(bytes(title))) {\r\n            flag = false;\r\n            break;\r\n        }\r\n    }\r\n    return flag;\r\n}\r\n\r\n   function addCampaign(string memory _title, uint256 _amount, string memory _url, string memory _description) public {\r\n        require(isNameExist(_title),\"Cannot add a campagain with same name\");\r\n        Campaign memory newCampaign = Campaign({\r\n            title: _title,\r\n            amount: _amount,\r\n            url: _url,\r\n            description: _description,\r\n            status : \"Live\",\r\n            raisedAmount : 0.00,\r\n            owner : msg.sender\r\n        });\r\n       \r\n        allCampaignList.push(newCampaign);\r\n        emit launchCampagin(newCampaign);\r\n        \r\n    }\r\n\r\n    function updateCampaign(string memory _oldTitle, string memory _title, uint256 _amount, string memory _url, string memory _description) public {\r\n    for (uint256 i = 0; i < allCampaignList.length; i++) {\r\n        Campaign storage currentCampaign = allCampaignList[i];\r\n        if (keccak256(bytes(currentCampaign.title)) == keccak256(bytes(_oldTitle)) && currentCampaign.owner == msg.sender) {\r\n            currentCampaign.title = _title;\r\n            currentCampaign.amount = _amount;\r\n            currentCampaign.url = _url;\r\n            currentCampaign.description = _description;\r\n            emit updateCampagin(currentCampaign);\r\n            break;\r\n        }\r\n    }\r\n    }\r\n\r\n    function deleteCampaign(string memory _title) public {\r\n    for (uint256 i = 0; i < allCampaignList.length; i++) {\r\n        Campaign storage currentCampaign = allCampaignList[i];\r\n        if (keccak256(bytes(currentCampaign.title)) == keccak256(bytes(_title)) && currentCampaign.owner == msg.sender) {\r\n          currentCampaign.status = \"Deleted\";\r\n          emit deleteCampagin(currentCampaign);\r\n          break;\r\n        }\r\n    }\r\n    }\r\n\r\n     function getAllCampaignList() public view returns (Campaign[] memory) {\r\n        uint256 count = 0;\r\n        for (uint256 i = 0; i < allCampaignList.length; i++) {\r\n            if (keccak256(bytes(allCampaignList[i].status)) != keccak256(bytes(\"Deleted\"))) {\r\n                count++;\r\n            }\r\n        }\r\n        Campaign[] memory temp = new Campaign[](count);\r\n         uint256 j = 0;\r\n        for (uint256 i = 0; i < allCampaignList.length; i++) {\r\n            if (keccak256(bytes(allCampaignList[i].status)) != keccak256(bytes(\"Deleted\"))) {\r\n                temp[j] = allCampaignList[i];\r\n                j++;\r\n            }\r\n        }\r\n        return temp;\r\n    }  \r\n\r\n}",
  "sourcePath": "I:\\University Data\\FAST semester work\\Semester 8 work\\Blockchain\\Project\\Mid Submission\\contracts\\Nobiety.sol",
  "compiler": {
    "name": "solc",
    "version": "0.8.19+commit.7dd6d404.Emscripten.clang"
  },
  "schemaVersion": "3.4.13",
  "updatedAt": "2023-04-30T21:36:05.548Z",
  "networkType": "ethereum",
  "devdoc": {
    "kind": "dev",
    "methods": {},
    "version": 1
  },
  "userdoc": {
    "kind": "user",
    "methods": {},
    "version": 1
  }
}